{
  "_format": "hh-sol-artifact-1",
  "contractName": "BullBear",
  "sourceName": "contracts/BullBear.sol",
  "abi": [
    {
      "inputs": [
        {
          "internalType": "uint256",
          "name": "updateInterval",
          "type": "uint256"
        },
        {
          "internalType": "address",
          "name": "_pricefeed",
          "type": "address"
        }
      ],
      "stateMutability": "nonpayable",
      "type": "constructor"
    },
    {
      "anonymous": false,
      "inputs": [
        {
          "indexed": true,
          "internalType": "address",
          "name": "owner",
          "type": "address"
        },
        {
          "indexed": true,
          "internalType": "address",
          "name": "approved",
          "type": "address"
        },
        {
          "indexed": true,
          "internalType": "uint256",
          "name": "tokenId",
          "type": "uint256"
        }
      ],
      "name": "Approval",
      "type": "event"
    },
    {
      "anonymous": false,
      "inputs": [
        {
          "indexed": true,
          "internalType": "address",
          "name": "owner",
          "type": "address"
        },
        {
          "indexed": true,
          "internalType": "address",
          "name": "operator",
          "type": "address"
        },
        {
          "indexed": false,
          "internalType": "bool",
          "name": "approved",
          "type": "bool"
        }
      ],
      "name": "ApprovalForAll",
      "type": "event"
    },
    {
      "anonymous": false,
      "inputs": [
        {
          "indexed": false,
          "internalType": "uint256",
          "name": "_fromTokenId",
          "type": "uint256"
        },
        {
          "indexed": false,
          "internalType": "uint256",
          "name": "_toTokenId",
          "type": "uint256"
        }
      ],
      "name": "BatchMetadataUpdate",
      "type": "event"
    },
    {
      "anonymous": false,
      "inputs": [
        {
          "indexed": false,
          "internalType": "uint256",
          "name": "_tokenId",
          "type": "uint256"
        }
      ],
      "name": "MetadataUpdate",
      "type": "event"
    },
    {
      "anonymous": false,
      "inputs": [
        {
          "indexed": true,
          "internalType": "address",
          "name": "previousOwner",
          "type": "address"
        },
        {
          "indexed": true,
          "internalType": "address",
          "name": "newOwner",
          "type": "address"
        }
      ],
      "name": "OwnershipTransferred",
      "type": "event"
    },
    {
      "anonymous": false,
      "inputs": [
        {
          "indexed": false,
          "internalType": "string",
          "name": "marketTrend",
          "type": "string"
        }
      ],
      "name": "TokensUpdated",
      "type": "event"
    },
    {
      "anonymous": false,
      "inputs": [
        {
          "indexed": true,
          "internalType": "address",
          "name": "from",
          "type": "address"
        },
        {
          "indexed": true,
          "internalType": "address",
          "name": "to",
          "type": "address"
        },
        {
          "indexed": true,
          "internalType": "uint256",
          "name": "tokenId",
          "type": "uint256"
        }
      ],
      "name": "Transfer",
      "type": "event"
    },
    {
      "inputs": [
        {
          "internalType": "address",
          "name": "to",
          "type": "address"
        },
        {
          "internalType": "uint256",
          "name": "tokenId",
          "type": "uint256"
        }
      ],
      "name": "approve",
      "outputs": [],
      "stateMutability": "nonpayable",
      "type": "function"
    },
    {
      "inputs": [
        {
          "internalType": "address",
          "name": "owner",
          "type": "address"
        }
      ],
      "name": "balanceOf",
      "outputs": [
        {
          "internalType": "uint256",
          "name": "",
          "type": "uint256"
        }
      ],
      "stateMutability": "view",
      "type": "function"
    },
    {
      "inputs": [
        {
          "internalType": "bytes",
          "name": "",
          "type": "bytes"
        }
      ],
      "name": "checkUpkeep",
      "outputs": [
        {
          "internalType": "bool",
          "name": "upkeepNeeded",
          "type": "bool"
        },
        {
          "internalType": "bytes",
          "name": "",
          "type": "bytes"
        }
      ],
      "stateMutability": "view",
      "type": "function"
    },
    {
      "inputs": [],
      "name": "currentPrice",
      "outputs": [
        {
          "internalType": "int256",
          "name": "",
          "type": "int256"
        }
      ],
      "stateMutability": "view",
      "type": "function"
    },
    {
      "inputs": [
        {
          "internalType": "uint256",
          "name": "tokenId",
          "type": "uint256"
        }
      ],
      "name": "getApproved",
      "outputs": [
        {
          "internalType": "address",
          "name": "",
          "type": "address"
        }
      ],
      "stateMutability": "view",
      "type": "function"
    },
    {
      "inputs": [],
      "name": "getLatestPrice",
      "outputs": [
        {
          "internalType": "int256",
          "name": "",
          "type": "int256"
        }
      ],
      "stateMutability": "view",
      "type": "function"
    },
    {
      "inputs": [],
      "name": "interval",
      "outputs": [
        {
          "internalType": "uint256",
          "name": "",
          "type": "uint256"
        }
      ],
      "stateMutability": "view",
      "type": "function"
    },
    {
      "inputs": [
        {
          "internalType": "address",
          "name": "owner",
          "type": "address"
        },
        {
          "internalType": "address",
          "name": "operator",
          "type": "address"
        }
      ],
      "name": "isApprovedForAll",
      "outputs": [
        {
          "internalType": "bool",
          "name": "",
          "type": "bool"
        }
      ],
      "stateMutability": "view",
      "type": "function"
    },
    {
      "inputs": [],
      "name": "lastTimeStamp",
      "outputs": [
        {
          "internalType": "uint256",
          "name": "",
          "type": "uint256"
        }
      ],
      "stateMutability": "view",
      "type": "function"
    },
    {
      "inputs": [],
      "name": "name",
      "outputs": [
        {
          "internalType": "string",
          "name": "",
          "type": "string"
        }
      ],
      "stateMutability": "view",
      "type": "function"
    },
    {
      "inputs": [],
      "name": "owner",
      "outputs": [
        {
          "internalType": "address",
          "name": "",
          "type": "address"
        }
      ],
      "stateMutability": "view",
      "type": "function"
    },
    {
      "inputs": [
        {
          "internalType": "uint256",
          "name": "tokenId",
          "type": "uint256"
        }
      ],
      "name": "ownerOf",
      "outputs": [
        {
          "internalType": "address",
          "name": "",
          "type": "address"
        }
      ],
      "stateMutability": "view",
      "type": "function"
    },
    {
      "inputs": [
        {
          "internalType": "bytes",
          "name": "",
          "type": "bytes"
        }
      ],
      "name": "performUpkeep",
      "outputs": [],
      "stateMutability": "nonpayable",
      "type": "function"
    },
    {
      "inputs": [],
      "name": "pricefeed",
      "outputs": [
        {
          "internalType": "contract AggregatorV3Interface",
          "name": "",
          "type": "address"
        }
      ],
      "stateMutability": "view",
      "type": "function"
    },
    {
      "inputs": [],
      "name": "renounceOwnership",
      "outputs": [],
      "stateMutability": "nonpayable",
      "type": "function"
    },
    {
      "inputs": [
        {
          "internalType": "address",
          "name": "to",
          "type": "address"
        }
      ],
      "name": "safeMint",
      "outputs": [],
      "stateMutability": "nonpayable",
      "type": "function"
    },
    {
      "inputs": [
        {
          "internalType": "address",
          "name": "from",
          "type": "address"
        },
        {
          "internalType": "address",
          "name": "to",
          "type": "address"
        },
        {
          "internalType": "uint256",
          "name": "tokenId",
          "type": "uint256"
        }
      ],
      "name": "safeTransferFrom",
      "outputs": [],
      "stateMutability": "nonpayable",
      "type": "function"
    },
    {
      "inputs": [
        {
          "internalType": "address",
          "name": "from",
          "type": "address"
        },
        {
          "internalType": "address",
          "name": "to",
          "type": "address"
        },
        {
          "internalType": "uint256",
          "name": "tokenId",
          "type": "uint256"
        },
        {
          "internalType": "bytes",
          "name": "data",
          "type": "bytes"
        }
      ],
      "name": "safeTransferFrom",
      "outputs": [],
      "stateMutability": "nonpayable",
      "type": "function"
    },
    {
      "inputs": [
        {
          "internalType": "address",
          "name": "operator",
          "type": "address"
        },
        {
          "internalType": "bool",
          "name": "approved",
          "type": "bool"
        }
      ],
      "name": "setApprovalForAll",
      "outputs": [],
      "stateMutability": "nonpayable",
      "type": "function"
    },
    {
      "inputs": [
        {
          "internalType": "uint256",
          "name": "newInterval",
          "type": "uint256"
        }
      ],
      "name": "setInterval",
      "outputs": [],
      "stateMutability": "nonpayable",
      "type": "function"
    },
    {
      "inputs": [
        {
          "internalType": "address",
          "name": "newFeed",
          "type": "address"
        }
      ],
      "name": "setPriceFeed",
      "outputs": [],
      "stateMutability": "nonpayable",
      "type": "function"
    },
    {
      "inputs": [
        {
          "internalType": "bytes4",
          "name": "interfaceId",
          "type": "bytes4"
        }
      ],
      "name": "supportsInterface",
      "outputs": [
        {
          "internalType": "bool",
          "name": "",
          "type": "bool"
        }
      ],
      "stateMutability": "view",
      "type": "function"
    },
    {
      "inputs": [],
      "name": "symbol",
      "outputs": [
        {
          "internalType": "string",
          "name": "",
          "type": "string"
        }
      ],
      "stateMutability": "view",
      "type": "function"
    },
    {
      "inputs": [
        {
          "internalType": "uint256",
          "name": "index",
          "type": "uint256"
        }
      ],
      "name": "tokenByIndex",
      "outputs": [
        {
          "internalType": "uint256",
          "name": "",
          "type": "uint256"
        }
      ],
      "stateMutability": "view",
      "type": "function"
    },
    {
      "inputs": [
        {
          "internalType": "address",
          "name": "owner",
          "type": "address"
        },
        {
          "internalType": "uint256",
          "name": "index",
          "type": "uint256"
        }
      ],
      "name": "tokenOfOwnerByIndex",
      "outputs": [
        {
          "internalType": "uint256",
          "name": "",
          "type": "uint256"
        }
      ],
      "stateMutability": "view",
      "type": "function"
    },
    {
      "inputs": [
        {
          "internalType": "uint256",
          "name": "tokenId",
          "type": "uint256"
        }
      ],
      "name": "tokenURI",
      "outputs": [
        {
          "internalType": "string",
          "name": "",
          "type": "string"
        }
      ],
      "stateMutability": "view",
      "type": "function"
    },
    {
      "inputs": [],
      "name": "totalSupply",
      "outputs": [
        {
          "internalType": "uint256",
          "name": "",
          "type": "uint256"
        }
      ],
      "stateMutability": "view",
      "type": "function"
    },
    {
      "inputs": [
        {
          "internalType": "address",
          "name": "from",
          "type": "address"
        },
        {
          "internalType": "address",
          "name": "to",
          "type": "address"
        },
        {
          "internalType": "uint256",
          "name": "tokenId",
          "type": "uint256"
        }
      ],
      "name": "transferFrom",
      "outputs": [],
      "stateMutability": "nonpayable",
      "type": "function"
    },
    {
      "inputs": [
        {
          "internalType": "address",
          "name": "newOwner",
          "type": "address"
        }
      ],
      "name": "transferOwnership",
      "outputs": [],
      "stateMutability": "nonpayable",
      "type": "function"
    }
  ],
  "bytecode": "0x610160604052605c60e081815260809182919062002b976101003981526020016040518060800160405280605c815260200162002cad605c913981526020016040518060800160405280605d815260200162002b3a605d913990526200006a906011906003620002b3565b506040805160e08101909152605d60608201818152829162002c50608084013981526020016040518060800160405280605d815260200162002d09605d913981526020016040518060800160405280605d815260200162002bf3605d91399052620000da906012906003620002b3565b50348015620000e857600080fd5b5060405162002d6638038062002d668339810160408190526200010b916200041c565b6040805180820182526009815268213ab636132132b0b960b91b6020808301918252835180850190945260048452634242544b60e01b908401528151919291620001589160009162000317565b5080516200016e90600190602084019062000317565b5050506200018b62000185620001c560201b60201c565b620001c9565b600e82905542600f55600d80546001600160a01b0319166001600160a01b038316179055620001b96200021b565b601055506200050a9050565b3390565b600b80546001600160a01b038381166001600160a01b0319831681179093556040519116919082907f8be0079c531659141344cd1fd0a4f28419497f9722a3daafe3b4186f6b6457e090600090a35050565b600080600d60009054906101000a90046001600160a01b03166001600160a01b031663feaf968c6040518163ffffffff1660e01b815260040160a06040518083038186803b1580156200026d57600080fd5b505afa15801562000282573d6000803e3d6000fd5b505050506040513d601f19601f82011682018060405250810190620002a8919062000478565b509195945050505050565b82805482825590600052602060002090810192821562000305579160200282015b82811115620003055782518051620002f491849160209091019062000317565b5091602001919060010190620002d4565b5062000313929150620003a2565b5090565b8280546200032590620004cd565b90600052602060002090601f01602090048101928262000349576000855562000394565b82601f106200036457805160ff191683800117855562000394565b8280016001018555821562000394579182015b828111156200039457825182559160200191906001019062000377565b5062000313929150620003c3565b8082111562000313576000620003b98282620003da565b50600101620003a2565b5b80821115620003135760008155600101620003c4565b508054620003e890620004cd565b6000825580601f10620003f9575050565b601f016020900490600052602060002090810190620004199190620003c3565b50565b600080604083850312156200043057600080fd5b825160208401519092506001600160a01b03811681146200045057600080fd5b809150509250929050565b80516001600160501b03811681146200047357600080fd5b919050565b600080600080600060a086880312156200049157600080fd5b6200049c866200045b565b9450602086015193506040860151925060608601519150620004c1608087016200045b565b90509295509295909350565b600181811c90821680620004e257607f821691505b602082108114156200050457634e487b7160e01b600052602260045260246000fd5b50919050565b612620806200051a6000396000f3fe608060405234801561001057600080fd5b50600436106101cf5760003560e01c80636352211e11610104578063947a36fb116100a2578063b88d4fde11610071578063b88d4fde146103ac578063c87b56dd146103bf578063e985e9c5146103d2578063f2fde38b1461040e57600080fd5b8063947a36fb1461037f57806395d89b41146103885780639d1b464a14610390578063a22cb4651461039957600080fd5b8063715018a6116100de578063715018a61461034b578063724e78da146103535780638da5cb5b146103665780638e15f4731461037757600080fd5b80636352211e146103045780636e04ff0d1461031757806370a082311461033857600080fd5b80632f745c591161017157806342842e0e1161014b57806342842e0e146102b85780634585e33b146102cb5780634f6ccce7146102de578063590f2113146102f157600080fd5b80632f745c59146102895780633f3b3b271461029c57806340d097c3146102a557600080fd5b8063095ea7b3116101ad578063095ea7b31461023c57806318160ddd1461025157806322a900821461026357806323b872dd1461027657600080fd5b806301ffc9a7146101d457806306fdde03146101fc578063081812fc14610211575b600080fd5b6101e76101e2366004611f99565b610421565b60405190151581526020015b60405180910390f35b610204610432565b6040516101f3919061200e565b61022461021f366004612021565b6104c4565b6040516001600160a01b0390911681526020016101f3565b61024f61024a366004612056565b6104eb565b005b6008545b6040519081526020016101f3565b61024f610271366004612021565b610606565b61024f610284366004612080565b610613565b610255610297366004612056565b610644565b610255600f5481565b61024f6102b33660046120bc565b6106da565b61024f6102c6366004612080565b610822565b61024f6102d93660046120d7565b61083d565b6102556102ec366004612021565b61099d565b600d54610224906001600160a01b031681565b610224610312366004612021565b610a30565b61032a6103253660046120d7565b610a90565b6040516101f3929190612149565b6102556103463660046120bc565b610aaf565b61024f610b35565b61024f6103613660046120bc565b610b49565b600b546001600160a01b0316610224565b610255610b73565b610255600e5481565b610204610c07565b61025560105481565b61024f6103a7366004612164565b610c16565b61024f6103ba3660046121b6565b610c21565b6102046103cd366004612021565b610c59565b6101e76103e0366004612292565b6001600160a01b03918216600090815260056020908152604080832093909416825291909152205460ff1690565b61024f61041c3660046120bc565b610c64565b600061042c82610cdd565b92915050565b606060008054610441906122c5565b80601f016020809104026020016040519081016040528092919081815260200182805461046d906122c5565b80156104ba5780601f1061048f576101008083540402835291602001916104ba565b820191906000526020600020905b81548152906001019060200180831161049d57829003601f168201915b5050505050905090565b60006104cf82610d02565b506000908152600460205260409020546001600160a01b031690565b60006104f682610a30565b9050806001600160a01b0316836001600160a01b031614156105695760405162461bcd60e51b815260206004820152602160248201527f4552433732313a20617070726f76616c20746f2063757272656e74206f776e656044820152603960f91b60648201526084015b60405180910390fd5b336001600160a01b0382161480610585575061058581336103e0565b6105f75760405162461bcd60e51b815260206004820152603d60248201527f4552433732313a20617070726f76652063616c6c6572206973206e6f7420746f60448201527f6b656e206f776e6572206f7220617070726f76656420666f7220616c6c0000006064820152608401610560565b6106018383610d61565b505050565b61060e610dcf565b600e55565b61061d3382610e29565b6106395760405162461bcd60e51b815260040161056090612300565b610601838383610ea8565b600061064f83610aaf565b82106106b15760405162461bcd60e51b815260206004820152602b60248201527f455243373231456e756d657261626c653a206f776e657220696e646578206f7560448201526a74206f6620626f756e647360a81b6064820152608401610560565b506001600160a01b03919091166000908152600660209081526040808320938352929052205490565b60006106e5600c5490565b90506106f5600c80546001019055565b6106ff8282611019565b600060116000815481106107155761071561234d565b90600052602060002001805461072a906122c5565b80601f0160208091040260200160405190810160405280929190818152602001828054610756906122c5565b80156107a35780601f10610778576101008083540402835291602001916107a3565b820191906000526020600020905b81548152906001019060200180831161078657829003601f168201915b505050505090506107b48282611033565b6106016040518060400160405280601581526020017402227a7229090909036b4b73a32b2103a37b5b2b71605d1b815250836040518060400160405280601981526020017f20616e642061737369676e656420746f6b656e2075726c3a200000000000000081525084611105565b61060183838360405180602001604052806000815250610c21565b600e54600f5461084d9042612379565b11156109675742600f556000610861610b73565b90506010548114156108ab576106016040518060400160405280601781526020017f4e4f204348414e4745202d3e2072657475726e696e672100000000000000000081525061114e565b60105481121561090d576108e36040518060400160405280600d81526020016c49545320424541522054494d4560981b81525061114e565b610908604051806040016040528060048152602001633132b0b960e11b815250611191565b610960565b61093b6040518060400160405280600d81526020016c4954532042554c4c2054494d4560981b81525061114e565b61096060405180604001604052806004815260200163189d5b1b60e21b815250611191565b6010555050565b6109996040518060400160405280601181526020017020494e54455256414c204e4f542055502160781b81525061114e565b5050565b60006109a860085490565b8210610a0b5760405162461bcd60e51b815260206004820152602c60248201527f455243373231456e756d657261626c653a20676c6f62616c20696e646578206f60448201526b7574206f6620626f756e647360a01b6064820152608401610560565b60088281548110610a1e57610a1e61234d565b90600052602060002001549050919050565b6000818152600260205260408120546001600160a01b03168061042c5760405162461bcd60e51b8152602060048201526018602482015277115490cdcc8c4e881a5b9d985b1a59081d1bdad95b88125160421b6044820152606401610560565b60006060600e54600f5442610aa59190612379565b1191509250929050565b60006001600160a01b038216610b195760405162461bcd60e51b815260206004820152602960248201527f4552433732313a2061646472657373207a65726f206973206e6f7420612076616044820152683634b21037bbb732b960b91b6064820152608401610560565b506001600160a01b031660009081526003602052604090205490565b610b3d610dcf565b610b4760006113bc565b565b610b51610dcf565b600d80546001600160a01b0319166001600160a01b0392909216919091179055565b600080600d60009054906101000a90046001600160a01b03166001600160a01b031663feaf968c6040518163ffffffff1660e01b815260040160a06040518083038186803b158015610bc457600080fd5b505afa158015610bd8573d6000803e3d6000fd5b505050506040513d601f19601f82011682018060405250810190610bfc91906123aa565b509195945050505050565b606060018054610441906122c5565b61099933838361140e565b610c2b3383610e29565b610c475760405162461bcd60e51b815260040161056090612300565b610c53848484846114dd565b50505050565b606061042c82611510565b610c6c610dcf565b6001600160a01b038116610cd15760405162461bcd60e51b815260206004820152602660248201527f4f776e61626c653a206e6577206f776e657220697320746865207a65726f206160448201526564647265737360d01b6064820152608401610560565b610cda816113bc565b50565b60006001600160e01b03198216632483248360e11b148061042c575061042c82611619565b6000818152600260205260409020546001600160a01b0316610cda5760405162461bcd60e51b8152602060048201526018602482015277115490cdcc8c4e881a5b9d985b1a59081d1bdad95b88125160421b6044820152606401610560565b600081815260046020526040902080546001600160a01b0319166001600160a01b0384169081179091558190610d9682610a30565b6001600160a01b03167f8c5be1e5ebec7d5bd14f71427d1e84f3dd0314c0f7b2291e5b200ac8c7c3b92560405160405180910390a45050565b600b546001600160a01b03163314610b475760405162461bcd60e51b815260206004820181905260248201527f4f776e61626c653a2063616c6c6572206973206e6f7420746865206f776e65726044820152606401610560565b600080610e3583610a30565b9050806001600160a01b0316846001600160a01b03161480610e7c57506001600160a01b0380821660009081526005602090815260408083209388168352929052205460ff165b80610ea05750836001600160a01b0316610e95846104c4565b6001600160a01b0316145b949350505050565b826001600160a01b0316610ebb82610a30565b6001600160a01b031614610ee15760405162461bcd60e51b8152600401610560906123fa565b6001600160a01b038216610f435760405162461bcd60e51b8152602060048201526024808201527f4552433732313a207472616e7366657220746f20746865207a65726f206164646044820152637265737360e01b6064820152608401610560565b610f50838383600161163e565b826001600160a01b0316610f6382610a30565b6001600160a01b031614610f895760405162461bcd60e51b8152600401610560906123fa565b600081815260046020908152604080832080546001600160a01b03199081169091556001600160a01b0387811680865260038552838620805460001901905590871680865283862080546001019055868652600290945282852080549092168417909155905184937fddf252ad1be2c89b69c2b068fc378daa952ba7f163c4a11628f55a4df523b3ef91a4505050565b61099982826040518060200160405280600081525061164a565b6000828152600260205260409020546001600160a01b03166110ae5760405162461bcd60e51b815260206004820152602e60248201527f45524337323155524953746f726167653a2055524920736574206f66206e6f6e60448201526d32bc34b9ba32b73a103a37b5b2b760911b6064820152608401610560565b6000828152600a6020908152604090912082516110cd92840190611eea565b506040518281527ff8e1a15aba9398e019f0b49df1a4fde98ee17ae345cb5f6b5e2c27f5033e8ce79060200160405180910390a15050565b610c538484848460405160240161111f949392919061243f565b60408051601f198184030181529190526020810180516001600160e01b0316635ab84e1f60e01b17905261167d565b610cda81604051602401611162919061200e565b60408051601f198184030181529190526020810180516001600160e01b031663104c13eb60e21b17905261167d565b6111b7604051806040016040528060048152602001633132b0b960e11b81525082611686565b156112ed576112186040518060400160405280601a81526020017f205550444154494e4720544f4b454e2055524953205749544820000000000000815250604051806040016040528060048152602001633132b0b960e11b815250836116df565b60005b600c548110156112e7576112d581601260008154811061123d5761123d61234d565b906000526020600020018054611252906122c5565b80601f016020809104026020016040519081016040528092919081815260200182805461127e906122c5565b80156112cb5780601f106112a0576101008083540402835291602001916112cb565b820191906000526020600020905b8154815290600101906020018083116112ae57829003601f168201915b5050505050611033565b806112df81612489565b91505061121b565b50611382565b6113496040518060400160405280601a81526020017f205550444154494e4720544f4b454e205552495320574954482000000000000081525060405180604001604052806004815260200163189d5b1b60e21b815250836116df565b60005b600c548110156113805761136e81601160008154811061123d5761123d61234d565b8061137881612489565b91505061134c565b505b7f1cd67277dcd039d660f99499bdb46e90175d6160e3f9ab788a032b7a1ad2356a816040516113b1919061200e565b60405180910390a150565b600b80546001600160a01b038381166001600160a01b0319831681179093556040519116919082907f8be0079c531659141344cd1fd0a4f28419497f9722a3daafe3b4186f6b6457e090600090a35050565b816001600160a01b0316836001600160a01b031614156114705760405162461bcd60e51b815260206004820152601960248201527f4552433732313a20617070726f766520746f2063616c6c6572000000000000006044820152606401610560565b6001600160a01b03838116600081815260056020908152604080832094871680845294825291829020805460ff191686151590811790915591519182527f17307eab39ab6107e8899845ad3d59bd9653f200f220920489ca2b5937696c31910160405180910390a3505050565b6114e8848484610ea8565b6114f484848484611726565b610c535760405162461bcd60e51b8152600401610560906124a4565b606061151b82610d02565b6000828152600a602052604081208054611534906122c5565b80601f0160208091040260200160405190810160405280929190818152602001828054611560906122c5565b80156115ad5780601f10611582576101008083540402835291602001916115ad565b820191906000526020600020905b81548152906001019060200180831161159057829003601f168201915b5050505050905060006115cb60408051602081019091526000815290565b90508051600014156115de575092915050565b8151156116105780826040516020016115f89291906124f6565b60405160208183030381529060405292505050919050565b610ea084611833565b60006001600160e01b0319821663780e9d6360e01b148061042c575061042c826118a7565b610c53848484846118f7565b6116548383611a2b565b6116616000848484611726565b6106015760405162461bcd60e51b8152600401610560906124a4565b610cda81611bc4565b6000816040516020016116999190612525565b60405160208183030381529060405280519060200120836040516020016116c09190612525565b6040516020818303038152906040528051906020012014905092915050565b6106018383836040516024016116f793929190612541565b60408051601f198184030181529190526020810180516001600160e01b0316632ced7cef60e01b17905261167d565b60006001600160a01b0384163b1561182857604051630a85bd0160e11b81526001600160a01b0385169063150b7a029061176a903390899088908890600401612584565b602060405180830381600087803b15801561178457600080fd5b505af19250505080156117b4575060408051601f3d908101601f191682019092526117b1918101906125b7565b60015b61180e573d8080156117e2576040519150601f19603f3d011682016040523d82523d6000602084013e6117e7565b606091505b5080516118065760405162461bcd60e51b8152600401610560906124a4565b805181602001fd5b6001600160e01b031916630a85bd0160e11b149050610ea0565b506001949350505050565b606061183e82610d02565b600061185560408051602081019091526000815290565b9050600081511161187557604051806020016040528060008152506118a0565b8061187f84611be5565b6040516020016118909291906124f6565b6040516020818303038152906040525b9392505050565b60006001600160e01b031982166380ac58cd60e01b14806118d857506001600160e01b03198216635b5e139f60e01b145b8061042c57506301ffc9a760e01b6001600160e01b031983161461042c565b60018111156119665760405162461bcd60e51b815260206004820152603560248201527f455243373231456e756d657261626c653a20636f6e7365637574697665207472604482015274185b9cd9995c9cc81b9bdd081cdd5c1c1bdc9d1959605a1b6064820152608401610560565b816001600160a01b0385166119c2576119bd81600880546000838152600960205260408120829055600182018355919091527ff3f7a9fe364faab93b216da50a3214154f22a0a2b415b23a84c8169e8b636ee30155565b6119e5565b836001600160a01b0316856001600160a01b0316146119e5576119e58582611c82565b6001600160a01b038416611a01576119fc81611d1f565b611a24565b846001600160a01b0316846001600160a01b031614611a2457611a248482611dce565b5050505050565b6001600160a01b038216611a815760405162461bcd60e51b815260206004820181905260248201527f4552433732313a206d696e7420746f20746865207a65726f20616464726573736044820152606401610560565b6000818152600260205260409020546001600160a01b031615611ae65760405162461bcd60e51b815260206004820152601c60248201527f4552433732313a20746f6b656e20616c7265616479206d696e746564000000006044820152606401610560565b611af460008383600161163e565b6000818152600260205260409020546001600160a01b031615611b595760405162461bcd60e51b815260206004820152601c60248201527f4552433732313a20746f6b656e20616c7265616479206d696e746564000000006044820152606401610560565b6001600160a01b038216600081815260036020908152604080832080546001019055848352600290915280822080546001600160a01b0319168417905551839291907fddf252ad1be2c89b69c2b068fc378daa952ba7f163c4a11628f55a4df523b3ef908290a45050565b60006a636f6e736f6c652e6c6f679050600080835160208501845afa505050565b60606000611bf283611e12565b600101905060008167ffffffffffffffff811115611c1257611c126121a0565b6040519080825280601f01601f191660200182016040528015611c3c576020820181803683370190505b5090508181016020015b600019016f181899199a1a9b1b9c1cb0b131b232b360811b600a86061a8153600a8504945084611c7557611c7a565b611c46565b509392505050565b60006001611c8f84610aaf565b611c999190612379565b600083815260076020526040902054909150808214611cec576001600160a01b03841660009081526006602090815260408083208584528252808320548484528184208190558352600790915290208190555b5060009182526007602090815260408084208490556001600160a01b039094168352600681528383209183525290812055565b600854600090611d3190600190612379565b60008381526009602052604081205460088054939450909284908110611d5957611d5961234d565b906000526020600020015490508060088381548110611d7a57611d7a61234d565b6000918252602080832090910192909255828152600990915260408082208490558582528120556008805480611db257611db26125d4565b6001900381819060005260206000200160009055905550505050565b6000611dd983610aaf565b6001600160a01b039093166000908152600660209081526040808320868452825280832085905593825260079052919091209190915550565b60008072184f03e93ff9f4daa797ed6e38ed64bf6a1f0160401b8310611e515772184f03e93ff9f4daa797ed6e38ed64bf6a1f0160401b830492506040015b6d04ee2d6d415b85acef81000000008310611e7d576d04ee2d6d415b85acef8100000000830492506020015b662386f26fc100008310611e9b57662386f26fc10000830492506010015b6305f5e1008310611eb3576305f5e100830492506008015b6127108310611ec757612710830492506004015b60648310611ed9576064830492506002015b600a831061042c5760010192915050565b828054611ef6906122c5565b90600052602060002090601f016020900481019282611f185760008555611f5e565b82601f10611f3157805160ff1916838001178555611f5e565b82800160010185558215611f5e579182015b82811115611f5e578251825591602001919060010190611f43565b50611f6a929150611f6e565b5090565b5b80821115611f6a5760008155600101611f6f565b6001600160e01b031981168114610cda57600080fd5b600060208284031215611fab57600080fd5b81356118a081611f83565b60005b83811015611fd1578181015183820152602001611fb9565b83811115610c535750506000910152565b60008151808452611ffa816020860160208601611fb6565b601f01601f19169290920160200192915050565b6020815260006118a06020830184611fe2565b60006020828403121561203357600080fd5b5035919050565b80356001600160a01b038116811461205157600080fd5b919050565b6000806040838503121561206957600080fd5b6120728361203a565b946020939093013593505050565b60008060006060848603121561209557600080fd5b61209e8461203a565b92506120ac6020850161203a565b9150604084013590509250925092565b6000602082840312156120ce57600080fd5b6118a08261203a565b600080602083850312156120ea57600080fd5b823567ffffffffffffffff8082111561210257600080fd5b818501915085601f83011261211657600080fd5b81358181111561212557600080fd5b86602082850101111561213757600080fd5b60209290920196919550909350505050565b8215158152604060208201526000610ea06040830184611fe2565b6000806040838503121561217757600080fd5b6121808361203a565b91506020830135801515811461219557600080fd5b809150509250929050565b634e487b7160e01b600052604160045260246000fd5b600080600080608085870312156121cc57600080fd5b6121d58561203a565b93506121e36020860161203a565b925060408501359150606085013567ffffffffffffffff8082111561220757600080fd5b818701915087601f83011261221b57600080fd5b81358181111561222d5761222d6121a0565b604051601f8201601f19908116603f01168101908382118183101715612255576122556121a0565b816040528281528a602084870101111561226e57600080fd5b82602086016020830137600060208483010152809550505050505092959194509250565b600080604083850312156122a557600080fd5b6122ae8361203a565b91506122bc6020840161203a565b90509250929050565b600181811c908216806122d957607f821691505b602082108114156122fa57634e487b7160e01b600052602260045260246000fd5b50919050565b6020808252602d908201527f4552433732313a2063616c6c6572206973206e6f7420746f6b656e206f776e6560408201526c1c881bdc88185c1c1c9bdd9959609a1b606082015260800190565b634e487b7160e01b600052603260045260246000fd5b634e487b7160e01b600052601160045260246000fd5b60008282101561238b5761238b612363565b500390565b805169ffffffffffffffffffff8116811461205157600080fd5b600080600080600060a086880312156123c257600080fd5b6123cb86612390565b94506020860151935060408601519250606086015191506123ee60808701612390565b90509295509295909350565b60208082526025908201527f4552433732313a207472616e736665722066726f6d20696e636f72726563742060408201526437bbb732b960d91b606082015260800190565b6080815260006124526080830187611fe2565b856020840152828103604084015261246a8186611fe2565b9050828103606084015261247e8185611fe2565b979650505050505050565b600060001982141561249d5761249d612363565b5060010190565b60208082526032908201527f4552433732313a207472616e7366657220746f206e6f6e20455243373231526560408201527131b2b4bb32b91034b6b83632b6b2b73a32b960711b606082015260800190565b60008351612508818460208801611fb6565b83519083019061251c818360208801611fb6565b01949350505050565b60008251612537818460208701611fb6565b9190910192915050565b6060815260006125546060830186611fe2565b82810360208401526125668186611fe2565b9050828103604084015261257a8185611fe2565b9695505050505050565b6001600160a01b038581168252841660208201526040810183905260806060820181905260009061257a90830184611fe2565b6000602082840312156125c957600080fd5b81516118a081611f83565b634e487b7160e01b600052603160045260246000fdfea26469706673582212208619d4fc20a140c558308c3bb651dc9d6f51d7f785ff7fd4f4064b7473a92d4264736f6c6343000809003368747470733a2f2f697066732e696f2f697066732f516d646355526d4e316b4545744b676e626b564a4a3868726d73535748705a764c6b5267734b4b6f6957765739673f66696c656e616d653d73696d706c655f62756c6c2e6a736f6e68747470733a2f2f697066732e696f2f697066732f516d5258796669336f4e5a43756244786956467265336b4c5a3858654774367051736e4151525a37616b68534e733f66696c656e616d653d67616d65725f62756c6c2e6a736f6e68747470733a2f2f697066732e696f2f697066732f516d624b68425856576d777259735450465966726f52324e374e41656b414d78485556673243576b73376939716a3f66696c656e616d653d73696d706c655f626561722e6a736f6e68747470733a2f2f697066732e696f2f697066732f516d6478394878374643445a474578796a4c52367659636e75745552384b68425a426e5a6641504869556f6d6d4e3f66696c656e616d653d6265616e69655f626561722e6a736f6e68747470733a2f2f697066732e696f2f697066732f516d524a5646654d7274595332435556554d3263484a70425635615832787572706e73665a784c545451626944333f66696c656e616d653d70617274795f62756c6c2e6a736f6e68747470733a2f2f697066732e696f2f697066732f516d54564c79545375694b4755456d6238384267584733714e4338596770485a6946626a4872584b4833514845753f66696c656e616d653d636f6f6c696f5f626561722e6a736f6e",
  "linkReferences": {},
  "deployedLinkReferences": {}
}