{
  "_format": "hh-sol-artifact-1",
  "contractName": "MyNFTUpgradeable",
  "sourceName": "contracts/MyNFT.sol",
  "abi": [
    {
      "anonymous": false,
      "inputs": [
        {
          "indexed": true,
          "internalType": "address",
          "name": "owner",
          "type": "address"
        },
        {
          "indexed": true,
          "internalType": "address",
          "name": "approved",
          "type": "address"
        },
        {
          "indexed": true,
          "internalType": "uint256",
          "name": "tokenId",
          "type": "uint256"
        }
      ],
      "name": "Approval",
      "type": "event"
    },
    {
      "anonymous": false,
      "inputs": [
        {
          "indexed": true,
          "internalType": "address",
          "name": "owner",
          "type": "address"
        },
        {
          "indexed": true,
          "internalType": "address",
          "name": "operator",
          "type": "address"
        },
        {
          "indexed": false,
          "internalType": "bool",
          "name": "approved",
          "type": "bool"
        }
      ],
      "name": "ApprovalForAll",
      "type": "event"
    },
    {
      "anonymous": false,
      "inputs": [
        {
          "indexed": false,
          "internalType": "uint256",
          "name": "_fromTokenId",
          "type": "uint256"
        },
        {
          "indexed": false,
          "internalType": "uint256",
          "name": "_toTokenId",
          "type": "uint256"
        }
      ],
      "name": "BatchMetadataUpdate",
      "type": "event"
    },
    {
      "anonymous": false,
      "inputs": [
        {
          "indexed": false,
          "internalType": "uint8",
          "name": "version",
          "type": "uint8"
        }
      ],
      "name": "Initialized",
      "type": "event"
    },
    {
      "anonymous": false,
      "inputs": [
        {
          "indexed": false,
          "internalType": "uint256",
          "name": "_tokenId",
          "type": "uint256"
        }
      ],
      "name": "MetadataUpdate",
      "type": "event"
    },
    {
      "anonymous": false,
      "inputs": [
        {
          "indexed": true,
          "internalType": "address",
          "name": "previousOwner",
          "type": "address"
        },
        {
          "indexed": true,
          "internalType": "address",
          "name": "newOwner",
          "type": "address"
        }
      ],
      "name": "OwnershipTransferred",
      "type": "event"
    },
    {
      "anonymous": false,
      "inputs": [
        {
          "indexed": true,
          "internalType": "address",
          "name": "from",
          "type": "address"
        },
        {
          "indexed": true,
          "internalType": "address",
          "name": "to",
          "type": "address"
        },
        {
          "indexed": true,
          "internalType": "uint256",
          "name": "tokenId",
          "type": "uint256"
        }
      ],
      "name": "Transfer",
      "type": "event"
    },
    {
      "inputs": [
        {
          "internalType": "address",
          "name": "to",
          "type": "address"
        },
        {
          "internalType": "uint256",
          "name": "tokenId",
          "type": "uint256"
        }
      ],
      "name": "approve",
      "outputs": [],
      "stateMutability": "nonpayable",
      "type": "function"
    },
    {
      "inputs": [
        {
          "internalType": "address",
          "name": "owner",
          "type": "address"
        }
      ],
      "name": "balanceOf",
      "outputs": [
        {
          "internalType": "uint256",
          "name": "",
          "type": "uint256"
        }
      ],
      "stateMutability": "view",
      "type": "function"
    },
    {
      "inputs": [
        {
          "internalType": "uint256",
          "name": "tokenId",
          "type": "uint256"
        }
      ],
      "name": "burn",
      "outputs": [],
      "stateMutability": "nonpayable",
      "type": "function"
    },
    {
      "inputs": [
        {
          "internalType": "uint256",
          "name": "tokenId",
          "type": "uint256"
        }
      ],
      "name": "getApproved",
      "outputs": [
        {
          "internalType": "address",
          "name": "",
          "type": "address"
        }
      ],
      "stateMutability": "view",
      "type": "function"
    },
    {
      "inputs": [],
      "name": "initialize",
      "outputs": [],
      "stateMutability": "nonpayable",
      "type": "function"
    },
    {
      "inputs": [
        {
          "internalType": "address",
          "name": "owner",
          "type": "address"
        },
        {
          "internalType": "address",
          "name": "operator",
          "type": "address"
        }
      ],
      "name": "isApprovedForAll",
      "outputs": [
        {
          "internalType": "bool",
          "name": "",
          "type": "bool"
        }
      ],
      "stateMutability": "view",
      "type": "function"
    },
    {
      "inputs": [],
      "name": "name",
      "outputs": [
        {
          "internalType": "string",
          "name": "",
          "type": "string"
        }
      ],
      "stateMutability": "view",
      "type": "function"
    },
    {
      "inputs": [],
      "name": "owner",
      "outputs": [
        {
          "internalType": "address",
          "name": "",
          "type": "address"
        }
      ],
      "stateMutability": "view",
      "type": "function"
    },
    {
      "inputs": [
        {
          "internalType": "uint256",
          "name": "tokenId",
          "type": "uint256"
        }
      ],
      "name": "ownerOf",
      "outputs": [
        {
          "internalType": "address",
          "name": "",
          "type": "address"
        }
      ],
      "stateMutability": "view",
      "type": "function"
    },
    {
      "inputs": [],
      "name": "renounceOwnership",
      "outputs": [],
      "stateMutability": "nonpayable",
      "type": "function"
    },
    {
      "inputs": [
        {
          "internalType": "address",
          "name": "to",
          "type": "address"
        },
        {
          "internalType": "string",
          "name": "uri",
          "type": "string"
        }
      ],
      "name": "safeMint",
      "outputs": [],
      "stateMutability": "nonpayable",
      "type": "function"
    },
    {
      "inputs": [
        {
          "internalType": "address",
          "name": "from",
          "type": "address"
        },
        {
          "internalType": "address",
          "name": "to",
          "type": "address"
        },
        {
          "internalType": "uint256",
          "name": "tokenId",
          "type": "uint256"
        }
      ],
      "name": "safeTransferFrom",
      "outputs": [],
      "stateMutability": "nonpayable",
      "type": "function"
    },
    {
      "inputs": [
        {
          "internalType": "address",
          "name": "from",
          "type": "address"
        },
        {
          "internalType": "address",
          "name": "to",
          "type": "address"
        },
        {
          "internalType": "uint256",
          "name": "tokenId",
          "type": "uint256"
        },
        {
          "internalType": "bytes",
          "name": "data",
          "type": "bytes"
        }
      ],
      "name": "safeTransferFrom",
      "outputs": [],
      "stateMutability": "nonpayable",
      "type": "function"
    },
    {
      "inputs": [
        {
          "internalType": "address",
          "name": "operator",
          "type": "address"
        },
        {
          "internalType": "bool",
          "name": "approved",
          "type": "bool"
        }
      ],
      "name": "setApprovalForAll",
      "outputs": [],
      "stateMutability": "nonpayable",
      "type": "function"
    },
    {
      "inputs": [
        {
          "internalType": "bytes4",
          "name": "interfaceId",
          "type": "bytes4"
        }
      ],
      "name": "supportsInterface",
      "outputs": [
        {
          "internalType": "bool",
          "name": "",
          "type": "bool"
        }
      ],
      "stateMutability": "view",
      "type": "function"
    },
    {
      "inputs": [],
      "name": "symbol",
      "outputs": [
        {
          "internalType": "string",
          "name": "",
          "type": "string"
        }
      ],
      "stateMutability": "view",
      "type": "function"
    },
    {
      "inputs": [
        {
          "internalType": "uint256",
          "name": "index",
          "type": "uint256"
        }
      ],
      "name": "tokenByIndex",
      "outputs": [
        {
          "internalType": "uint256",
          "name": "",
          "type": "uint256"
        }
      ],
      "stateMutability": "view",
      "type": "function"
    },
    {
      "inputs": [
        {
          "internalType": "address",
          "name": "owner",
          "type": "address"
        },
        {
          "internalType": "uint256",
          "name": "index",
          "type": "uint256"
        }
      ],
      "name": "tokenOfOwnerByIndex",
      "outputs": [
        {
          "internalType": "uint256",
          "name": "",
          "type": "uint256"
        }
      ],
      "stateMutability": "view",
      "type": "function"
    },
    {
      "inputs": [
        {
          "internalType": "uint256",
          "name": "tokenId",
          "type": "uint256"
        }
      ],
      "name": "tokenURI",
      "outputs": [
        {
          "internalType": "string",
          "name": "",
          "type": "string"
        }
      ],
      "stateMutability": "view",
      "type": "function"
    },
    {
      "inputs": [],
      "name": "totalSupply",
      "outputs": [
        {
          "internalType": "uint256",
          "name": "",
          "type": "uint256"
        }
      ],
      "stateMutability": "view",
      "type": "function"
    },
    {
      "inputs": [
        {
          "internalType": "address",
          "name": "from",
          "type": "address"
        },
        {
          "internalType": "address",
          "name": "to",
          "type": "address"
        },
        {
          "internalType": "uint256",
          "name": "tokenId",
          "type": "uint256"
        }
      ],
      "name": "transferFrom",
      "outputs": [],
      "stateMutability": "nonpayable",
      "type": "function"
    },
    {
      "inputs": [
        {
          "internalType": "address",
          "name": "newOwner",
          "type": "address"
        }
      ],
      "name": "transferOwnership",
      "outputs": [],
      "stateMutability": "nonpayable",
      "type": "function"
    }
  ],
  "bytecode": "0x60806040526040518061014001604052806040518060800160405280605d81526020016200439a605d913981526020016040518060800160405280605d815260200162004453605d913981526020016040518060800160405280605d81526020016200433d605d913981526020016040518060800160405280605c8152602001620042e1605c913981526020016040518060800160405280605c8152602001620043f7605c913981526020016040518060800160405280605d815260200162004284605d913981526020016040518060800160405280605d81526020016200433d605d913981526020016040518060800160405280605c8152602001620042e1605c913981526020016040518060800160405280605c8152602001620043f7605c913981526020016040518060800160405280605d815260200162004284605d913981525061015f90600a620001579291906200016c565b503480156200016557600080fd5b5062000356565b828054828255906000526020600020908101928215620001c0579160200282015b82811115620001bf578251829080519060200190620001ae929190620001d3565b50916020019190600101906200018d565b5b509050620001cf919062000264565b5090565b828054620001e19062000320565b90600052602060002090601f01602090048101928262000205576000855562000251565b82601f106200022057805160ff191683800117855562000251565b8280016001018555821562000251579182015b828111156200025057825182559160200191906001019062000233565b5b5090506200026091906200028c565b5090565b5b808211156200028857600081816200027e9190620002ab565b5060010162000265565b5090565b5b80821115620002a75760008160009055506001016200028d565b5090565b508054620002b99062000320565b6000825580601f10620002cd5750620002ee565b601f016020900490600052602060002090810190620002ed91906200028c565b5b50565b7f4e487b7100000000000000000000000000000000000000000000000000000000600052602260045260246000fd5b600060028204905060018216806200033957607f821691505b6020821081141562000350576200034f620002f1565b5b50919050565b613f1e80620003666000396000f3fe608060405234801561001057600080fd5b50600436106101425760003560e01c806370a08231116100b8578063a22cb4651161007c578063a22cb46514610363578063b88d4fde1461037f578063c87b56dd1461039b578063d204c45e146103cb578063e985e9c5146103e7578063f2fde38b1461041757610142565b806370a08231146102e3578063715018a6146103135780638129fc1c1461031d5780638da5cb5b1461032757806395d89b411461034557610142565b806323b872dd1161010a57806323b872dd146101ff5780632f745c591461021b57806342842e0e1461024b57806342966c68146102675780634f6ccce7146102835780636352211e146102b357610142565b806301ffc9a71461014757806306fdde0314610177578063081812fc14610195578063095ea7b3146101c557806318160ddd146101e1575b600080fd5b610161600480360381019061015c9190612b32565b610433565b60405161016e9190612b7a565b60405180910390f35b61017f610445565b60405161018c9190612c2e565b60405180910390f35b6101af60048036038101906101aa9190612c86565b6104d7565b6040516101bc9190612cf4565b60405180910390f35b6101df60048036038101906101da9190612d3b565b61051d565b005b6101e9610635565b6040516101f69190612d8a565b60405180910390f35b61021960048036038101906102149190612da5565b610642565b005b61023560048036038101906102309190612d3b565b6106a2565b6040516102429190612d8a565b60405180910390f35b61026560048036038101906102609190612da5565b610747565b005b610281600480360381019061027c9190612c86565b610767565b005b61029d60048036038101906102989190612c86565b6107c3565b6040516102aa9190612d8a565b60405180910390f35b6102cd60048036038101906102c89190612c86565b610834565b6040516102da9190612cf4565b60405180910390f35b6102fd60048036038101906102f89190612df8565b6108bb565b60405161030a9190612d8a565b60405180910390f35b61031b610973565b005b610325610987565b005b61032f610c14565b60405161033c9190612cf4565b60405180910390f35b61034d610c3f565b60405161035a9190612c2e565b60405180910390f35b61037d60048036038101906103789190612e51565b610cd1565b005b61039960048036038101906103949190612fc6565b610ce7565b005b6103b560048036038101906103b09190612c86565b610d49565b6040516103c29190612c2e565b60405180910390f35b6103e560048036038101906103e091906130ea565b610d5b565b005b61040160048036038101906103fc9190613146565b610d96565b60405161040e9190612b7a565b60405180910390f35b610431600480360381019061042c9190612df8565b610e2a565b005b600061043e82610eae565b9050919050565b606060658054610454906131b5565b80601f0160208091040260200160405190810160405280929190818152602001828054610480906131b5565b80156104cd5780601f106104a2576101008083540402835291602001916104cd565b820191906000526020600020905b8154815290600101906020018083116104b057829003601f168201915b5050505050905090565b60006104e282610f0f565b6069600083815260200190815260200160002060009054906101000a900473ffffffffffffffffffffffffffffffffffffffff169050919050565b600061052882610834565b90508073ffffffffffffffffffffffffffffffffffffffff168373ffffffffffffffffffffffffffffffffffffffff161415610599576040517f08c379a000000000000000000000000000000000000000000000000000000000815260040161059090613259565b60405180910390fd5b8073ffffffffffffffffffffffffffffffffffffffff166105b8610f5a565b73ffffffffffffffffffffffffffffffffffffffff1614806105e757506105e6816105e1610f5a565b610d96565b5b610626576040517f08c379a000000000000000000000000000000000000000000000000000000000815260040161061d906132eb565b60405180910390fd5b6106308383610f62565b505050565b6000609980549050905090565b61065361064d610f5a565b8261101b565b610692576040517f08c379a00000000000000000000000000000000000000000000000000000000081526004016106899061337d565b60405180910390fd5b61069d8383836110b0565b505050565b60006106ad836108bb565b82106106ee576040517f08c379a00000000000000000000000000000000000000000000000000000000081526004016106e59061340f565b60405180910390fd5b609760008473ffffffffffffffffffffffffffffffffffffffff1673ffffffffffffffffffffffffffffffffffffffff168152602001908152602001600020600083815260200190815260200160002054905092915050565b61076283838360405180602001604052806000815250610ce7565b505050565b610778610772610f5a565b8261101b565b6107b7576040517f08c379a00000000000000000000000000000000000000000000000000000000081526004016107ae9061337d565b60405180910390fd5b6107c0816113aa565b50565b60006107cd610635565b821061080e576040517f08c379a0000000000000000000000000000000000000000000000000000000008152600401610805906134a1565b60405180910390fd5b60998281548110610822576108216134c1565b5b90600052602060002001549050919050565b600080610840836113b6565b9050600073ffffffffffffffffffffffffffffffffffffffff168173ffffffffffffffffffffffffffffffffffffffff1614156108b2576040517f08c379a00000000000000000000000000000000000000000000000000000000081526004016108a99061353c565b60405180910390fd5b80915050919050565b60008073ffffffffffffffffffffffffffffffffffffffff168273ffffffffffffffffffffffffffffffffffffffff16141561092c576040517f08c379a0000000000000000000000000000000000000000000000000000000008152600401610923906135ce565b60405180910390fd5b606860008373ffffffffffffffffffffffffffffffffffffffff1673ffffffffffffffffffffffffffffffffffffffff168152602001908152602001600020549050919050565b61097b6113f3565b6109856000611471565b565b60008060019054906101000a900460ff161590508080156109b85750600160008054906101000a900460ff1660ff16105b806109e557506109c730611539565b1580156109e45750600160008054906101000a900460ff1660ff16145b5b610a24576040517f08c379a0000000000000000000000000000000000000000000000000000000008152600401610a1b90613660565b60405180910390fd5b60016000806101000a81548160ff021916908360ff1602179055508015610a61576001600060016101000a81548160ff0219169083151502179055505b610ad56040518060400160405280600581526020017f4d794e46540000000000000000000000000000000000000000000000000000008152506040518060400160405280600381526020017f4d4e54000000000000000000000000000000000000000000000000000000000081525061155c565b610add6115b9565b610bb861015f805480602002602001604051908101604052809291908181526020016000905b82821015610baf578382906000526020600020018054610b22906131b5565b80601f0160208091040260200160405190810160405280929190818152602001828054610b4e906131b5565b8015610b9b5780601f10610b7057610100808354040283529160200191610b9b565b820191906000526020600020905b815481529060010190602001808311610b7e57829003601f168201915b505050505081526020019060010190610b03565b50505050611612565b8015610c115760008060016101000a81548160ff0219169083151502179055507f7f26b83ff96e1f2b6a682f133852f6798a09c465da95921460cefb38474024986001604051610c0891906136d2565b60405180910390a15b50565b600061012d60009054906101000a900473ffffffffffffffffffffffffffffffffffffffff16905090565b606060668054610c4e906131b5565b80601f0160208091040260200160405190810160405280929190818152602001828054610c7a906131b5565b8015610cc75780601f10610c9c57610100808354040283529160200191610cc7565b820191906000526020600020905b815481529060010190602001808311610caa57829003601f168201915b5050505050905090565b610ce3610cdc610f5a565b8383611661565b5050565b610cf8610cf2610f5a565b8361101b565b610d37576040517f08c379a0000000000000000000000000000000000000000000000000000000008152600401610d2e9061337d565b60405180910390fd5b610d43848484846117ce565b50505050565b6060610d548261182a565b9050919050565b610d636113f3565b6000610d7061016061193d565b9050610d7d61016061194b565b610d878382611961565b610d91818361197f565b505050565b6000606a60008473ffffffffffffffffffffffffffffffffffffffff1673ffffffffffffffffffffffffffffffffffffffff16815260200190815260200160002060008373ffffffffffffffffffffffffffffffffffffffff1673ffffffffffffffffffffffffffffffffffffffff16815260200190815260200160002060009054906101000a900460ff16905092915050565b610e326113f3565b600073ffffffffffffffffffffffffffffffffffffffff168173ffffffffffffffffffffffffffffffffffffffff161415610ea2576040517f08c379a0000000000000000000000000000000000000000000000000000000008152600401610e999061375f565b60405180910390fd5b610eab81611471565b50565b6000634906490660e01b7bffffffffffffffffffffffffffffffffffffffffffffffffffffffff1916827bffffffffffffffffffffffffffffffffffffffffffffffffffffffff19161480610f085750610f0782611a2a565b5b9050919050565b610f1881611aa4565b610f57576040517f08c379a0000000000000000000000000000000000000000000000000000000008152600401610f4e9061353c565b60405180910390fd5b50565b600033905090565b816069600083815260200190815260200160002060006101000a81548173ffffffffffffffffffffffffffffffffffffffff021916908373ffffffffffffffffffffffffffffffffffffffff160217905550808273ffffffffffffffffffffffffffffffffffffffff16610fd583610834565b73ffffffffffffffffffffffffffffffffffffffff167f8c5be1e5ebec7d5bd14f71427d1e84f3dd0314c0f7b2291e5b200ac8c7c3b92560405160405180910390a45050565b60008061102783610834565b90508073ffffffffffffffffffffffffffffffffffffffff168473ffffffffffffffffffffffffffffffffffffffff16148061106957506110688185610d96565b5b806110a757508373ffffffffffffffffffffffffffffffffffffffff1661108f846104d7565b73ffffffffffffffffffffffffffffffffffffffff16145b91505092915050565b8273ffffffffffffffffffffffffffffffffffffffff166110d082610834565b73ffffffffffffffffffffffffffffffffffffffff1614611126576040517f08c379a000000000000000000000000000000000000000000000000000000000815260040161111d906137f1565b60405180910390fd5b600073ffffffffffffffffffffffffffffffffffffffff168273ffffffffffffffffffffffffffffffffffffffff161415611196576040517f08c379a000000000000000000000000000000000000000000000000000000000815260040161118d90613883565b60405180910390fd5b6111a38383836001611ae5565b8273ffffffffffffffffffffffffffffffffffffffff166111c382610834565b73ffffffffffffffffffffffffffffffffffffffff1614611219576040517f08c379a0000000000000000000000000000000000000000000000000000000008152600401611210906137f1565b60405180910390fd5b6069600082815260200190815260200160002060006101000a81549073ffffffffffffffffffffffffffffffffffffffff02191690556001606860008573ffffffffffffffffffffffffffffffffffffffff1673ffffffffffffffffffffffffffffffffffffffff168152602001908152602001600020600082825403925050819055506001606860008473ffffffffffffffffffffffffffffffffffffffff1673ffffffffffffffffffffffffffffffffffffffff16815260200190815260200160002060008282540192505081905550816067600083815260200190815260200160002060006101000a81548173ffffffffffffffffffffffffffffffffffffffff021916908373ffffffffffffffffffffffffffffffffffffffff160217905550808273ffffffffffffffffffffffffffffffffffffffff168473ffffffffffffffffffffffffffffffffffffffff167fddf252ad1be2c89b69c2b068fc378daa952ba7f163c4a11628f55a4df523b3ef60405160405180910390a46113a58383836001611af7565b505050565b6113b381611afd565b50565b60006067600083815260200190815260200160002060009054906101000a900473ffffffffffffffffffffffffffffffffffffffff169050919050565b6113fb610f5a565b73ffffffffffffffffffffffffffffffffffffffff16611419610c14565b73ffffffffffffffffffffffffffffffffffffffff161461146f576040517f08c379a0000000000000000000000000000000000000000000000000000000008152600401611466906138ef565b60405180910390fd5b565b600061012d60009054906101000a900473ffffffffffffffffffffffffffffffffffffffff1690508161012d60006101000a81548173ffffffffffffffffffffffffffffffffffffffff021916908373ffffffffffffffffffffffffffffffffffffffff1602179055508173ffffffffffffffffffffffffffffffffffffffff168173ffffffffffffffffffffffffffffffffffffffff167f8be0079c531659141344cd1fd0a4f28419497f9722a3daafe3b4186f6b6457e060405160405180910390a35050565b6000808273ffffffffffffffffffffffffffffffffffffffff163b119050919050565b600060019054906101000a900460ff166115ab576040517f08c379a00000000000000000000000000000000000000000000000000000000081526004016115a290613981565b60405180910390fd5b6115b58282611b50565b5050565b600060019054906101000a900460ff16611608576040517f08c379a00000000000000000000000000000000000000000000000000000000081526004016115ff90613981565b60405180910390fd5b611610611bd1565b565b61161a6113f3565b60005b815181101561165d5761164a3383838151811061163d5761163c6134c1565b5b6020026020010151610d5b565b8080611655906139d0565b91505061161d565b5050565b8173ffffffffffffffffffffffffffffffffffffffff168373ffffffffffffffffffffffffffffffffffffffff1614156116d0576040517f08c379a00000000000000000000000000000000000000000000000000000000081526004016116c790613a65565b60405180910390fd5b80606a60008573ffffffffffffffffffffffffffffffffffffffff1673ffffffffffffffffffffffffffffffffffffffff16815260200190815260200160002060008473ffffffffffffffffffffffffffffffffffffffff1673ffffffffffffffffffffffffffffffffffffffff16815260200190815260200160002060006101000a81548160ff0219169083151502179055508173ffffffffffffffffffffffffffffffffffffffff168373ffffffffffffffffffffffffffffffffffffffff167f17307eab39ab6107e8899845ad3d59bd9653f200f220920489ca2b5937696c31836040516117c19190612b7a565b60405180910390a3505050565b6117d98484846110b0565b6117e584848484611c32565b611824576040517f08c379a000000000000000000000000000000000000000000000000000000000815260040161181b90613af7565b60405180910390fd5b50505050565b606061183582610f0f565b600060c960008481526020019081526020016000208054611855906131b5565b80601f0160208091040260200160405190810160405280929190818152602001828054611881906131b5565b80156118ce5780601f106118a3576101008083540402835291602001916118ce565b820191906000526020600020905b8154815290600101906020018083116118b157829003601f168201915b5050505050905060006118df611dba565b90506000815114156118f5578192505050611938565b60008251111561192a578082604051602001611912929190613b53565b60405160208183030381529060405292505050611938565b61193384611dd1565b925050505b919050565b600081600001549050919050565b6001816000016000828254019250508190555050565b61197b828260405180602001604052806000815250611e39565b5050565b61198882611aa4565b6119c7576040517f08c379a00000000000000000000000000000000000000000000000000000000081526004016119be90613be9565b60405180910390fd5b8060c9600084815260200190815260200160002090805190602001906119ee9291906129e3565b507ff8e1a15aba9398e019f0b49df1a4fde98ee17ae345cb5f6b5e2c27f5033e8ce782604051611a1e9190612d8a565b60405180910390a15050565b60007f780e9d63000000000000000000000000000000000000000000000000000000007bffffffffffffffffffffffffffffffffffffffffffffffffffffffff1916827bffffffffffffffffffffffffffffffffffffffffffffffffffffffff19161480611a9d5750611a9c82611e94565b5b9050919050565b60008073ffffffffffffffffffffffffffffffffffffffff16611ac6836113b6565b73ffffffffffffffffffffffffffffffffffffffff1614159050919050565b611af184848484611f76565b50505050565b50505050565b611b06816120d6565b600060c960008381526020019081526020016000208054611b26906131b5565b905014611b4d5760c960008281526020019081526020016000206000611b4c9190612a69565b5b50565b600060019054906101000a900460ff16611b9f576040517f08c379a0000000000000000000000000000000000000000000000000000000008152600401611b9690613981565b60405180910390fd5b8160659080519060200190611bb59291906129e3565b508060669080519060200190611bcc9291906129e3565b505050565b600060019054906101000a900460ff16611c20576040517f08c379a0000000000000000000000000000000000000000000000000000000008152600401611c1790613981565b60405180910390fd5b611c30611c2b610f5a565b611471565b565b6000611c538473ffffffffffffffffffffffffffffffffffffffff16611539565b15611dad578373ffffffffffffffffffffffffffffffffffffffff1663150b7a02611c7c610f5a565b8786866040518563ffffffff1660e01b8152600401611c9e9493929190613c5e565b6020604051808303816000875af1925050508015611cda57506040513d601f19601f82011682018060405250810190611cd79190613cbf565b60015b611d5d573d8060008114611d0a576040519150601f19603f3d011682016040523d82523d6000602084013e611d0f565b606091505b50600081511415611d55576040517f08c379a0000000000000000000000000000000000000000000000000000000008152600401611d4c90613af7565b60405180910390fd5b805181602001fd5b63150b7a0260e01b7bffffffffffffffffffffffffffffffffffffffffffffffffffffffff1916817bffffffffffffffffffffffffffffffffffffffffffffffffffffffff191614915050611db2565b600190505b949350505050565b606060405180602001604052806000815250905090565b6060611ddc82610f0f565b6000611de6611dba565b90506000815111611e065760405180602001604052806000815250611e31565b80611e1084612224565b604051602001611e21929190613b53565b6040516020818303038152906040525b915050919050565b611e4383836122fc565b611e506000848484611c32565b611e8f576040517f08c379a0000000000000000000000000000000000000000000000000000000008152600401611e8690613af7565b60405180910390fd5b505050565b60007f80ac58cd000000000000000000000000000000000000000000000000000000007bffffffffffffffffffffffffffffffffffffffffffffffffffffffff1916827bffffffffffffffffffffffffffffffffffffffffffffffffffffffff19161480611f5f57507f5b5e139f000000000000000000000000000000000000000000000000000000007bffffffffffffffffffffffffffffffffffffffffffffffffffffffff1916827bffffffffffffffffffffffffffffffffffffffffffffffffffffffff1916145b80611f6f5750611f6e8261251a565b5b9050919050565b611f8284848484612584565b6001811115611fc6576040517f08c379a0000000000000000000000000000000000000000000000000000000008152600401611fbd90613d5e565b60405180910390fd5b6000829050600073ffffffffffffffffffffffffffffffffffffffff168573ffffffffffffffffffffffffffffffffffffffff16141561200e576120098161258a565b61204d565b8373ffffffffffffffffffffffffffffffffffffffff168573ffffffffffffffffffffffffffffffffffffffff161461204c5761204b85826125d3565b5b5b600073ffffffffffffffffffffffffffffffffffffffff168473ffffffffffffffffffffffffffffffffffffffff1614156120905761208b81612740565b6120cf565b8473ffffffffffffffffffffffffffffffffffffffff168473ffffffffffffffffffffffffffffffffffffffff16146120ce576120cd8482612811565b5b5b5050505050565b60006120e182610834565b90506120f1816000846001611ae5565b6120fa82610834565b90506069600083815260200190815260200160002060006101000a81549073ffffffffffffffffffffffffffffffffffffffff02191690556001606860008373ffffffffffffffffffffffffffffffffffffffff1673ffffffffffffffffffffffffffffffffffffffff168152602001908152602001600020600082825403925050819055506067600083815260200190815260200160002060006101000a81549073ffffffffffffffffffffffffffffffffffffffff021916905581600073ffffffffffffffffffffffffffffffffffffffff168273ffffffffffffffffffffffffffffffffffffffff167fddf252ad1be2c89b69c2b068fc378daa952ba7f163c4a11628f55a4df523b3ef60405160405180910390a4612220816000846001611af7565b5050565b60606000600161223384612890565b01905060008167ffffffffffffffff81111561225257612251612e9b565b5b6040519080825280601f01601f1916602001820160405280156122845781602001600182028036833780820191505090505b509050600082602001820190505b6001156122f1578080600190039150507f3031323334353637383961626364656600000000000000000000000000000000600a86061a8153600a85816122db576122da613d7e565b5b04945060008514156122ec576122f1565b612292565b819350505050919050565b600073ffffffffffffffffffffffffffffffffffffffff168273ffffffffffffffffffffffffffffffffffffffff16141561236c576040517f08c379a000000000000000000000000000000000000000000000000000000000815260040161236390613df9565b60405180910390fd5b61237581611aa4565b156123b5576040517f08c379a00000000000000000000000000000000000000000000000000000000081526004016123ac90613e65565b60405180910390fd5b6123c3600083836001611ae5565b6123cc81611aa4565b1561240c576040517f08c379a000000000000000000000000000000000000000000000000000000000815260040161240390613e65565b60405180910390fd5b6001606860008473ffffffffffffffffffffffffffffffffffffffff1673ffffffffffffffffffffffffffffffffffffffff16815260200190815260200160002060008282540192505081905550816067600083815260200190815260200160002060006101000a81548173ffffffffffffffffffffffffffffffffffffffff021916908373ffffffffffffffffffffffffffffffffffffffff160217905550808273ffffffffffffffffffffffffffffffffffffffff16600073ffffffffffffffffffffffffffffffffffffffff167fddf252ad1be2c89b69c2b068fc378daa952ba7f163c4a11628f55a4df523b3ef60405160405180910390a4612516600083836001611af7565b5050565b60007f01ffc9a7000000000000000000000000000000000000000000000000000000007bffffffffffffffffffffffffffffffffffffffffffffffffffffffff1916827bffffffffffffffffffffffffffffffffffffffffffffffffffffffff1916149050919050565b50505050565b609980549050609a600083815260200190815260200160002081905550609981908060018154018082558091505060019003906000526020600020016000909190919091505550565b600060016125e0846108bb565b6125ea9190613e85565b90506000609860008481526020019081526020016000205490508181146126cf576000609760008673ffffffffffffffffffffffffffffffffffffffff1673ffffffffffffffffffffffffffffffffffffffff168152602001908152602001600020600084815260200190815260200160002054905080609760008773ffffffffffffffffffffffffffffffffffffffff1673ffffffffffffffffffffffffffffffffffffffff168152602001908152602001600020600084815260200190815260200160002081905550816098600083815260200190815260200160002081905550505b6098600084815260200190815260200160002060009055609760008573ffffffffffffffffffffffffffffffffffffffff1673ffffffffffffffffffffffffffffffffffffffff16815260200190815260200160002060008381526020019081526020016000206000905550505050565b600060016099805490506127549190613e85565b90506000609a6000848152602001908152602001600020549050600060998381548110612784576127836134c1565b5b9060005260206000200154905080609983815481106127a6576127a56134c1565b5b906000526020600020018190555081609a600083815260200190815260200160002081905550609a60008581526020019081526020016000206000905560998054806127f5576127f4613eb9565b5b6001900381819060005260206000200160009055905550505050565b600061281c836108bb565b905081609760008573ffffffffffffffffffffffffffffffffffffffff1673ffffffffffffffffffffffffffffffffffffffff168152602001908152602001600020600083815260200190815260200160002081905550806098600084815260200190815260200160002081905550505050565b600080600090507a184f03e93ff9f4daa797ed6e38ed64bf6a1f01000000000000000083106128ee577a184f03e93ff9f4daa797ed6e38ed64bf6a1f01000000000000000083816128e4576128e3613d7e565b5b0492506040810190505b6d04ee2d6d415b85acef8100000000831061292b576d04ee2d6d415b85acef8100000000838161292157612920613d7e565b5b0492506020810190505b662386f26fc10000831061295a57662386f26fc1000083816129505761294f613d7e565b5b0492506010810190505b6305f5e1008310612983576305f5e100838161297957612978613d7e565b5b0492506008810190505b61271083106129a857612710838161299e5761299d613d7e565b5b0492506004810190505b606483106129cb57606483816129c1576129c0613d7e565b5b0492506002810190505b600a83106129da576001810190505b80915050919050565b8280546129ef906131b5565b90600052602060002090601f016020900481019282612a115760008555612a58565b82601f10612a2a57805160ff1916838001178555612a58565b82800160010185558215612a58579182015b82811115612a57578251825591602001919060010190612a3c565b5b509050612a659190612aa9565b5090565b508054612a75906131b5565b6000825580601f10612a875750612aa6565b601f016020900490600052602060002090810190612aa59190612aa9565b5b50565b5b80821115612ac2576000816000905550600101612aaa565b5090565b6000604051905090565b600080fd5b600080fd5b60007fffffffff0000000000000000000000000000000000000000000000000000000082169050919050565b612b0f81612ada565b8114612b1a57600080fd5b50565b600081359050612b2c81612b06565b92915050565b600060208284031215612b4857612b47612ad0565b5b6000612b5684828501612b1d565b91505092915050565b60008115159050919050565b612b7481612b5f565b82525050565b6000602082019050612b8f6000830184612b6b565b92915050565b600081519050919050565b600082825260208201905092915050565b60005b83811015612bcf578082015181840152602081019050612bb4565b83811115612bde576000848401525b50505050565b6000601f19601f8301169050919050565b6000612c0082612b95565b612c0a8185612ba0565b9350612c1a818560208601612bb1565b612c2381612be4565b840191505092915050565b60006020820190508181036000830152612c488184612bf5565b905092915050565b6000819050919050565b612c6381612c50565b8114612c6e57600080fd5b50565b600081359050612c8081612c5a565b92915050565b600060208284031215612c9c57612c9b612ad0565b5b6000612caa84828501612c71565b91505092915050565b600073ffffffffffffffffffffffffffffffffffffffff82169050919050565b6000612cde82612cb3565b9050919050565b612cee81612cd3565b82525050565b6000602082019050612d096000830184612ce5565b92915050565b612d1881612cd3565b8114612d2357600080fd5b50565b600081359050612d3581612d0f565b92915050565b60008060408385031215612d5257612d51612ad0565b5b6000612d6085828601612d26565b9250506020612d7185828601612c71565b9150509250929050565b612d8481612c50565b82525050565b6000602082019050612d9f6000830184612d7b565b92915050565b600080600060608486031215612dbe57612dbd612ad0565b5b6000612dcc86828701612d26565b9350506020612ddd86828701612d26565b9250506040612dee86828701612c71565b9150509250925092565b600060208284031215612e0e57612e0d612ad0565b5b6000612e1c84828501612d26565b91505092915050565b612e2e81612b5f565b8114612e3957600080fd5b50565b600081359050612e4b81612e25565b92915050565b60008060408385031215612e6857612e67612ad0565b5b6000612e7685828601612d26565b9250506020612e8785828601612e3c565b9150509250929050565b600080fd5b600080fd5b7f4e487b7100000000000000000000000000000000000000000000000000000000600052604160045260246000fd5b612ed382612be4565b810181811067ffffffffffffffff82111715612ef257612ef1612e9b565b5b80604052505050565b6000612f05612ac6565b9050612f118282612eca565b919050565b600067ffffffffffffffff821115612f3157612f30612e9b565b5b612f3a82612be4565b9050602081019050919050565b82818337600083830152505050565b6000612f69612f6484612f16565b612efb565b905082815260208101848484011115612f8557612f84612e96565b5b612f90848285612f47565b509392505050565b600082601f830112612fad57612fac612e91565b5b8135612fbd848260208601612f56565b91505092915050565b60008060008060808587031215612fe057612fdf612ad0565b5b6000612fee87828801612d26565b9450506020612fff87828801612d26565b935050604061301087828801612c71565b925050606085013567ffffffffffffffff81111561303157613030612ad5565b5b61303d87828801612f98565b91505092959194509250565b600067ffffffffffffffff82111561306457613063612e9b565b5b61306d82612be4565b9050602081019050919050565b600061308d61308884613049565b612efb565b9050828152602081018484840111156130a9576130a8612e96565b5b6130b4848285612f47565b509392505050565b600082601f8301126130d1576130d0612e91565b5b81356130e184826020860161307a565b91505092915050565b6000806040838503121561310157613100612ad0565b5b600061310f85828601612d26565b925050602083013567ffffffffffffffff8111156131305761312f612ad5565b5b61313c858286016130bc565b9150509250929050565b6000806040838503121561315d5761315c612ad0565b5b600061316b85828601612d26565b925050602061317c85828601612d26565b9150509250929050565b7f4e487b7100000000000000000000000000000000000000000000000000000000600052602260045260246000fd5b600060028204905060018216806131cd57607f821691505b602082108114156131e1576131e0613186565b5b50919050565b7f4552433732313a20617070726f76616c20746f2063757272656e74206f776e6560008201527f7200000000000000000000000000000000000000000000000000000000000000602082015250565b6000613243602183612ba0565b915061324e826131e7565b604082019050919050565b6000602082019050818103600083015261327281613236565b9050919050565b7f4552433732313a20617070726f76652063616c6c6572206973206e6f7420746f60008201527f6b656e206f776e6572206f7220617070726f76656420666f7220616c6c000000602082015250565b60006132d5603d83612ba0565b91506132e082613279565b604082019050919050565b60006020820190508181036000830152613304816132c8565b9050919050565b7f4552433732313a2063616c6c6572206973206e6f7420746f6b656e206f776e6560008201527f72206f7220617070726f76656400000000000000000000000000000000000000602082015250565b6000613367602d83612ba0565b91506133728261330b565b604082019050919050565b600060208201905081810360008301526133968161335a565b9050919050565b7f455243373231456e756d657261626c653a206f776e657220696e646578206f7560008201527f74206f6620626f756e6473000000000000000000000000000000000000000000602082015250565b60006133f9602b83612ba0565b91506134048261339d565b604082019050919050565b60006020820190508181036000830152613428816133ec565b9050919050565b7f455243373231456e756d657261626c653a20676c6f62616c20696e646578206f60008201527f7574206f6620626f756e64730000000000000000000000000000000000000000602082015250565b600061348b602c83612ba0565b91506134968261342f565b604082019050919050565b600060208201905081810360008301526134ba8161347e565b9050919050565b7f4e487b7100000000000000000000000000000000000000000000000000000000600052603260045260246000fd5b7f4552433732313a20696e76616c696420746f6b656e2049440000000000000000600082015250565b6000613526601883612ba0565b9150613531826134f0565b602082019050919050565b6000602082019050818103600083015261355581613519565b9050919050565b7f4552433732313a2061646472657373207a65726f206973206e6f74206120766160008201527f6c6964206f776e65720000000000000000000000000000000000000000000000602082015250565b60006135b8602983612ba0565b91506135c38261355c565b604082019050919050565b600060208201905081810360008301526135e7816135ab565b9050919050565b7f496e697469616c697a61626c653a20636f6e747261637420697320616c72656160008201527f647920696e697469616c697a6564000000000000000000000000000000000000602082015250565b600061364a602e83612ba0565b9150613655826135ee565b604082019050919050565b600060208201905081810360008301526136798161363d565b9050919050565b6000819050919050565b600060ff82169050919050565b6000819050919050565b60006136bc6136b76136b284613680565b613697565b61368a565b9050919050565b6136cc816136a1565b82525050565b60006020820190506136e760008301846136c3565b92915050565b7f4f776e61626c653a206e6577206f776e657220697320746865207a65726f206160008201527f6464726573730000000000000000000000000000000000000000000000000000602082015250565b6000613749602683612ba0565b9150613754826136ed565b604082019050919050565b600060208201905081810360008301526137788161373c565b9050919050565b7f4552433732313a207472616e736665722066726f6d20696e636f72726563742060008201527f6f776e6572000000000000000000000000000000000000000000000000000000602082015250565b60006137db602583612ba0565b91506137e68261377f565b604082019050919050565b6000602082019050818103600083015261380a816137ce565b9050919050565b7f4552433732313a207472616e7366657220746f20746865207a65726f2061646460008201527f7265737300000000000000000000000000000000000000000000000000000000602082015250565b600061386d602483612ba0565b915061387882613811565b604082019050919050565b6000602082019050818103600083015261389c81613860565b9050919050565b7f4f776e61626c653a2063616c6c6572206973206e6f7420746865206f776e6572600082015250565b60006138d9602083612ba0565b91506138e4826138a3565b602082019050919050565b60006020820190508181036000830152613908816138cc565b9050919050565b7f496e697469616c697a61626c653a20636f6e7472616374206973206e6f74206960008201527f6e697469616c697a696e67000000000000000000000000000000000000000000602082015250565b600061396b602b83612ba0565b91506139768261390f565b604082019050919050565b6000602082019050818103600083015261399a8161395e565b9050919050565b7f4e487b7100000000000000000000000000000000000000000000000000000000600052601160045260246000fd5b60006139db82612c50565b91507fffffffffffffffffffffffffffffffffffffffffffffffffffffffffffffffff821415613a0e57613a0d6139a1565b5b600182019050919050565b7f4552433732313a20617070726f766520746f2063616c6c657200000000000000600082015250565b6000613a4f601983612ba0565b9150613a5a82613a19565b602082019050919050565b60006020820190508181036000830152613a7e81613a42565b9050919050565b7f4552433732313a207472616e7366657220746f206e6f6e20455243373231526560008201527f63656976657220696d706c656d656e7465720000000000000000000000000000602082015250565b6000613ae1603283612ba0565b9150613aec82613a85565b604082019050919050565b60006020820190508181036000830152613b1081613ad4565b9050919050565b600081905092915050565b6000613b2d82612b95565b613b378185613b17565b9350613b47818560208601612bb1565b80840191505092915050565b6000613b5f8285613b22565b9150613b6b8284613b22565b91508190509392505050565b7f45524337323155524953746f726167653a2055524920736574206f66206e6f6e60008201527f6578697374656e7420746f6b656e000000000000000000000000000000000000602082015250565b6000613bd3602e83612ba0565b9150613bde82613b77565b604082019050919050565b60006020820190508181036000830152613c0281613bc6565b9050919050565b600081519050919050565b600082825260208201905092915050565b6000613c3082613c09565b613c3a8185613c14565b9350613c4a818560208601612bb1565b613c5381612be4565b840191505092915050565b6000608082019050613c736000830187612ce5565b613c806020830186612ce5565b613c8d6040830185612d7b565b8181036060830152613c9f8184613c25565b905095945050505050565b600081519050613cb981612b06565b92915050565b600060208284031215613cd557613cd4612ad0565b5b6000613ce384828501613caa565b91505092915050565b7f455243373231456e756d657261626c653a20636f6e736563757469766520747260008201527f616e7366657273206e6f7420737570706f727465640000000000000000000000602082015250565b6000613d48603583612ba0565b9150613d5382613cec565b604082019050919050565b60006020820190508181036000830152613d7781613d3b565b9050919050565b7f4e487b7100000000000000000000000000000000000000000000000000000000600052601260045260246000fd5b7f4552433732313a206d696e7420746f20746865207a65726f2061646472657373600082015250565b6000613de3602083612ba0565b9150613dee82613dad565b602082019050919050565b60006020820190508181036000830152613e1281613dd6565b9050919050565b7f4552433732313a20746f6b656e20616c7265616479206d696e74656400000000600082015250565b6000613e4f601c83612ba0565b9150613e5a82613e19565b602082019050919050565b60006020820190508181036000830152613e7e81613e42565b9050919050565b6000613e9082612c50565b9150613e9b83612c50565b925082821015613eae57613ead6139a1565b5b828203905092915050565b7f4e487b7100000000000000000000000000000000000000000000000000000000600052603160045260246000fdfea264697066735822122056c378a2a43252574f9f2bbd30f2f749b209b2677bdf286d41fd46d10381bc5e64736f6c634300080a003368747470733a2f2f697066732e696f2f697066732f516d646355526d4e316b4545744b676e626b564a4a3868726d73535748705a764c6b5267734b4b6f6957765739673f66696c656e616d653d73696d706c655f62756c6c2e6a736f6e68747470733a2f2f697066732e696f2f697066732f516d5258796669336f4e5a43756244786956467265336b4c5a3858654774367051736e4151525a37616b68534e733f66696c656e616d653d67616d65725f62756c6c2e6a736f6e68747470733a2f2f697066732e696f2f697066732f516d624b68425856576d777259735450465966726f52324e374e41656b414d78485556673243576b73376939716a3f66696c656e616d653d73696d706c655f626561722e6a736f6e68747470733a2f2f697066732e696f2f697066732f516d6478394878374643445a474578796a4c52367659636e75745552384b68425a426e5a6641504869556f6d6d4e3f66696c656e616d653d6265616e69655f626561722e6a736f6e68747470733a2f2f697066732e696f2f697066732f516d524a5646654d7274595332435556554d3263484a70425635615832787572706e73665a784c545451626944333f66696c656e616d653d70617274795f62756c6c2e6a736f6e68747470733a2f2f697066732e696f2f697066732f516d54564c79545375694b4755456d6238384267584733714e4338596770485a6946626a4872584b4833514845753f66696c656e616d653d636f6f6c696f5f626561722e6a736f6e",
  "linkReferences": {},
  "deployedLinkReferences": {}
}