{
  "_format": "hh-sol-artifact-1",
  "contractName": "VRFv2Consumer",
  "sourceName": "contracts/ChainlinkRandomness.sol",
  "abi": [
    {
      "inputs": [
        {
          "internalType": "uint64",
          "name": "subscriptionId",
          "type": "uint64"
        }
      ],
      "stateMutability": "nonpayable",
      "type": "constructor"
    },
    {
      "inputs": [
        {
          "internalType": "address",
          "name": "have",
          "type": "address"
        },
        {
          "internalType": "address",
          "name": "want",
          "type": "address"
        }
      ],
      "name": "OnlyCoordinatorCanFulfill",
      "type": "error"
    },
    {
      "anonymous": false,
      "inputs": [
        {
          "indexed": true,
          "internalType": "address",
          "name": "from",
          "type": "address"
        },
        {
          "indexed": true,
          "internalType": "address",
          "name": "to",
          "type": "address"
        }
      ],
      "name": "OwnershipTransferRequested",
      "type": "event"
    },
    {
      "anonymous": false,
      "inputs": [
        {
          "indexed": true,
          "internalType": "address",
          "name": "from",
          "type": "address"
        },
        {
          "indexed": true,
          "internalType": "address",
          "name": "to",
          "type": "address"
        }
      ],
      "name": "OwnershipTransferred",
      "type": "event"
    },
    {
      "anonymous": false,
      "inputs": [
        {
          "indexed": false,
          "internalType": "uint256",
          "name": "requestId",
          "type": "uint256"
        },
        {
          "indexed": false,
          "internalType": "uint256[]",
          "name": "randomWords",
          "type": "uint256[]"
        }
      ],
      "name": "RequestFulfilled",
      "type": "event"
    },
    {
      "anonymous": false,
      "inputs": [
        {
          "indexed": false,
          "internalType": "uint256",
          "name": "requestId",
          "type": "uint256"
        },
        {
          "indexed": false,
          "internalType": "uint32",
          "name": "numWords",
          "type": "uint32"
        }
      ],
      "name": "RequestSent",
      "type": "event"
    },
    {
      "inputs": [],
      "name": "acceptOwnership",
      "outputs": [],
      "stateMutability": "nonpayable",
      "type": "function"
    },
    {
      "inputs": [
        {
          "internalType": "uint256",
          "name": "_requestId",
          "type": "uint256"
        }
      ],
      "name": "getRequestStatus",
      "outputs": [
        {
          "internalType": "bool",
          "name": "fulfilled",
          "type": "bool"
        },
        {
          "internalType": "uint256[]",
          "name": "randomWords",
          "type": "uint256[]"
        }
      ],
      "stateMutability": "view",
      "type": "function"
    },
    {
      "inputs": [],
      "name": "lastRequestId",
      "outputs": [
        {
          "internalType": "uint256",
          "name": "",
          "type": "uint256"
        }
      ],
      "stateMutability": "view",
      "type": "function"
    },
    {
      "inputs": [],
      "name": "owner",
      "outputs": [
        {
          "internalType": "address",
          "name": "",
          "type": "address"
        }
      ],
      "stateMutability": "view",
      "type": "function"
    },
    {
      "inputs": [
        {
          "internalType": "uint256",
          "name": "requestId",
          "type": "uint256"
        },
        {
          "internalType": "uint256[]",
          "name": "randomWords",
          "type": "uint256[]"
        }
      ],
      "name": "rawFulfillRandomWords",
      "outputs": [],
      "stateMutability": "nonpayable",
      "type": "function"
    },
    {
      "inputs": [
        {
          "internalType": "uint256",
          "name": "",
          "type": "uint256"
        }
      ],
      "name": "requestIds",
      "outputs": [
        {
          "internalType": "uint256",
          "name": "",
          "type": "uint256"
        }
      ],
      "stateMutability": "view",
      "type": "function"
    },
    {
      "inputs": [],
      "name": "requestRandomWords",
      "outputs": [
        {
          "internalType": "uint256",
          "name": "requestId",
          "type": "uint256"
        }
      ],
      "stateMutability": "nonpayable",
      "type": "function"
    },
    {
      "inputs": [
        {
          "internalType": "uint256",
          "name": "",
          "type": "uint256"
        }
      ],
      "name": "s_requests",
      "outputs": [
        {
          "internalType": "bool",
          "name": "fulfilled",
          "type": "bool"
        },
        {
          "internalType": "bool",
          "name": "exists",
          "type": "bool"
        }
      ],
      "stateMutability": "view",
      "type": "function"
    },
    {
      "inputs": [
        {
          "internalType": "address",
          "name": "to",
          "type": "address"
        }
      ],
      "name": "transferOwnership",
      "outputs": [],
      "stateMutability": "nonpayable",
      "type": "function"
    }
  ],
  "bytecode": "0x60a06040527f474e34a077df58807dbe9c96d3c009b23b3c6d0cce433e59bbf5b34f823bc56c600655600780546001600160501b03191666040003000186a01790553480156200004e57600080fd5b506040516200100a3803806200100a8339810160408190526200007191620001d9565b738103b0a8a00be2ddc778e6e7eaa21791cd3646256080523380600081620000b65760405162461bcd60e51b8152600401620000ad906200023a565b60405180910390fd5b600080546001600160a01b0319166001600160a01b0384811691909117909155811615620000e957620000e98162000130565b5050600380546001600160401b03909316600160a01b026001600160e01b031990931692909217738103b0a8a00be2ddc778e6e7eaa21791cd364625179091555062000291565b6001600160a01b0381163314156200015c5760405162461bcd60e51b8152600401620000ad906200027f565b600180546001600160a01b0319166001600160a01b0383811691821790925560008054604051929316917fed8889f560326eb138920d842192f0eb3dd22b4f139c87a2c57538e05bae12789190a350565b6001600160401b0381168114620001c357600080fd5b50565b8051620001d381620001ad565b92915050565b600060208284031215620001f057620001f0600080fd5b6000620001fe8484620001c6565b949350505050565b60188152602081017f43616e6e6f7420736574206f776e657220746f207a65726f0000000000000000815290505b60200190565b60208082528101620001d38162000206565b60178152602081017f43616e6e6f74207472616e7366657220746f2073656c660000000000000000008152905062000234565b60208082528101620001d3816200024c565b608051610d56620002b4600039600081816101ab01526101d30152610d566000f3fe608060405234801561001057600080fd5b50600436106100a35760003560e01c8063a168fa8911610076578063e0c862891161005b578063e0c862891461016f578063f2fde38b14610177578063fc2a88c31461018a57600080fd5b8063a168fa8914610114578063d8a4676f1461014e57600080fd5b80631fe543e3146100a857806379ba5097146100bd5780638796ba8c146100c55780638da5cb5b146100ee575b600080fd5b6100bb6100b6366004610995565b610193565b005b6100bb61023d565b6100d86100d33660046109ed565b6102f0565b6040516100e59190610a16565b60405180910390f35b60005473ffffffffffffffffffffffffffffffffffffffff166040516100e59190610a4b565b6101406101223660046109ed565b60026020526000908152604090205460ff8082169161010090041682565b6040516100e5929190610a61565b61016161015c3660046109ed565b610311565b6040516100e5929190610ae1565b6100d86103e1565b6100bb610185366004610b15565b61061a565b6100d860055481565b3373ffffffffffffffffffffffffffffffffffffffff7f0000000000000000000000000000000000000000000000000000000000000000161461022f57337f00000000000000000000000000000000000000000000000000000000000000006040517f1cf993f4000000000000000000000000000000000000000000000000000000008152600401610226929190610b36565b60405180910390fd5b610239828261062e565b5050565b60015473ffffffffffffffffffffffffffffffffffffffff1633146102745760405162461bcd60e51b815260040161022690610b83565b60008054337fffffffffffffffffffffffff00000000000000000000000000000000000000008083168217845560018054909116905560405173ffffffffffffffffffffffffffffffffffffffff90921692909183917f8be0079c531659141344cd1fd0a4f28419497f9722a3daafe3b4186f6b6457e091a350565b6004818154811061030057600080fd5b600091825260209091200154905081565b600081815260026020526040812054606090610100900460ff166103475760405162461bcd60e51b815260040161022690610bc5565b60008381526002602090815260408083208151606081018352815460ff80821615158352610100909104161515818501526001820180548451818702810187018652818152929593948601938301828280156103c257602002820191906000526020600020905b8154815260200190600101908083116103ae575b5050505050815250509050806000015181604001519250925050915091565b60006103eb6106ee565b6003546006546007546040517f5d3b1d3000000000000000000000000000000000000000000000000000000000815273ffffffffffffffffffffffffffffffffffffffff841693635d3b1d309361048d9390927401000000000000000000000000000000000000000090920467ffffffffffffffff1691640100000000820461ffff169163ffffffff8082169266010000000000009092041690600401610bfb565b602060405180830381600087803b1580156104a757600080fd5b505af11580156104bb573d6000803e3d6000fd5b505050506040513d601f19601f820116820180604052508101906104df9190610c52565b604080516060810182526000808252600160208084018281528551848152808301875285870190815287855260028352959093208451815494517fffffffffffffffffffffffffffffffffffffffffffffffffffffffffffff00009095169015157fffffffffffffffffffffffffffffffffffffffffffffffffffffffffffff00ff161761010094151594909402939093178355935180519596509294919361058e93918501929101906107d3565b5050600480546001810182556000919091527f8a35acfbc15ff81a39ae7d344fd709f28e8600b4aa8c65c6b64bfe7fe36bd19b018290555060058190556007546040517fcc58b13ad3eab50626c6a6300b1d139cd6ebb1688a7cced9461c2f7e762665ee9161060f9184916601000000000000900463ffffffff1690610c73565b60405180910390a190565b6106226106ee565b61062b81610727565b50565b600082815260026020526040902054610100900460ff166106615760405162461bcd60e51b815260040161022690610bc5565b600082815260026020908152604090912080547fffffffffffffffffffffffffffffffffffffffffffffffffffffffffffffff00166001908117825583516106b09392909101918401906107d3565b507ffe2e2d779dba245964d4e3ef9b994be63856fd568bf7d3ca9e224755cb1bd54d82826040516106e2929190610c8e565b60405180910390a15050565b60005473ffffffffffffffffffffffffffffffffffffffff1633146107255760405162461bcd60e51b815260040161022690610cce565b565b73ffffffffffffffffffffffffffffffffffffffff811633141561075d5760405162461bcd60e51b815260040161022690610d10565b600180547fffffffffffffffffffffffff00000000000000000000000000000000000000001673ffffffffffffffffffffffffffffffffffffffff83811691821790925560008054604051929316917fed8889f560326eb138920d842192f0eb3dd22b4f139c87a2c57538e05bae12789190a350565b82805482825590600052602060002090810192821561080e579160200282015b8281111561080e5782518255916020019190600101906107f3565b5061081a92915061081e565b5090565b5b8082111561081a576000815560010161081f565b805b811461062b57600080fd5b803561084b81610833565b92915050565b7f4e487b7100000000000000000000000000000000000000000000000000000000600052604160045260246000fd5b7fffffffffffffffffffffffffffffffffffffffffffffffffffffffffffffffe0601f830116810181811067ffffffffffffffff821117156108c4576108c4610851565b6040525050565b60006108d660405190565b90506108e28282610880565b919050565b600067ffffffffffffffff82111561090157610901610851565b5060209081020190565b600061091e610919846108e7565b6108cb565b8381529050602080820190840283018581111561093d5761093d600080fd5b835b8181101561095f576109518782610840565b83526020928301920161093f565b5050509392505050565b600082601f83011261097d5761097d600080fd5b813561098d84826020860161090b565b949350505050565b600080604083850312156109ab576109ab600080fd5b60006109b78585610840565b925050602083013567ffffffffffffffff8111156109d7576109d7600080fd5b6109e385828601610969565b9150509250929050565b600060208284031215610a0257610a02600080fd5b600061098d8484610840565b805b82525050565b6020810161084b8284610a0e565b600073ffffffffffffffffffffffffffffffffffffffff821661084b565b610a1081610a24565b6020810161084b8284610a42565b801515610a10565b60408101610a6f8285610a59565b610a7c6020830184610a59565b9392505050565b610a8d8282610a0e565b5060200190565b60200190565b6000610aa4825190565b808452602093840193830160005b82811015610ad7578151610ac68782610a83565b965050602082019150600101610ab2565b5093949350505050565b60408101610aef8285610a59565b818103602083015261098d8184610a9a565b61083581610a24565b803561084b81610b01565b600060208284031215610b2a57610b2a600080fd5b600061098d8484610b0a565b60408101610b448285610a42565b610a7c6020830184610a42565b60168152602081017f4d7573742062652070726f706f736564206f776e65720000000000000000000081529050610a94565b6020808252810161084b81610b51565b60118152602081017f72657175657374206e6f7420666f756e6400000000000000000000000000000081529050610a94565b6020808252810161084b81610b93565b67ffffffffffffffff8116610a10565b61ffff8116610a10565b63ffffffff8116610a10565b60a08101610c098288610a0e565b610c166020830187610bd5565b610c236040830186610be5565b610c306060830185610bef565b610c3d6080830184610bef565b9695505050505050565b805161084b81610833565b600060208284031215610c6757610c67600080fd5b600061098d8484610c47565b60408101610c818285610a0e565b610a7c6020830184610bef565b60408101610aef8285610a0e565b60168152602081017f4f6e6c792063616c6c61626c65206279206f776e65720000000000000000000081529050610a94565b6020808252810161084b81610c9c565b60178152602081017f43616e6e6f74207472616e7366657220746f2073656c6600000000000000000081529050610a94565b6020808252810161084b81610cde56fea264697066735822122031fc17f572b778c58253cf37a158081f39bf49444a329d2661b65373684f180764736f6c63430008090033",
  "linkReferences": {},
  "deployedLinkReferences": {}
}