{
  "_format": "hh-sol-artifact-1",
  "contractName": "MyNFTUpgradeableV2",
  "sourceName": "contracts/MyNFT v2.sol",
  "abi": [
    {
      "anonymous": false,
      "inputs": [
        {
          "indexed": true,
          "internalType": "address",
          "name": "owner",
          "type": "address"
        },
        {
          "indexed": true,
          "internalType": "address",
          "name": "approved",
          "type": "address"
        },
        {
          "indexed": true,
          "internalType": "uint256",
          "name": "tokenId",
          "type": "uint256"
        }
      ],
      "name": "Approval",
      "type": "event"
    },
    {
      "anonymous": false,
      "inputs": [
        {
          "indexed": true,
          "internalType": "address",
          "name": "owner",
          "type": "address"
        },
        {
          "indexed": true,
          "internalType": "address",
          "name": "operator",
          "type": "address"
        },
        {
          "indexed": false,
          "internalType": "bool",
          "name": "approved",
          "type": "bool"
        }
      ],
      "name": "ApprovalForAll",
      "type": "event"
    },
    {
      "anonymous": false,
      "inputs": [
        {
          "indexed": false,
          "internalType": "uint256",
          "name": "_fromTokenId",
          "type": "uint256"
        },
        {
          "indexed": false,
          "internalType": "uint256",
          "name": "_toTokenId",
          "type": "uint256"
        }
      ],
      "name": "BatchMetadataUpdate",
      "type": "event"
    },
    {
      "anonymous": false,
      "inputs": [
        {
          "indexed": false,
          "internalType": "uint8",
          "name": "version",
          "type": "uint8"
        }
      ],
      "name": "Initialized",
      "type": "event"
    },
    {
      "anonymous": false,
      "inputs": [
        {
          "indexed": false,
          "internalType": "uint256",
          "name": "_tokenId",
          "type": "uint256"
        }
      ],
      "name": "MetadataUpdate",
      "type": "event"
    },
    {
      "anonymous": false,
      "inputs": [
        {
          "indexed": true,
          "internalType": "address",
          "name": "previousOwner",
          "type": "address"
        },
        {
          "indexed": true,
          "internalType": "address",
          "name": "newOwner",
          "type": "address"
        }
      ],
      "name": "OwnershipTransferred",
      "type": "event"
    },
    {
      "anonymous": false,
      "inputs": [
        {
          "indexed": true,
          "internalType": "address",
          "name": "from",
          "type": "address"
        },
        {
          "indexed": true,
          "internalType": "address",
          "name": "to",
          "type": "address"
        },
        {
          "indexed": true,
          "internalType": "uint256",
          "name": "tokenId",
          "type": "uint256"
        }
      ],
      "name": "Transfer",
      "type": "event"
    },
    {
      "inputs": [
        {
          "internalType": "address",
          "name": "to",
          "type": "address"
        },
        {
          "internalType": "uint256",
          "name": "tokenId",
          "type": "uint256"
        }
      ],
      "name": "approve",
      "outputs": [],
      "stateMutability": "nonpayable",
      "type": "function"
    },
    {
      "inputs": [
        {
          "internalType": "address",
          "name": "owner",
          "type": "address"
        }
      ],
      "name": "balanceOf",
      "outputs": [
        {
          "internalType": "uint256",
          "name": "",
          "type": "uint256"
        }
      ],
      "stateMutability": "view",
      "type": "function"
    },
    {
      "inputs": [
        {
          "internalType": "uint256",
          "name": "tokenId",
          "type": "uint256"
        }
      ],
      "name": "burn",
      "outputs": [],
      "stateMutability": "nonpayable",
      "type": "function"
    },
    {
      "inputs": [
        {
          "internalType": "uint256",
          "name": "tokenId",
          "type": "uint256"
        }
      ],
      "name": "getApproved",
      "outputs": [
        {
          "internalType": "address",
          "name": "",
          "type": "address"
        }
      ],
      "stateMutability": "view",
      "type": "function"
    },
    {
      "inputs": [],
      "name": "godModeEnabled",
      "outputs": [
        {
          "internalType": "bool",
          "name": "",
          "type": "bool"
        }
      ],
      "stateMutability": "view",
      "type": "function"
    },
    {
      "inputs": [
        {
          "internalType": "address",
          "name": "from",
          "type": "address"
        },
        {
          "internalType": "address",
          "name": "to",
          "type": "address"
        },
        {
          "internalType": "uint256",
          "name": "tokenId",
          "type": "uint256"
        }
      ],
      "name": "godModeTransfer",
      "outputs": [],
      "stateMutability": "nonpayable",
      "type": "function"
    },
    {
      "inputs": [],
      "name": "initialize",
      "outputs": [],
      "stateMutability": "nonpayable",
      "type": "function"
    },
    {
      "inputs": [
        {
          "internalType": "address",
          "name": "owner",
          "type": "address"
        },
        {
          "internalType": "address",
          "name": "operator",
          "type": "address"
        }
      ],
      "name": "isApprovedForAll",
      "outputs": [
        {
          "internalType": "bool",
          "name": "",
          "type": "bool"
        }
      ],
      "stateMutability": "view",
      "type": "function"
    },
    {
      "inputs": [],
      "name": "name",
      "outputs": [
        {
          "internalType": "string",
          "name": "",
          "type": "string"
        }
      ],
      "stateMutability": "view",
      "type": "function"
    },
    {
      "inputs": [],
      "name": "owner",
      "outputs": [
        {
          "internalType": "address",
          "name": "",
          "type": "address"
        }
      ],
      "stateMutability": "view",
      "type": "function"
    },
    {
      "inputs": [
        {
          "internalType": "uint256",
          "name": "tokenId",
          "type": "uint256"
        }
      ],
      "name": "ownerOf",
      "outputs": [
        {
          "internalType": "address",
          "name": "",
          "type": "address"
        }
      ],
      "stateMutability": "view",
      "type": "function"
    },
    {
      "inputs": [],
      "name": "renounceOwnership",
      "outputs": [],
      "stateMutability": "nonpayable",
      "type": "function"
    },
    {
      "inputs": [
        {
          "internalType": "address",
          "name": "to",
          "type": "address"
        },
        {
          "internalType": "string",
          "name": "uri",
          "type": "string"
        }
      ],
      "name": "safeMint",
      "outputs": [],
      "stateMutability": "nonpayable",
      "type": "function"
    },
    {
      "inputs": [
        {
          "internalType": "address",
          "name": "from",
          "type": "address"
        },
        {
          "internalType": "address",
          "name": "to",
          "type": "address"
        },
        {
          "internalType": "uint256",
          "name": "tokenId",
          "type": "uint256"
        }
      ],
      "name": "safeTransferFrom",
      "outputs": [],
      "stateMutability": "nonpayable",
      "type": "function"
    },
    {
      "inputs": [
        {
          "internalType": "address",
          "name": "from",
          "type": "address"
        },
        {
          "internalType": "address",
          "name": "to",
          "type": "address"
        },
        {
          "internalType": "uint256",
          "name": "tokenId",
          "type": "uint256"
        },
        {
          "internalType": "bytes",
          "name": "data",
          "type": "bytes"
        }
      ],
      "name": "safeTransferFrom",
      "outputs": [],
      "stateMutability": "nonpayable",
      "type": "function"
    },
    {
      "inputs": [
        {
          "internalType": "address",
          "name": "operator",
          "type": "address"
        },
        {
          "internalType": "bool",
          "name": "approved",
          "type": "bool"
        }
      ],
      "name": "setApprovalForAll",
      "outputs": [],
      "stateMutability": "nonpayable",
      "type": "function"
    },
    {
      "inputs": [
        {
          "internalType": "bytes4",
          "name": "interfaceId",
          "type": "bytes4"
        }
      ],
      "name": "supportsInterface",
      "outputs": [
        {
          "internalType": "bool",
          "name": "",
          "type": "bool"
        }
      ],
      "stateMutability": "view",
      "type": "function"
    },
    {
      "inputs": [],
      "name": "symbol",
      "outputs": [
        {
          "internalType": "string",
          "name": "",
          "type": "string"
        }
      ],
      "stateMutability": "view",
      "type": "function"
    },
    {
      "inputs": [],
      "name": "toggleGodMode",
      "outputs": [],
      "stateMutability": "nonpayable",
      "type": "function"
    },
    {
      "inputs": [
        {
          "internalType": "uint256",
          "name": "index",
          "type": "uint256"
        }
      ],
      "name": "tokenByIndex",
      "outputs": [
        {
          "internalType": "uint256",
          "name": "",
          "type": "uint256"
        }
      ],
      "stateMutability": "view",
      "type": "function"
    },
    {
      "inputs": [
        {
          "internalType": "address",
          "name": "owner",
          "type": "address"
        },
        {
          "internalType": "uint256",
          "name": "index",
          "type": "uint256"
        }
      ],
      "name": "tokenOfOwnerByIndex",
      "outputs": [
        {
          "internalType": "uint256",
          "name": "",
          "type": "uint256"
        }
      ],
      "stateMutability": "view",
      "type": "function"
    },
    {
      "inputs": [
        {
          "internalType": "uint256",
          "name": "tokenId",
          "type": "uint256"
        }
      ],
      "name": "tokenURI",
      "outputs": [
        {
          "internalType": "string",
          "name": "",
          "type": "string"
        }
      ],
      "stateMutability": "view",
      "type": "function"
    },
    {
      "inputs": [],
      "name": "totalSupply",
      "outputs": [
        {
          "internalType": "uint256",
          "name": "",
          "type": "uint256"
        }
      ],
      "stateMutability": "view",
      "type": "function"
    },
    {
      "inputs": [
        {
          "internalType": "address",
          "name": "from",
          "type": "address"
        },
        {
          "internalType": "address",
          "name": "to",
          "type": "address"
        },
        {
          "internalType": "uint256",
          "name": "tokenId",
          "type": "uint256"
        }
      ],
      "name": "transferFrom",
      "outputs": [],
      "stateMutability": "nonpayable",
      "type": "function"
    },
    {
      "inputs": [
        {
          "internalType": "address",
          "name": "newOwner",
          "type": "address"
        }
      ],
      "name": "transferOwnership",
      "outputs": [],
      "stateMutability": "nonpayable",
      "type": "function"
    }
  ],
  "bytecode": "0x60806040526040518061014001604052806040518060800160405280605d815260200162004549605d913981526020016040518060800160405280605d815260200162004602605d913981526020016040518060800160405280605d8152602001620044ec605d913981526020016040518060800160405280605c815260200162004490605c913981526020016040518060800160405280605c8152602001620045a6605c913981526020016040518060800160405280605d815260200162004433605d913981526020016040518060800160405280605d8152602001620044ec605d913981526020016040518060800160405280605c815260200162004490605c913981526020016040518060800160405280605c8152602001620045a6605c913981526020016040518060800160405280605d815260200162004433605d913981525061015f90600a620001579291906200016c565b503480156200016557600080fd5b5062000356565b828054828255906000526020600020908101928215620001c0579160200282015b82811115620001bf578251829080519060200190620001ae929190620001d3565b50916020019190600101906200018d565b5b509050620001cf919062000264565b5090565b828054620001e19062000320565b90600052602060002090601f01602090048101928262000205576000855562000251565b82601f106200022057805160ff191683800117855562000251565b8280016001018555821562000251579182015b828111156200025057825182559160200191906001019062000233565b5b5090506200026091906200028c565b5090565b5b808211156200028857600081816200027e9190620002ab565b5060010162000265565b5090565b5b80821115620002a75760008160009055506001016200028d565b5090565b508054620002b99062000320565b6000825580601f10620002cd5750620002ee565b601f016020900490600052602060002090810190620002ed91906200028c565b5b50565b7f4e487b7100000000000000000000000000000000000000000000000000000000600052602260045260246000fd5b600060028204905060018216806200033957607f821691505b6020821081141562000350576200034f620002f1565b5b50919050565b6140cd80620003666000396000f3fe608060405234801561001057600080fd5b50600436106101735760003560e01c8063715018a6116100de578063b88d4fde11610097578063d204c45e11610071578063d204c45e14610422578063d75de2611461043e578063e985e9c51461045c578063f2fde38b1461048c57610173565b8063b88d4fde146103ba578063c1370278146103d6578063c87b56dd146103f257610173565b8063715018a6146103445780638129fc1c1461034e5780638881d5e7146103585780638da5cb5b1461036257806395d89b4114610380578063a22cb4651461039e57610173565b80632f745c59116101305780632f745c591461024c57806342842e0e1461027c57806342966c68146102985780634f6ccce7146102b45780636352211e146102e457806370a082311461031457610173565b806301ffc9a71461017857806306fdde03146101a8578063081812fc146101c6578063095ea7b3146101f657806318160ddd1461021257806323b872dd14610230575b600080fd5b610192600480360381019061018d9190612c75565b6104a8565b60405161019f9190612cbd565b60405180910390f35b6101b06104ba565b6040516101bd9190612d71565b60405180910390f35b6101e060048036038101906101db9190612dc9565b61054c565b6040516101ed9190612e37565b60405180910390f35b610210600480360381019061020b9190612e7e565b610592565b005b61021a6106aa565b6040516102279190612ecd565b60405180910390f35b61024a60048036038101906102459190612ee8565b6106b7565b005b61026660048036038101906102619190612e7e565b610717565b6040516102739190612ecd565b60405180910390f35b61029660048036038101906102919190612ee8565b6107bc565b005b6102b260048036038101906102ad9190612dc9565b6107dc565b005b6102ce60048036038101906102c99190612dc9565b610838565b6040516102db9190612ecd565b60405180910390f35b6102fe60048036038101906102f99190612dc9565b6108a9565b60405161030b9190612e37565b60405180910390f35b61032e60048036038101906103299190612f3b565b610930565b60405161033b9190612ecd565b60405180910390f35b61034c6109e8565b005b6103566109fc565b005b610360610ca5565b005b61036a610cdb565b6040516103779190612e37565b60405180910390f35b610388610d06565b6040516103959190612d71565b60405180910390f35b6103b860048036038101906103b39190612f94565b610d98565b005b6103d460048036038101906103cf9190613109565b610dae565b005b6103f060048036038101906103eb9190612ee8565b610e10565b005b61040c60048036038101906104079190612dc9565b610e78565b6040516104199190612d71565b60405180910390f35b61043c6004803603810190610437919061322d565b610e8a565b005b610446610ec5565b6040516104539190612cbd565b60405180910390f35b61047660048036038101906104719190613289565b610ed9565b6040516104839190612cbd565b60405180910390f35b6104a660048036038101906104a19190612f3b565b610f6d565b005b60006104b382610ff1565b9050919050565b6060606580546104c9906132f8565b80601f01602080910402602001604051908101604052809291908181526020018280546104f5906132f8565b80156105425780601f1061051757610100808354040283529160200191610542565b820191906000526020600020905b81548152906001019060200180831161052557829003601f168201915b5050505050905090565b600061055782611052565b6069600083815260200190815260200160002060009054906101000a900473ffffffffffffffffffffffffffffffffffffffff169050919050565b600061059d826108a9565b90508073ffffffffffffffffffffffffffffffffffffffff168373ffffffffffffffffffffffffffffffffffffffff16141561060e576040517f08c379a00000000000000000000000000000000000000000000000000000000081526004016106059061339c565b60405180910390fd5b8073ffffffffffffffffffffffffffffffffffffffff1661062d61109d565b73ffffffffffffffffffffffffffffffffffffffff16148061065c575061065b8161065661109d565b610ed9565b5b61069b576040517f08c379a00000000000000000000000000000000000000000000000000000000081526004016106929061342e565b60405180910390fd5b6106a583836110a5565b505050565b6000609980549050905090565b6106c86106c261109d565b8261115e565b610707576040517f08c379a00000000000000000000000000000000000000000000000000000000081526004016106fe906134c0565b60405180910390fd5b6107128383836111f3565b505050565b600061072283610930565b8210610763576040517f08c379a000000000000000000000000000000000000000000000000000000000815260040161075a90613552565b60405180910390fd5b609760008473ffffffffffffffffffffffffffffffffffffffff1673ffffffffffffffffffffffffffffffffffffffff168152602001908152602001600020600083815260200190815260200160002054905092915050565b6107d783838360405180602001604052806000815250610dae565b505050565b6107ed6107e761109d565b8261115e565b61082c576040517f08c379a0000000000000000000000000000000000000000000000000000000008152600401610823906134c0565b60405180910390fd5b610835816114ed565b50565b60006108426106aa565b8210610883576040517f08c379a000000000000000000000000000000000000000000000000000000000815260040161087a906135e4565b60405180910390fd5b6099828154811061089757610896613604565b5b90600052602060002001549050919050565b6000806108b5836114f9565b9050600073ffffffffffffffffffffffffffffffffffffffff168173ffffffffffffffffffffffffffffffffffffffff161415610927576040517f08c379a000000000000000000000000000000000000000000000000000000000815260040161091e9061367f565b60405180910390fd5b80915050919050565b60008073ffffffffffffffffffffffffffffffffffffffff168273ffffffffffffffffffffffffffffffffffffffff1614156109a1576040517f08c379a000000000000000000000000000000000000000000000000000000000815260040161099890613711565b60405180910390fd5b606860008373ffffffffffffffffffffffffffffffffffffffff1673ffffffffffffffffffffffffffffffffffffffff168152602001908152602001600020549050919050565b6109f0611536565b6109fa60006115b4565b565b60008060019054906101000a900460ff16159050808015610a2d5750600160008054906101000a900460ff1660ff16105b80610a5a5750610a3c3061167c565b158015610a595750600160008054906101000a900460ff1660ff16145b5b610a99576040517f08c379a0000000000000000000000000000000000000000000000000000000008152600401610a90906137a3565b60405180910390fd5b60016000806101000a81548160ff021916908360ff1602179055508015610ad6576001600060016101000a81548160ff0219169083151502179055505b610b4a6040518060400160405280600581526020017f4d794e46540000000000000000000000000000000000000000000000000000008152506040518060400160405280600381526020017f4d4e54000000000000000000000000000000000000000000000000000000000081525061169f565b610b526116fc565b600061016060006101000a81548160ff021916908315150217905550610c4961015f805480602002602001604051908101604052809291908181526020016000905b82821015610c40578382906000526020600020018054610bb3906132f8565b80601f0160208091040260200160405190810160405280929190818152602001828054610bdf906132f8565b8015610c2c5780601f10610c0157610100808354040283529160200191610c2c565b820191906000526020600020905b815481529060010190602001808311610c0f57829003601f168201915b505050505081526020019060010190610b94565b50505050611755565b8015610ca25760008060016101000a81548160ff0219169083151502179055507f7f26b83ff96e1f2b6a682f133852f6798a09c465da95921460cefb38474024986001604051610c999190613815565b60405180910390a15b50565b610cad611536565b61016060009054906101000a900460ff161561016060006101000a81548160ff021916908315150217905550565b600061012d60009054906101000a900473ffffffffffffffffffffffffffffffffffffffff16905090565b606060668054610d15906132f8565b80601f0160208091040260200160405190810160405280929190818152602001828054610d41906132f8565b8015610d8e5780601f10610d6357610100808354040283529160200191610d8e565b820191906000526020600020905b815481529060010190602001808311610d7157829003601f168201915b5050505050905090565b610daa610da361109d565b83836117a4565b5050565b610dbf610db961109d565b8361115e565b610dfe576040517f08c379a0000000000000000000000000000000000000000000000000000000008152600401610df5906134c0565b60405180910390fd5b610e0a84848484611911565b50505050565b610e18611536565b61016060009054906101000a900460ff16610e68576040517f08c379a0000000000000000000000000000000000000000000000000000000008152600401610e5f9061387c565b60405180910390fd5b610e738383836111f3565b505050565b6060610e838261196d565b9050919050565b610e92611536565b6000610e9f610161611a80565b9050610eac610161611a8e565b610eb68382611aa4565b610ec08183611ac2565b505050565b61016060009054906101000a900460ff1681565b6000606a60008473ffffffffffffffffffffffffffffffffffffffff1673ffffffffffffffffffffffffffffffffffffffff16815260200190815260200160002060008373ffffffffffffffffffffffffffffffffffffffff1673ffffffffffffffffffffffffffffffffffffffff16815260200190815260200160002060009054906101000a900460ff16905092915050565b610f75611536565b600073ffffffffffffffffffffffffffffffffffffffff168173ffffffffffffffffffffffffffffffffffffffff161415610fe5576040517f08c379a0000000000000000000000000000000000000000000000000000000008152600401610fdc9061390e565b60405180910390fd5b610fee816115b4565b50565b6000634906490660e01b7bffffffffffffffffffffffffffffffffffffffffffffffffffffffff1916827bffffffffffffffffffffffffffffffffffffffffffffffffffffffff1916148061104b575061104a82611b6d565b5b9050919050565b61105b81611be7565b61109a576040517f08c379a00000000000000000000000000000000000000000000000000000000081526004016110919061367f565b60405180910390fd5b50565b600033905090565b816069600083815260200190815260200160002060006101000a81548173ffffffffffffffffffffffffffffffffffffffff021916908373ffffffffffffffffffffffffffffffffffffffff160217905550808273ffffffffffffffffffffffffffffffffffffffff16611118836108a9565b73ffffffffffffffffffffffffffffffffffffffff167f8c5be1e5ebec7d5bd14f71427d1e84f3dd0314c0f7b2291e5b200ac8c7c3b92560405160405180910390a45050565b60008061116a836108a9565b90508073ffffffffffffffffffffffffffffffffffffffff168473ffffffffffffffffffffffffffffffffffffffff1614806111ac57506111ab8185610ed9565b5b806111ea57508373ffffffffffffffffffffffffffffffffffffffff166111d28461054c565b73ffffffffffffffffffffffffffffffffffffffff16145b91505092915050565b8273ffffffffffffffffffffffffffffffffffffffff16611213826108a9565b73ffffffffffffffffffffffffffffffffffffffff1614611269576040517f08c379a0000000000000000000000000000000000000000000000000000000008152600401611260906139a0565b60405180910390fd5b600073ffffffffffffffffffffffffffffffffffffffff168273ffffffffffffffffffffffffffffffffffffffff1614156112d9576040517f08c379a00000000000000000000000000000000000000000000000000000000081526004016112d090613a32565b60405180910390fd5b6112e68383836001611c28565b8273ffffffffffffffffffffffffffffffffffffffff16611306826108a9565b73ffffffffffffffffffffffffffffffffffffffff161461135c576040517f08c379a0000000000000000000000000000000000000000000000000000000008152600401611353906139a0565b60405180910390fd5b6069600082815260200190815260200160002060006101000a81549073ffffffffffffffffffffffffffffffffffffffff02191690556001606860008573ffffffffffffffffffffffffffffffffffffffff1673ffffffffffffffffffffffffffffffffffffffff168152602001908152602001600020600082825403925050819055506001606860008473ffffffffffffffffffffffffffffffffffffffff1673ffffffffffffffffffffffffffffffffffffffff16815260200190815260200160002060008282540192505081905550816067600083815260200190815260200160002060006101000a81548173ffffffffffffffffffffffffffffffffffffffff021916908373ffffffffffffffffffffffffffffffffffffffff160217905550808273ffffffffffffffffffffffffffffffffffffffff168473ffffffffffffffffffffffffffffffffffffffff167fddf252ad1be2c89b69c2b068fc378daa952ba7f163c4a11628f55a4df523b3ef60405160405180910390a46114e88383836001611c3a565b505050565b6114f681611c40565b50565b60006067600083815260200190815260200160002060009054906101000a900473ffffffffffffffffffffffffffffffffffffffff169050919050565b61153e61109d565b73ffffffffffffffffffffffffffffffffffffffff1661155c610cdb565b73ffffffffffffffffffffffffffffffffffffffff16146115b2576040517f08c379a00000000000000000000000000000000000000000000000000000000081526004016115a990613a9e565b60405180910390fd5b565b600061012d60009054906101000a900473ffffffffffffffffffffffffffffffffffffffff1690508161012d60006101000a81548173ffffffffffffffffffffffffffffffffffffffff021916908373ffffffffffffffffffffffffffffffffffffffff1602179055508173ffffffffffffffffffffffffffffffffffffffff168173ffffffffffffffffffffffffffffffffffffffff167f8be0079c531659141344cd1fd0a4f28419497f9722a3daafe3b4186f6b6457e060405160405180910390a35050565b6000808273ffffffffffffffffffffffffffffffffffffffff163b119050919050565b600060019054906101000a900460ff166116ee576040517f08c379a00000000000000000000000000000000000000000000000000000000081526004016116e590613b30565b60405180910390fd5b6116f88282611c93565b5050565b600060019054906101000a900460ff1661174b576040517f08c379a000000000000000000000000000000000000000000000000000000000815260040161174290613b30565b60405180910390fd5b611753611d14565b565b61175d611536565b60005b81518110156117a05761178d338383815181106117805761177f613604565b5b6020026020010151610e8a565b808061179890613b7f565b915050611760565b5050565b8173ffffffffffffffffffffffffffffffffffffffff168373ffffffffffffffffffffffffffffffffffffffff161415611813576040517f08c379a000000000000000000000000000000000000000000000000000000000815260040161180a90613c14565b60405180910390fd5b80606a60008573ffffffffffffffffffffffffffffffffffffffff1673ffffffffffffffffffffffffffffffffffffffff16815260200190815260200160002060008473ffffffffffffffffffffffffffffffffffffffff1673ffffffffffffffffffffffffffffffffffffffff16815260200190815260200160002060006101000a81548160ff0219169083151502179055508173ffffffffffffffffffffffffffffffffffffffff168373ffffffffffffffffffffffffffffffffffffffff167f17307eab39ab6107e8899845ad3d59bd9653f200f220920489ca2b5937696c31836040516119049190612cbd565b60405180910390a3505050565b61191c8484846111f3565b61192884848484611d75565b611967576040517f08c379a000000000000000000000000000000000000000000000000000000000815260040161195e90613ca6565b60405180910390fd5b50505050565b606061197882611052565b600060c960008481526020019081526020016000208054611998906132f8565b80601f01602080910402602001604051908101604052809291908181526020018280546119c4906132f8565b8015611a115780601f106119e657610100808354040283529160200191611a11565b820191906000526020600020905b8154815290600101906020018083116119f457829003601f168201915b505050505090506000611a22611efd565b9050600081511415611a38578192505050611a7b565b600082511115611a6d578082604051602001611a55929190613d02565b60405160208183030381529060405292505050611a7b565b611a7684611f14565b925050505b919050565b600081600001549050919050565b6001816000016000828254019250508190555050565b611abe828260405180602001604052806000815250611f7c565b5050565b611acb82611be7565b611b0a576040517f08c379a0000000000000000000000000000000000000000000000000000000008152600401611b0190613d98565b60405180910390fd5b8060c960008481526020019081526020016000209080519060200190611b31929190612b26565b507ff8e1a15aba9398e019f0b49df1a4fde98ee17ae345cb5f6b5e2c27f5033e8ce782604051611b619190612ecd565b60405180910390a15050565b60007f780e9d63000000000000000000000000000000000000000000000000000000007bffffffffffffffffffffffffffffffffffffffffffffffffffffffff1916827bffffffffffffffffffffffffffffffffffffffffffffffffffffffff19161480611be05750611bdf82611fd7565b5b9050919050565b60008073ffffffffffffffffffffffffffffffffffffffff16611c09836114f9565b73ffffffffffffffffffffffffffffffffffffffff1614159050919050565b611c34848484846120b9565b50505050565b50505050565b611c4981612219565b600060c960008381526020019081526020016000208054611c69906132f8565b905014611c905760c960008281526020019081526020016000206000611c8f9190612bac565b5b50565b600060019054906101000a900460ff16611ce2576040517f08c379a0000000000000000000000000000000000000000000000000000000008152600401611cd990613b30565b60405180910390fd5b8160659080519060200190611cf8929190612b26565b508060669080519060200190611d0f929190612b26565b505050565b600060019054906101000a900460ff16611d63576040517f08c379a0000000000000000000000000000000000000000000000000000000008152600401611d5a90613b30565b60405180910390fd5b611d73611d6e61109d565b6115b4565b565b6000611d968473ffffffffffffffffffffffffffffffffffffffff1661167c565b15611ef0578373ffffffffffffffffffffffffffffffffffffffff1663150b7a02611dbf61109d565b8786866040518563ffffffff1660e01b8152600401611de19493929190613e0d565b6020604051808303816000875af1925050508015611e1d57506040513d601f19601f82011682018060405250810190611e1a9190613e6e565b60015b611ea0573d8060008114611e4d576040519150601f19603f3d011682016040523d82523d6000602084013e611e52565b606091505b50600081511415611e98576040517f08c379a0000000000000000000000000000000000000000000000000000000008152600401611e8f90613ca6565b60405180910390fd5b805181602001fd5b63150b7a0260e01b7bffffffffffffffffffffffffffffffffffffffffffffffffffffffff1916817bffffffffffffffffffffffffffffffffffffffffffffffffffffffff191614915050611ef5565b600190505b949350505050565b606060405180602001604052806000815250905090565b6060611f1f82611052565b6000611f29611efd565b90506000815111611f495760405180602001604052806000815250611f74565b80611f5384612367565b604051602001611f64929190613d02565b6040516020818303038152906040525b915050919050565b611f86838361243f565b611f936000848484611d75565b611fd2576040517f08c379a0000000000000000000000000000000000000000000000000000000008152600401611fc990613ca6565b60405180910390fd5b505050565b60007f80ac58cd000000000000000000000000000000000000000000000000000000007bffffffffffffffffffffffffffffffffffffffffffffffffffffffff1916827bffffffffffffffffffffffffffffffffffffffffffffffffffffffff191614806120a257507f5b5e139f000000000000000000000000000000000000000000000000000000007bffffffffffffffffffffffffffffffffffffffffffffffffffffffff1916827bffffffffffffffffffffffffffffffffffffffffffffffffffffffff1916145b806120b257506120b18261265d565b5b9050919050565b6120c5848484846126c7565b6001811115612109576040517f08c379a000000000000000000000000000000000000000000000000000000000815260040161210090613f0d565b60405180910390fd5b6000829050600073ffffffffffffffffffffffffffffffffffffffff168573ffffffffffffffffffffffffffffffffffffffff1614156121515761214c816126cd565b612190565b8373ffffffffffffffffffffffffffffffffffffffff168573ffffffffffffffffffffffffffffffffffffffff161461218f5761218e8582612716565b5b5b600073ffffffffffffffffffffffffffffffffffffffff168473ffffffffffffffffffffffffffffffffffffffff1614156121d3576121ce81612883565b612212565b8473ffffffffffffffffffffffffffffffffffffffff168473ffffffffffffffffffffffffffffffffffffffff1614612211576122108482612954565b5b5b5050505050565b6000612224826108a9565b9050612234816000846001611c28565b61223d826108a9565b90506069600083815260200190815260200160002060006101000a81549073ffffffffffffffffffffffffffffffffffffffff02191690556001606860008373ffffffffffffffffffffffffffffffffffffffff1673ffffffffffffffffffffffffffffffffffffffff168152602001908152602001600020600082825403925050819055506067600083815260200190815260200160002060006101000a81549073ffffffffffffffffffffffffffffffffffffffff021916905581600073ffffffffffffffffffffffffffffffffffffffff168273ffffffffffffffffffffffffffffffffffffffff167fddf252ad1be2c89b69c2b068fc378daa952ba7f163c4a11628f55a4df523b3ef60405160405180910390a4612363816000846001611c3a565b5050565b606060006001612376846129d3565b01905060008167ffffffffffffffff81111561239557612394612fde565b5b6040519080825280601f01601f1916602001820160405280156123c75781602001600182028036833780820191505090505b509050600082602001820190505b600115612434578080600190039150507f3031323334353637383961626364656600000000000000000000000000000000600a86061a8153600a858161241e5761241d613f2d565b5b049450600085141561242f57612434565b6123d5565b819350505050919050565b600073ffffffffffffffffffffffffffffffffffffffff168273ffffffffffffffffffffffffffffffffffffffff1614156124af576040517f08c379a00000000000000000000000000000000000000000000000000000000081526004016124a690613fa8565b60405180910390fd5b6124b881611be7565b156124f8576040517f08c379a00000000000000000000000000000000000000000000000000000000081526004016124ef90614014565b60405180910390fd5b612506600083836001611c28565b61250f81611be7565b1561254f576040517f08c379a000000000000000000000000000000000000000000000000000000000815260040161254690614014565b60405180910390fd5b6001606860008473ffffffffffffffffffffffffffffffffffffffff1673ffffffffffffffffffffffffffffffffffffffff16815260200190815260200160002060008282540192505081905550816067600083815260200190815260200160002060006101000a81548173ffffffffffffffffffffffffffffffffffffffff021916908373ffffffffffffffffffffffffffffffffffffffff160217905550808273ffffffffffffffffffffffffffffffffffffffff16600073ffffffffffffffffffffffffffffffffffffffff167fddf252ad1be2c89b69c2b068fc378daa952ba7f163c4a11628f55a4df523b3ef60405160405180910390a4612659600083836001611c3a565b5050565b60007f01ffc9a7000000000000000000000000000000000000000000000000000000007bffffffffffffffffffffffffffffffffffffffffffffffffffffffff1916827bffffffffffffffffffffffffffffffffffffffffffffffffffffffff1916149050919050565b50505050565b609980549050609a600083815260200190815260200160002081905550609981908060018154018082558091505060019003906000526020600020016000909190919091505550565b6000600161272384610930565b61272d9190614034565b9050600060986000848152602001908152602001600020549050818114612812576000609760008673ffffffffffffffffffffffffffffffffffffffff1673ffffffffffffffffffffffffffffffffffffffff168152602001908152602001600020600084815260200190815260200160002054905080609760008773ffffffffffffffffffffffffffffffffffffffff1673ffffffffffffffffffffffffffffffffffffffff168152602001908152602001600020600084815260200190815260200160002081905550816098600083815260200190815260200160002081905550505b6098600084815260200190815260200160002060009055609760008573ffffffffffffffffffffffffffffffffffffffff1673ffffffffffffffffffffffffffffffffffffffff16815260200190815260200160002060008381526020019081526020016000206000905550505050565b600060016099805490506128979190614034565b90506000609a60008481526020019081526020016000205490506000609983815481106128c7576128c6613604565b5b9060005260206000200154905080609983815481106128e9576128e8613604565b5b906000526020600020018190555081609a600083815260200190815260200160002081905550609a600085815260200190815260200160002060009055609980548061293857612937614068565b5b6001900381819060005260206000200160009055905550505050565b600061295f83610930565b905081609760008573ffffffffffffffffffffffffffffffffffffffff1673ffffffffffffffffffffffffffffffffffffffff168152602001908152602001600020600083815260200190815260200160002081905550806098600084815260200190815260200160002081905550505050565b600080600090507a184f03e93ff9f4daa797ed6e38ed64bf6a1f0100000000000000008310612a31577a184f03e93ff9f4daa797ed6e38ed64bf6a1f0100000000000000008381612a2757612a26613f2d565b5b0492506040810190505b6d04ee2d6d415b85acef81000000008310612a6e576d04ee2d6d415b85acef81000000008381612a6457612a63613f2d565b5b0492506020810190505b662386f26fc100008310612a9d57662386f26fc100008381612a9357612a92613f2d565b5b0492506010810190505b6305f5e1008310612ac6576305f5e1008381612abc57612abb613f2d565b5b0492506008810190505b6127108310612aeb576127108381612ae157612ae0613f2d565b5b0492506004810190505b60648310612b0e5760648381612b0457612b03613f2d565b5b0492506002810190505b600a8310612b1d576001810190505b80915050919050565b828054612b32906132f8565b90600052602060002090601f016020900481019282612b545760008555612b9b565b82601f10612b6d57805160ff1916838001178555612b9b565b82800160010185558215612b9b579182015b82811115612b9a578251825591602001919060010190612b7f565b5b509050612ba89190612bec565b5090565b508054612bb8906132f8565b6000825580601f10612bca5750612be9565b601f016020900490600052602060002090810190612be89190612bec565b5b50565b5b80821115612c05576000816000905550600101612bed565b5090565b6000604051905090565b600080fd5b600080fd5b60007fffffffff0000000000000000000000000000000000000000000000000000000082169050919050565b612c5281612c1d565b8114612c5d57600080fd5b50565b600081359050612c6f81612c49565b92915050565b600060208284031215612c8b57612c8a612c13565b5b6000612c9984828501612c60565b91505092915050565b60008115159050919050565b612cb781612ca2565b82525050565b6000602082019050612cd26000830184612cae565b92915050565b600081519050919050565b600082825260208201905092915050565b60005b83811015612d12578082015181840152602081019050612cf7565b83811115612d21576000848401525b50505050565b6000601f19601f8301169050919050565b6000612d4382612cd8565b612d4d8185612ce3565b9350612d5d818560208601612cf4565b612d6681612d27565b840191505092915050565b60006020820190508181036000830152612d8b8184612d38565b905092915050565b6000819050919050565b612da681612d93565b8114612db157600080fd5b50565b600081359050612dc381612d9d565b92915050565b600060208284031215612ddf57612dde612c13565b5b6000612ded84828501612db4565b91505092915050565b600073ffffffffffffffffffffffffffffffffffffffff82169050919050565b6000612e2182612df6565b9050919050565b612e3181612e16565b82525050565b6000602082019050612e4c6000830184612e28565b92915050565b612e5b81612e16565b8114612e6657600080fd5b50565b600081359050612e7881612e52565b92915050565b60008060408385031215612e9557612e94612c13565b5b6000612ea385828601612e69565b9250506020612eb485828601612db4565b9150509250929050565b612ec781612d93565b82525050565b6000602082019050612ee26000830184612ebe565b92915050565b600080600060608486031215612f0157612f00612c13565b5b6000612f0f86828701612e69565b9350506020612f2086828701612e69565b9250506040612f3186828701612db4565b9150509250925092565b600060208284031215612f5157612f50612c13565b5b6000612f5f84828501612e69565b91505092915050565b612f7181612ca2565b8114612f7c57600080fd5b50565b600081359050612f8e81612f68565b92915050565b60008060408385031215612fab57612faa612c13565b5b6000612fb985828601612e69565b9250506020612fca85828601612f7f565b9150509250929050565b600080fd5b600080fd5b7f4e487b7100000000000000000000000000000000000000000000000000000000600052604160045260246000fd5b61301682612d27565b810181811067ffffffffffffffff8211171561303557613034612fde565b5b80604052505050565b6000613048612c09565b9050613054828261300d565b919050565b600067ffffffffffffffff82111561307457613073612fde565b5b61307d82612d27565b9050602081019050919050565b82818337600083830152505050565b60006130ac6130a784613059565b61303e565b9050828152602081018484840111156130c8576130c7612fd9565b5b6130d384828561308a565b509392505050565b600082601f8301126130f0576130ef612fd4565b5b8135613100848260208601613099565b91505092915050565b6000806000806080858703121561312357613122612c13565b5b600061313187828801612e69565b945050602061314287828801612e69565b935050604061315387828801612db4565b925050606085013567ffffffffffffffff81111561317457613173612c18565b5b613180878288016130db565b91505092959194509250565b600067ffffffffffffffff8211156131a7576131a6612fde565b5b6131b082612d27565b9050602081019050919050565b60006131d06131cb8461318c565b61303e565b9050828152602081018484840111156131ec576131eb612fd9565b5b6131f784828561308a565b509392505050565b600082601f83011261321457613213612fd4565b5b81356132248482602086016131bd565b91505092915050565b6000806040838503121561324457613243612c13565b5b600061325285828601612e69565b925050602083013567ffffffffffffffff81111561327357613272612c18565b5b61327f858286016131ff565b9150509250929050565b600080604083850312156132a05761329f612c13565b5b60006132ae85828601612e69565b92505060206132bf85828601612e69565b9150509250929050565b7f4e487b7100000000000000000000000000000000000000000000000000000000600052602260045260246000fd5b6000600282049050600182168061331057607f821691505b60208210811415613324576133236132c9565b5b50919050565b7f4552433732313a20617070726f76616c20746f2063757272656e74206f776e6560008201527f7200000000000000000000000000000000000000000000000000000000000000602082015250565b6000613386602183612ce3565b91506133918261332a565b604082019050919050565b600060208201905081810360008301526133b581613379565b9050919050565b7f4552433732313a20617070726f76652063616c6c6572206973206e6f7420746f60008201527f6b656e206f776e6572206f7220617070726f76656420666f7220616c6c000000602082015250565b6000613418603d83612ce3565b9150613423826133bc565b604082019050919050565b600060208201905081810360008301526134478161340b565b9050919050565b7f4552433732313a2063616c6c6572206973206e6f7420746f6b656e206f776e6560008201527f72206f7220617070726f76656400000000000000000000000000000000000000602082015250565b60006134aa602d83612ce3565b91506134b58261344e565b604082019050919050565b600060208201905081810360008301526134d98161349d565b9050919050565b7f455243373231456e756d657261626c653a206f776e657220696e646578206f7560008201527f74206f6620626f756e6473000000000000000000000000000000000000000000602082015250565b600061353c602b83612ce3565b9150613547826134e0565b604082019050919050565b6000602082019050818103600083015261356b8161352f565b9050919050565b7f455243373231456e756d657261626c653a20676c6f62616c20696e646578206f60008201527f7574206f6620626f756e64730000000000000000000000000000000000000000602082015250565b60006135ce602c83612ce3565b91506135d982613572565b604082019050919050565b600060208201905081810360008301526135fd816135c1565b9050919050565b7f4e487b7100000000000000000000000000000000000000000000000000000000600052603260045260246000fd5b7f4552433732313a20696e76616c696420746f6b656e2049440000000000000000600082015250565b6000613669601883612ce3565b915061367482613633565b602082019050919050565b600060208201905081810360008301526136988161365c565b9050919050565b7f4552433732313a2061646472657373207a65726f206973206e6f74206120766160008201527f6c6964206f776e65720000000000000000000000000000000000000000000000602082015250565b60006136fb602983612ce3565b91506137068261369f565b604082019050919050565b6000602082019050818103600083015261372a816136ee565b9050919050565b7f496e697469616c697a61626c653a20636f6e747261637420697320616c72656160008201527f647920696e697469616c697a6564000000000000000000000000000000000000602082015250565b600061378d602e83612ce3565b915061379882613731565b604082019050919050565b600060208201905081810360008301526137bc81613780565b9050919050565b6000819050919050565b600060ff82169050919050565b6000819050919050565b60006137ff6137fa6137f5846137c3565b6137da565b6137cd565b9050919050565b61380f816137e4565b82525050565b600060208201905061382a6000830184613806565b92915050565b7f476f64206d6f6465206973206e6f7420656e61626c65642e0000000000000000600082015250565b6000613866601883612ce3565b915061387182613830565b602082019050919050565b6000602082019050818103600083015261389581613859565b9050919050565b7f4f776e61626c653a206e6577206f776e657220697320746865207a65726f206160008201527f6464726573730000000000000000000000000000000000000000000000000000602082015250565b60006138f8602683612ce3565b91506139038261389c565b604082019050919050565b60006020820190508181036000830152613927816138eb565b9050919050565b7f4552433732313a207472616e736665722066726f6d20696e636f72726563742060008201527f6f776e6572000000000000000000000000000000000000000000000000000000602082015250565b600061398a602583612ce3565b91506139958261392e565b604082019050919050565b600060208201905081810360008301526139b98161397d565b9050919050565b7f4552433732313a207472616e7366657220746f20746865207a65726f2061646460008201527f7265737300000000000000000000000000000000000000000000000000000000602082015250565b6000613a1c602483612ce3565b9150613a27826139c0565b604082019050919050565b60006020820190508181036000830152613a4b81613a0f565b9050919050565b7f4f776e61626c653a2063616c6c6572206973206e6f7420746865206f776e6572600082015250565b6000613a88602083612ce3565b9150613a9382613a52565b602082019050919050565b60006020820190508181036000830152613ab781613a7b565b9050919050565b7f496e697469616c697a61626c653a20636f6e7472616374206973206e6f74206960008201527f6e697469616c697a696e67000000000000000000000000000000000000000000602082015250565b6000613b1a602b83612ce3565b9150613b2582613abe565b604082019050919050565b60006020820190508181036000830152613b4981613b0d565b9050919050565b7f4e487b7100000000000000000000000000000000000000000000000000000000600052601160045260246000fd5b6000613b8a82612d93565b91507fffffffffffffffffffffffffffffffffffffffffffffffffffffffffffffffff821415613bbd57613bbc613b50565b5b600182019050919050565b7f4552433732313a20617070726f766520746f2063616c6c657200000000000000600082015250565b6000613bfe601983612ce3565b9150613c0982613bc8565b602082019050919050565b60006020820190508181036000830152613c2d81613bf1565b9050919050565b7f4552433732313a207472616e7366657220746f206e6f6e20455243373231526560008201527f63656976657220696d706c656d656e7465720000000000000000000000000000602082015250565b6000613c90603283612ce3565b9150613c9b82613c34565b604082019050919050565b60006020820190508181036000830152613cbf81613c83565b9050919050565b600081905092915050565b6000613cdc82612cd8565b613ce68185613cc6565b9350613cf6818560208601612cf4565b80840191505092915050565b6000613d0e8285613cd1565b9150613d1a8284613cd1565b91508190509392505050565b7f45524337323155524953746f726167653a2055524920736574206f66206e6f6e60008201527f6578697374656e7420746f6b656e000000000000000000000000000000000000602082015250565b6000613d82602e83612ce3565b9150613d8d82613d26565b604082019050919050565b60006020820190508181036000830152613db181613d75565b9050919050565b600081519050919050565b600082825260208201905092915050565b6000613ddf82613db8565b613de98185613dc3565b9350613df9818560208601612cf4565b613e0281612d27565b840191505092915050565b6000608082019050613e226000830187612e28565b613e2f6020830186612e28565b613e3c6040830185612ebe565b8181036060830152613e4e8184613dd4565b905095945050505050565b600081519050613e6881612c49565b92915050565b600060208284031215613e8457613e83612c13565b5b6000613e9284828501613e59565b91505092915050565b7f455243373231456e756d657261626c653a20636f6e736563757469766520747260008201527f616e7366657273206e6f7420737570706f727465640000000000000000000000602082015250565b6000613ef7603583612ce3565b9150613f0282613e9b565b604082019050919050565b60006020820190508181036000830152613f2681613eea565b9050919050565b7f4e487b7100000000000000000000000000000000000000000000000000000000600052601260045260246000fd5b7f4552433732313a206d696e7420746f20746865207a65726f2061646472657373600082015250565b6000613f92602083612ce3565b9150613f9d82613f5c565b602082019050919050565b60006020820190508181036000830152613fc181613f85565b9050919050565b7f4552433732313a20746f6b656e20616c7265616479206d696e74656400000000600082015250565b6000613ffe601c83612ce3565b915061400982613fc8565b602082019050919050565b6000602082019050818103600083015261402d81613ff1565b9050919050565b600061403f82612d93565b915061404a83612d93565b92508282101561405d5761405c613b50565b5b828203905092915050565b7f4e487b7100000000000000000000000000000000000000000000000000000000600052603160045260246000fdfea264697066735822122017bc986731e4fdd426552ef01073daca0174f90270ccdfda89fcc7c05d89065964736f6c634300080a003368747470733a2f2f697066732e696f2f697066732f516d646355526d4e316b4545744b676e626b564a4a3868726d73535748705a764c6b5267734b4b6f6957765739673f66696c656e616d653d73696d706c655f62756c6c2e6a736f6e68747470733a2f2f697066732e696f2f697066732f516d5258796669336f4e5a43756244786956467265336b4c5a3858654774367051736e4151525a37616b68534e733f66696c656e616d653d67616d65725f62756c6c2e6a736f6e68747470733a2f2f697066732e696f2f697066732f516d624b68425856576d777259735450465966726f52324e374e41656b414d78485556673243576b73376939716a3f66696c656e616d653d73696d706c655f626561722e6a736f6e68747470733a2f2f697066732e696f2f697066732f516d6478394878374643445a474578796a4c52367659636e75745552384b68425a426e5a6641504869556f6d6d4e3f66696c656e616d653d6265616e69655f626561722e6a736f6e68747470733a2f2f697066732e696f2f697066732f516d524a5646654d7274595332435556554d3263484a70425635615832787572706e73665a784c545451626944333f66696c656e616d653d70617274795f62756c6c2e6a736f6e68747470733a2f2f697066732e696f2f697066732f516d54564c79545375694b4755456d6238384267584733714e4338596770485a6946626a4872584b4833514845753f66696c656e616d653d636f6f6c696f5f626561722e6a736f6e",
  "linkReferences": {},
  "deployedLinkReferences": {}
}