{
  "_format": "hh-sol-artifact-1",
  "contractName": "MyTokenUpgradeable",
  "sourceName": "contracts/MyToken.sol",
  "abi": [
    {
      "anonymous": false,
      "inputs": [
        {
          "indexed": true,
          "internalType": "address",
          "name": "owner",
          "type": "address"
        },
        {
          "indexed": true,
          "internalType": "address",
          "name": "spender",
          "type": "address"
        },
        {
          "indexed": false,
          "internalType": "uint256",
          "name": "value",
          "type": "uint256"
        }
      ],
      "name": "Approval",
      "type": "event"
    },
    {
      "anonymous": false,
      "inputs": [
        {
          "indexed": false,
          "internalType": "uint8",
          "name": "version",
          "type": "uint8"
        }
      ],
      "name": "Initialized",
      "type": "event"
    },
    {
      "anonymous": false,
      "inputs": [
        {
          "indexed": true,
          "internalType": "address",
          "name": "from",
          "type": "address"
        },
        {
          "indexed": true,
          "internalType": "address",
          "name": "to",
          "type": "address"
        },
        {
          "indexed": false,
          "internalType": "uint256",
          "name": "value",
          "type": "uint256"
        }
      ],
      "name": "Transfer",
      "type": "event"
    },
    {
      "inputs": [
        {
          "internalType": "address",
          "name": "owner",
          "type": "address"
        },
        {
          "internalType": "address",
          "name": "spender",
          "type": "address"
        }
      ],
      "name": "allowance",
      "outputs": [
        {
          "internalType": "uint256",
          "name": "",
          "type": "uint256"
        }
      ],
      "stateMutability": "view",
      "type": "function"
    },
    {
      "inputs": [
        {
          "internalType": "address",
          "name": "spender",
          "type": "address"
        },
        {
          "internalType": "uint256",
          "name": "amount",
          "type": "uint256"
        }
      ],
      "name": "approve",
      "outputs": [
        {
          "internalType": "bool",
          "name": "",
          "type": "bool"
        }
      ],
      "stateMutability": "nonpayable",
      "type": "function"
    },
    {
      "inputs": [
        {
          "internalType": "address",
          "name": "owner",
          "type": "address"
        },
        {
          "internalType": "address",
          "name": "spender",
          "type": "address"
        },
        {
          "internalType": "uint256",
          "name": "amount",
          "type": "uint256"
        }
      ],
      "name": "approveContract",
      "outputs": [],
      "stateMutability": "nonpayable",
      "type": "function"
    },
    {
      "inputs": [
        {
          "internalType": "address",
          "name": "account",
          "type": "address"
        }
      ],
      "name": "balanceOf",
      "outputs": [
        {
          "internalType": "uint256",
          "name": "",
          "type": "uint256"
        }
      ],
      "stateMutability": "view",
      "type": "function"
    },
    {
      "inputs": [
        {
          "internalType": "uint256",
          "name": "amount",
          "type": "uint256"
        }
      ],
      "name": "burn",
      "outputs": [],
      "stateMutability": "nonpayable",
      "type": "function"
    },
    {
      "inputs": [
        {
          "internalType": "address",
          "name": "account",
          "type": "address"
        },
        {
          "internalType": "uint256",
          "name": "amount",
          "type": "uint256"
        }
      ],
      "name": "burnFrom",
      "outputs": [],
      "stateMutability": "nonpayable",
      "type": "function"
    },
    {
      "inputs": [],
      "name": "decimals",
      "outputs": [
        {
          "internalType": "uint8",
          "name": "",
          "type": "uint8"
        }
      ],
      "stateMutability": "view",
      "type": "function"
    },
    {
      "inputs": [
        {
          "internalType": "address",
          "name": "spender",
          "type": "address"
        },
        {
          "internalType": "uint256",
          "name": "subtractedValue",
          "type": "uint256"
        }
      ],
      "name": "decreaseAllowance",
      "outputs": [
        {
          "internalType": "bool",
          "name": "",
          "type": "bool"
        }
      ],
      "stateMutability": "nonpayable",
      "type": "function"
    },
    {
      "inputs": [
        {
          "internalType": "address",
          "name": "spender",
          "type": "address"
        },
        {
          "internalType": "uint256",
          "name": "addedValue",
          "type": "uint256"
        }
      ],
      "name": "increaseAllowance",
      "outputs": [
        {
          "internalType": "bool",
          "name": "",
          "type": "bool"
        }
      ],
      "stateMutability": "nonpayable",
      "type": "function"
    },
    {
      "inputs": [],
      "name": "initialize",
      "outputs": [],
      "stateMutability": "nonpayable",
      "type": "function"
    },
    {
      "inputs": [
        {
          "internalType": "address",
          "name": "to",
          "type": "address"
        },
        {
          "internalType": "uint256",
          "name": "amount",
          "type": "uint256"
        }
      ],
      "name": "mint",
      "outputs": [],
      "stateMutability": "nonpayable",
      "type": "function"
    },
    {
      "inputs": [],
      "name": "name",
      "outputs": [
        {
          "internalType": "string",
          "name": "",
          "type": "string"
        }
      ],
      "stateMutability": "view",
      "type": "function"
    },
    {
      "inputs": [],
      "name": "symbol",
      "outputs": [
        {
          "internalType": "string",
          "name": "",
          "type": "string"
        }
      ],
      "stateMutability": "view",
      "type": "function"
    },
    {
      "inputs": [],
      "name": "totalSupply",
      "outputs": [
        {
          "internalType": "uint256",
          "name": "",
          "type": "uint256"
        }
      ],
      "stateMutability": "view",
      "type": "function"
    },
    {
      "inputs": [
        {
          "internalType": "address",
          "name": "to",
          "type": "address"
        },
        {
          "internalType": "uint256",
          "name": "amount",
          "type": "uint256"
        }
      ],
      "name": "transfer",
      "outputs": [
        {
          "internalType": "bool",
          "name": "",
          "type": "bool"
        }
      ],
      "stateMutability": "nonpayable",
      "type": "function"
    },
    {
      "inputs": [
        {
          "internalType": "address",
          "name": "from",
          "type": "address"
        },
        {
          "internalType": "address",
          "name": "to",
          "type": "address"
        },
        {
          "internalType": "uint256",
          "name": "amount",
          "type": "uint256"
        }
      ],
      "name": "transferFrom",
      "outputs": [
        {
          "internalType": "bool",
          "name": "",
          "type": "bool"
        }
      ],
      "stateMutability": "nonpayable",
      "type": "function"
    }
  ],
  "bytecode": "0x608060405234801561001057600080fd5b50611d3d806100206000396000f3fe608060405234801561001057600080fd5b50600436106101005760003560e01c806370a0823111610097578063a457c2d711610066578063a457c2d71461029b578063a9059cbb146102cb578063d77301c2146102fb578063dd62ed3e1461031757610100565b806370a082311461022757806379cc6790146102575780638129fc1c1461027357806395d89b411461027d57610100565b8063313ce567116100d3578063313ce567146101a157806339509351146101bf57806340c10f19146101ef57806342966c681461020b57610100565b806306fdde0314610105578063095ea7b31461012357806318160ddd1461015357806323b872dd14610171575b600080fd5b61010d610347565b60405161011a91906112b6565b60405180910390f35b61013d60048036038101906101389190611371565b6103d9565b60405161014a91906113cc565b60405180910390f35b61015b6103fc565b60405161016891906113f6565b60405180910390f35b61018b60048036038101906101869190611411565b610406565b60405161019891906113cc565b60405180910390f35b6101a9610435565b6040516101b69190611480565b60405180910390f35b6101d960048036038101906101d49190611371565b61043e565b6040516101e691906113cc565b60405180910390f35b61020960048036038101906102049190611371565b610475565b005b6102256004803603810190610220919061149b565b610483565b005b610241600480360381019061023c91906114c8565b610497565b60405161024e91906113f6565b60405180910390f35b610271600480360381019061026c9190611371565b6104e0565b005b61027b610500565b005b6102856106aa565b60405161029291906112b6565b60405180910390f35b6102b560048036038101906102b09190611371565b61073c565b6040516102c291906113cc565b60405180910390f35b6102e560048036038101906102e09190611371565b6107b3565b6040516102f291906113cc565b60405180910390f35b61031560048036038101906103109190611411565b6107d6565b005b610331600480360381019061032c91906114f5565b6107e6565b60405161033e91906113f6565b60405180910390f35b60606036805461035690611564565b80601f016020809104026020016040519081016040528092919081815260200182805461038290611564565b80156103cf5780601f106103a4576101008083540402835291602001916103cf565b820191906000526020600020905b8154815290600101906020018083116103b257829003601f168201915b5050505050905090565b6000806103e461086d565b90506103f1818585610875565b600191505092915050565b6000603554905090565b60008061041161086d565b905061041e858285610a40565b610429858585610acc565b60019150509392505050565b60006012905090565b60008061044961086d565b905061046a81858561045b85896107e6565b61046591906115c5565b610875565b600191505092915050565b61047f8282610d47565b5050565b61049461048e61086d565b82610e9f565b50565b6000603360008373ffffffffffffffffffffffffffffffffffffffff1673ffffffffffffffffffffffffffffffffffffffff168152602001908152602001600020549050919050565b6104f2826104ec61086d565b83610a40565b6104fc8282610e9f565b5050565b60008060019054906101000a900460ff161590508080156105315750600160008054906101000a900460ff1660ff16105b8061055e57506105403061106f565b15801561055d5750600160008054906101000a900460ff1660ff16145b5b61059d576040517f08c379a00000000000000000000000000000000000000000000000000000000081526004016105949061168d565b60405180910390fd5b60016000806101000a81548160ff021916908360ff16021790555080156105da576001600060016101000a81548160ff0219169083151502179055505b61064e6040518060400160405280600781526020017f4d79546f6b656e000000000000000000000000000000000000000000000000008152506040518060400160405280600381526020017f4d544e0000000000000000000000000000000000000000000000000000000000815250611092565b80156106a75760008060016101000a81548160ff0219169083151502179055507f7f26b83ff96e1f2b6a682f133852f6798a09c465da95921460cefb3847402498600160405161069e91906116f2565b60405180910390a15b50565b6060603780546106b990611564565b80601f01602080910402602001604051908101604052809291908181526020018280546106e590611564565b80156107325780601f1061070757610100808354040283529160200191610732565b820191906000526020600020905b81548152906001019060200180831161071557829003601f168201915b5050505050905090565b60008061074761086d565b9050600061075582866107e6565b90508381101561079a576040517f08c379a00000000000000000000000000000000000000000000000000000000081526004016107919061177f565b60405180910390fd5b6107a78286868403610875565b60019250505092915050565b6000806107be61086d565b90506107cb818585610acc565b600191505092915050565b6107e1838383610875565b505050565b6000603460008473ffffffffffffffffffffffffffffffffffffffff1673ffffffffffffffffffffffffffffffffffffffff16815260200190815260200160002060008373ffffffffffffffffffffffffffffffffffffffff1673ffffffffffffffffffffffffffffffffffffffff16815260200190815260200160002054905092915050565b600033905090565b600073ffffffffffffffffffffffffffffffffffffffff168373ffffffffffffffffffffffffffffffffffffffff1614156108e5576040517f08c379a00000000000000000000000000000000000000000000000000000000081526004016108dc90611811565b60405180910390fd5b600073ffffffffffffffffffffffffffffffffffffffff168273ffffffffffffffffffffffffffffffffffffffff161415610955576040517f08c379a000000000000000000000000000000000000000000000000000000000815260040161094c906118a3565b60405180910390fd5b80603460008573ffffffffffffffffffffffffffffffffffffffff1673ffffffffffffffffffffffffffffffffffffffff16815260200190815260200160002060008473ffffffffffffffffffffffffffffffffffffffff1673ffffffffffffffffffffffffffffffffffffffff168152602001908152602001600020819055508173ffffffffffffffffffffffffffffffffffffffff168373ffffffffffffffffffffffffffffffffffffffff167f8c5be1e5ebec7d5bd14f71427d1e84f3dd0314c0f7b2291e5b200ac8c7c3b92583604051610a3391906113f6565b60405180910390a3505050565b6000610a4c84846107e6565b90507fffffffffffffffffffffffffffffffffffffffffffffffffffffffffffffffff8114610ac65781811015610ab8576040517f08c379a0000000000000000000000000000000000000000000000000000000008152600401610aaf9061190f565b60405180910390fd5b610ac58484848403610875565b5b50505050565b600073ffffffffffffffffffffffffffffffffffffffff168373ffffffffffffffffffffffffffffffffffffffff161415610b3c576040517f08c379a0000000000000000000000000000000000000000000000000000000008152600401610b33906119a1565b60405180910390fd5b600073ffffffffffffffffffffffffffffffffffffffff168273ffffffffffffffffffffffffffffffffffffffff161415610bac576040517f08c379a0000000000000000000000000000000000000000000000000000000008152600401610ba390611a33565b60405180910390fd5b610bb78383836110ef565b6000603360008573ffffffffffffffffffffffffffffffffffffffff1673ffffffffffffffffffffffffffffffffffffffff16815260200190815260200160002054905081811015610c3e576040517f08c379a0000000000000000000000000000000000000000000000000000000008152600401610c3590611ac5565b60405180910390fd5b818103603360008673ffffffffffffffffffffffffffffffffffffffff1673ffffffffffffffffffffffffffffffffffffffff1681526020019081526020016000208190555081603360008573ffffffffffffffffffffffffffffffffffffffff1673ffffffffffffffffffffffffffffffffffffffff168152602001908152602001600020600082825401925050819055508273ffffffffffffffffffffffffffffffffffffffff168473ffffffffffffffffffffffffffffffffffffffff167fddf252ad1be2c89b69c2b068fc378daa952ba7f163c4a11628f55a4df523b3ef84604051610d2e91906113f6565b60405180910390a3610d418484846110f4565b50505050565b600073ffffffffffffffffffffffffffffffffffffffff168273ffffffffffffffffffffffffffffffffffffffff161415610db7576040517f08c379a0000000000000000000000000000000000000000000000000000000008152600401610dae90611b31565b60405180910390fd5b610dc3600083836110ef565b8060356000828254610dd591906115c5565b9250508190555080603360008473ffffffffffffffffffffffffffffffffffffffff1673ffffffffffffffffffffffffffffffffffffffff168152602001908152602001600020600082825401925050819055508173ffffffffffffffffffffffffffffffffffffffff16600073ffffffffffffffffffffffffffffffffffffffff167fddf252ad1be2c89b69c2b068fc378daa952ba7f163c4a11628f55a4df523b3ef83604051610e8791906113f6565b60405180910390a3610e9b600083836110f4565b5050565b600073ffffffffffffffffffffffffffffffffffffffff168273ffffffffffffffffffffffffffffffffffffffff161415610f0f576040517f08c379a0000000000000000000000000000000000000000000000000000000008152600401610f0690611bc3565b60405180910390fd5b610f1b826000836110ef565b6000603360008473ffffffffffffffffffffffffffffffffffffffff1673ffffffffffffffffffffffffffffffffffffffff16815260200190815260200160002054905081811015610fa2576040517f08c379a0000000000000000000000000000000000000000000000000000000008152600401610f9990611c55565b60405180910390fd5b818103603360008573ffffffffffffffffffffffffffffffffffffffff1673ffffffffffffffffffffffffffffffffffffffff1681526020019081526020016000208190555081603560008282540392505081905550600073ffffffffffffffffffffffffffffffffffffffff168373ffffffffffffffffffffffffffffffffffffffff167fddf252ad1be2c89b69c2b068fc378daa952ba7f163c4a11628f55a4df523b3ef8460405161105691906113f6565b60405180910390a361106a836000846110f4565b505050565b6000808273ffffffffffffffffffffffffffffffffffffffff163b119050919050565b600060019054906101000a900460ff166110e1576040517f08c379a00000000000000000000000000000000000000000000000000000000081526004016110d890611ce7565b60405180910390fd5b6110eb82826110f9565b5050565b505050565b505050565b600060019054906101000a900460ff16611148576040517f08c379a000000000000000000000000000000000000000000000000000000000815260040161113f90611ce7565b60405180910390fd5b816036908051906020019061115e92919061117a565b50806037908051906020019061117592919061117a565b505050565b82805461118690611564565b90600052602060002090601f0160209004810192826111a857600085556111ef565b82601f106111c157805160ff19168380011785556111ef565b828001600101855582156111ef579182015b828111156111ee5782518255916020019190600101906111d3565b5b5090506111fc9190611200565b5090565b5b80821115611219576000816000905550600101611201565b5090565b600081519050919050565b600082825260208201905092915050565b60005b8381101561125757808201518184015260208101905061123c565b83811115611266576000848401525b50505050565b6000601f19601f8301169050919050565b60006112888261121d565b6112928185611228565b93506112a2818560208601611239565b6112ab8161126c565b840191505092915050565b600060208201905081810360008301526112d0818461127d565b905092915050565b600080fd5b600073ffffffffffffffffffffffffffffffffffffffff82169050919050565b6000611308826112dd565b9050919050565b611318816112fd565b811461132357600080fd5b50565b6000813590506113358161130f565b92915050565b6000819050919050565b61134e8161133b565b811461135957600080fd5b50565b60008135905061136b81611345565b92915050565b60008060408385031215611388576113876112d8565b5b600061139685828601611326565b92505060206113a78582860161135c565b9150509250929050565b60008115159050919050565b6113c6816113b1565b82525050565b60006020820190506113e160008301846113bd565b92915050565b6113f08161133b565b82525050565b600060208201905061140b60008301846113e7565b92915050565b60008060006060848603121561142a576114296112d8565b5b600061143886828701611326565b935050602061144986828701611326565b925050604061145a8682870161135c565b9150509250925092565b600060ff82169050919050565b61147a81611464565b82525050565b60006020820190506114956000830184611471565b92915050565b6000602082840312156114b1576114b06112d8565b5b60006114bf8482850161135c565b91505092915050565b6000602082840312156114de576114dd6112d8565b5b60006114ec84828501611326565b91505092915050565b6000806040838503121561150c5761150b6112d8565b5b600061151a85828601611326565b925050602061152b85828601611326565b9150509250929050565b7f4e487b7100000000000000000000000000000000000000000000000000000000600052602260045260246000fd5b6000600282049050600182168061157c57607f821691505b602082108114156115905761158f611535565b5b50919050565b7f4e487b7100000000000000000000000000000000000000000000000000000000600052601160045260246000fd5b60006115d08261133b565b91506115db8361133b565b9250827fffffffffffffffffffffffffffffffffffffffffffffffffffffffffffffffff038211156116105761160f611596565b5b828201905092915050565b7f496e697469616c697a61626c653a20636f6e747261637420697320616c72656160008201527f647920696e697469616c697a6564000000000000000000000000000000000000602082015250565b6000611677602e83611228565b91506116828261161b565b604082019050919050565b600060208201905081810360008301526116a68161166a565b9050919050565b6000819050919050565b6000819050919050565b60006116dc6116d76116d2846116ad565b6116b7565b611464565b9050919050565b6116ec816116c1565b82525050565b600060208201905061170760008301846116e3565b92915050565b7f45524332303a2064656372656173656420616c6c6f77616e63652062656c6f7760008201527f207a65726f000000000000000000000000000000000000000000000000000000602082015250565b6000611769602583611228565b91506117748261170d565b604082019050919050565b600060208201905081810360008301526117988161175c565b9050919050565b7f45524332303a20617070726f76652066726f6d20746865207a65726f2061646460008201527f7265737300000000000000000000000000000000000000000000000000000000602082015250565b60006117fb602483611228565b91506118068261179f565b604082019050919050565b6000602082019050818103600083015261182a816117ee565b9050919050565b7f45524332303a20617070726f766520746f20746865207a65726f20616464726560008201527f7373000000000000000000000000000000000000000000000000000000000000602082015250565b600061188d602283611228565b915061189882611831565b604082019050919050565b600060208201905081810360008301526118bc81611880565b9050919050565b7f45524332303a20696e73756666696369656e7420616c6c6f77616e6365000000600082015250565b60006118f9601d83611228565b9150611904826118c3565b602082019050919050565b60006020820190508181036000830152611928816118ec565b9050919050565b7f45524332303a207472616e736665722066726f6d20746865207a65726f20616460008201527f6472657373000000000000000000000000000000000000000000000000000000602082015250565b600061198b602583611228565b91506119968261192f565b604082019050919050565b600060208201905081810360008301526119ba8161197e565b9050919050565b7f45524332303a207472616e7366657220746f20746865207a65726f206164647260008201527f6573730000000000000000000000000000000000000000000000000000000000602082015250565b6000611a1d602383611228565b9150611a28826119c1565b604082019050919050565b60006020820190508181036000830152611a4c81611a10565b9050919050565b7f45524332303a207472616e7366657220616d6f756e742065786365656473206260008201527f616c616e63650000000000000000000000000000000000000000000000000000602082015250565b6000611aaf602683611228565b9150611aba82611a53565b604082019050919050565b60006020820190508181036000830152611ade81611aa2565b9050919050565b7f45524332303a206d696e7420746f20746865207a65726f206164647265737300600082015250565b6000611b1b601f83611228565b9150611b2682611ae5565b602082019050919050565b60006020820190508181036000830152611b4a81611b0e565b9050919050565b7f45524332303a206275726e2066726f6d20746865207a65726f2061646472657360008201527f7300000000000000000000000000000000000000000000000000000000000000602082015250565b6000611bad602183611228565b9150611bb882611b51565b604082019050919050565b60006020820190508181036000830152611bdc81611ba0565b9050919050565b7f45524332303a206275726e20616d6f756e7420657863656564732062616c616e60008201527f6365000000000000000000000000000000000000000000000000000000000000602082015250565b6000611c3f602283611228565b9150611c4a82611be3565b604082019050919050565b60006020820190508181036000830152611c6e81611c32565b9050919050565b7f496e697469616c697a61626c653a20636f6e7472616374206973206e6f74206960008201527f6e697469616c697a696e67000000000000000000000000000000000000000000602082015250565b6000611cd1602b83611228565b9150611cdc82611c75565b604082019050919050565b60006020820190508181036000830152611d0081611cc4565b905091905056fea2646970667358221220311dcb078d0516f41cd888618a09bd44ad1522dd5fd94e6ca4550ac5a813f4c664736f6c634300080a0033",
  "linkReferences": {},
  "deployedLinkReferences": {}
}