{
  "_format": "hh-sol-artifact-1",
  "contractName": "StakingContract",
  "sourceName": "contracts/StakeContract.sol",
  "abi": [
    {
      "inputs": [
        {
          "internalType": "uint256",
          "name": "_newRewardAmount",
          "type": "uint256"
        }
      ],
      "name": "changeRewardAmount",
      "outputs": [],
      "stateMutability": "nonpayable",
      "type": "function"
    },
    {
      "inputs": [
        {
          "internalType": "uint256",
          "name": "_newStakingDuration",
          "type": "uint256"
        }
      ],
      "name": "changeStakingDuration",
      "outputs": [],
      "stateMutability": "nonpayable",
      "type": "function"
    },
    {
      "inputs": [
        {
          "internalType": "uint256",
          "name": "tokenId",
          "type": "uint256"
        }
      ],
      "name": "depositNFT",
      "outputs": [],
      "stateMutability": "nonpayable",
      "type": "function"
    },
    {
      "inputs": [
        {
          "internalType": "uint256",
          "name": "tokenId",
          "type": "uint256"
        }
      ],
      "name": "getNFT",
      "outputs": [],
      "stateMutability": "nonpayable",
      "type": "function"
    },
    {
      "inputs": [
        {
          "internalType": "address",
          "name": "_stakingNFTAddress",
          "type": "address"
        },
        {
          "internalType": "address",
          "name": "_erc20TokenAddress",
          "type": "address"
        }
      ],
      "name": "initialize",
      "outputs": [],
      "stateMutability": "nonpayable",
      "type": "function"
    },
    {
      "inputs": [
        {
          "internalType": "uint256",
          "name": "",
          "type": "uint256"
        }
      ],
      "name": "isDeposited",
      "outputs": [
        {
          "internalType": "bool",
          "name": "",
          "type": "bool"
        }
      ],
      "stateMutability": "view",
      "type": "function"
    },
    {
      "inputs": [
        {
          "internalType": "uint256",
          "name": "",
          "type": "uint256"
        }
      ],
      "name": "originalOwner",
      "outputs": [
        {
          "internalType": "address",
          "name": "",
          "type": "address"
        }
      ],
      "stateMutability": "view",
      "type": "function"
    },
    {
      "inputs": [],
      "name": "rewardAmount",
      "outputs": [
        {
          "internalType": "uint256",
          "name": "",
          "type": "uint256"
        }
      ],
      "stateMutability": "view",
      "type": "function"
    },
    {
      "inputs": [],
      "name": "stakingDuration",
      "outputs": [
        {
          "internalType": "uint256",
          "name": "",
          "type": "uint256"
        }
      ],
      "stateMutability": "view",
      "type": "function"
    },
    {
      "inputs": [
        {
          "internalType": "address",
          "name": "",
          "type": "address"
        }
      ],
      "name": "stakingTimestamp",
      "outputs": [
        {
          "internalType": "uint256",
          "name": "",
          "type": "uint256"
        }
      ],
      "stateMutability": "view",
      "type": "function"
    },
    {
      "inputs": [
        {
          "internalType": "uint256",
          "name": "tokenId",
          "type": "uint256"
        }
      ],
      "name": "withdrawNFT",
      "outputs": [],
      "stateMutability": "nonpayable",
      "type": "function"
    },
    {
      "inputs": [
        {
          "internalType": "uint256",
          "name": "tokenId",
          "type": "uint256"
        }
      ],
      "name": "withdrawTokens",
      "outputs": [],
      "stateMutability": "nonpayable",
      "type": "function"
    }
  ],
  "bytecode": "0x608060405262015180600355678ac7230489e8000060045534801561002357600080fd5b50611673806100336000396000f3fe608060405234801561001057600080fd5b50600436106100b45760003560e01c80638005a7de116100715780638005a7de146101895780638f0794fe146101a7578063ad245bf4146101d7578063b93833c3146101f3578063e91a7ca61461020f578063f7b2a7be1461022b576100b4565b8063023245d7146100b95780632ed0dac2146100d5578063315a095d1461010557806340bb154d14610121578063485cc95514610151578063576f7ea71461016d575b600080fd5b6100d360048036038101906100ce9190610f06565b610249565b005b6100ef60048036038101906100ea9190610f06565b61040e565b6040516100fc9190610f4e565b60405180910390f35b61011f600480360381019061011a9190610f06565b61042e565b005b61013b60048036038101906101369190610f06565b610716565b6040516101489190610faa565b60405180910390f35b61016b60048036038101906101669190610ff1565b610749565b005b61018760048036038101906101829190610f06565b61080f565b005b610191610cb8565b60405161019e9190611040565b60405180910390f35b6101c160048036038101906101bc919061105b565b610cbe565b6040516101ce9190611040565b60405180910390f35b6101f160048036038101906101ec9190610f06565b610cd6565b005b61020d60048036038101906102089190610f06565b610ce0565b005b61022960048036038101906102249190610f06565b610cea565b005b610233610ec5565b6040516102409190611040565b60405180910390f35b3373ffffffffffffffffffffffffffffffffffffffff1660008054906101000a900473ffffffffffffffffffffffffffffffffffffffff1673ffffffffffffffffffffffffffffffffffffffff16636352211e836040518263ffffffff1660e01b81526004016102b99190611040565b602060405180830381865afa1580156102d6573d6000803e3d6000fd5b505050506040513d601f19601f820116820180604052508101906102fa919061109d565b73ffffffffffffffffffffffffffffffffffffffff1614610350576040517f08c379a000000000000000000000000000000000000000000000000000000000815260040161034790611127565b60405180910390fd5b60006006600083815260200190815260200160002060006101000a81548160ff02191690831515021790555060008054906101000a900473ffffffffffffffffffffffffffffffffffffffff1673ffffffffffffffffffffffffffffffffffffffff166342842e0e3033846040518463ffffffff1660e01b81526004016103d993929190611147565b600060405180830381600087803b1580156103f357600080fd5b505af1158015610407573d6000803e3d6000fd5b5050505050565b60066020528060005260406000206000915054906101000a900460ff1681565b3373ffffffffffffffffffffffffffffffffffffffff1660008054906101000a900473ffffffffffffffffffffffffffffffffffffffff1673ffffffffffffffffffffffffffffffffffffffff16636352211e836040518263ffffffff1660e01b815260040161049e9190611040565b602060405180830381865afa1580156104bb573d6000803e3d6000fd5b505050506040513d601f19601f820116820180604052508101906104df919061109d565b73ffffffffffffffffffffffffffffffffffffffff1614610535576040517f08c379a000000000000000000000000000000000000000000000000000000000815260040161052c90611127565b60405180910390fd5b600060058060003373ffffffffffffffffffffffffffffffffffffffff1673ffffffffffffffffffffffffffffffffffffffff168152602001908152602001600020544261058391906111ad565b61058d9190611210565b9050600081116105d2576040517f08c379a00000000000000000000000000000000000000000000000000000000081526004016105c99061128d565b60405180910390fd5b6006600083815260200190815260200160002060009054906101000a900460ff16610632576040517f08c379a0000000000000000000000000000000000000000000000000000000008152600401610629906112f9565b60405180910390fd5b600160009054906101000a900473ffffffffffffffffffffffffffffffffffffffff1673ffffffffffffffffffffffffffffffffffffffff166340c10f19338360045461067f9190611319565b6040518363ffffffff1660e01b815260040161069c929190611373565b600060405180830381600087803b1580156106b657600080fd5b505af11580156106ca573d6000803e3d6000fd5b5050505042600560003373ffffffffffffffffffffffffffffffffffffffff1673ffffffffffffffffffffffffffffffffffffffff168152602001908152602001600020819055505050565b60076020528060005260406000206000915054906101000a900473ffffffffffffffffffffffffffffffffffffffff1681565b816000806101000a81548173ffffffffffffffffffffffffffffffffffffffff021916908373ffffffffffffffffffffffffffffffffffffffff16021790555080600160006101000a81548173ffffffffffffffffffffffffffffffffffffffff021916908373ffffffffffffffffffffffffffffffffffffffff16021790555033600260006101000a81548173ffffffffffffffffffffffffffffffffffffffff021916908373ffffffffffffffffffffffffffffffffffffffff1602179055505050565b3373ffffffffffffffffffffffffffffffffffffffff1660008054906101000a900473ffffffffffffffffffffffffffffffffffffffff1673ffffffffffffffffffffffffffffffffffffffff16636352211e836040518263ffffffff1660e01b815260040161087f9190611040565b602060405180830381865afa15801561089c573d6000803e3d6000fd5b505050506040513d601f19601f820116820180604052508101906108c0919061109d565b73ffffffffffffffffffffffffffffffffffffffff161415610917576040517f08c379a000000000000000000000000000000000000000000000000000000000815260040161090e906113e8565b60405180910390fd5b42600354600560003373ffffffffffffffffffffffffffffffffffffffff1673ffffffffffffffffffffffffffffffffffffffff168152602001908152602001600020546109659190611408565b11156109a6576040517f08c379a000000000000000000000000000000000000000000000000000000000815260040161099d906114aa565b60405180910390fd5b600454600160009054906101000a900473ffffffffffffffffffffffffffffffffffffffff1673ffffffffffffffffffffffffffffffffffffffff166370a08231336040518263ffffffff1660e01b8152600401610a049190610faa565b6020604051808303816000875af1158015610a23573d6000803e3d6000fd5b505050506040513d601f19601f82011682018060405250810190610a4791906114df565b1015610a88576040517f08c379a0000000000000000000000000000000000000000000000000000000008152600401610a7f90611558565b60405180910390fd5b600160009054906101000a900473ffffffffffffffffffffffffffffffffffffffff1673ffffffffffffffffffffffffffffffffffffffff1663d77301c233306004546040518463ffffffff1660e01b8152600401610ae993929190611147565b600060405180830381600087803b158015610b0357600080fd5b505af1158015610b17573d6000803e3d6000fd5b50505050600160009054906101000a900473ffffffffffffffffffffffffffffffffffffffff1673ffffffffffffffffffffffffffffffffffffffff166323b872dd33306004546040518463ffffffff1660e01b8152600401610b7c93929190611147565b6020604051808303816000875af1158015610b9b573d6000803e3d6000fd5b505050506040513d601f19601f82011682018060405250810190610bbf91906115a4565b5060008054906101000a900473ffffffffffffffffffffffffffffffffffffffff1673ffffffffffffffffffffffffffffffffffffffff166342842e0e600260009054906101000a900473ffffffffffffffffffffffffffffffffffffffff1633846040518463ffffffff1660e01b8152600401610c3f93929190611147565b600060405180830381600087803b158015610c5957600080fd5b505af1158015610c6d573d6000803e3d6000fd5b5050505042600560003373ffffffffffffffffffffffffffffffffffffffff1673ffffffffffffffffffffffffffffffffffffffff1681526020019081526020016000208190555050565b60035481565b60056020528060005260406000206000915090505481565b8060038190555050565b8060048190555050565b3373ffffffffffffffffffffffffffffffffffffffff1660008054906101000a900473ffffffffffffffffffffffffffffffffffffffff1673ffffffffffffffffffffffffffffffffffffffff16636352211e836040518263ffffffff1660e01b8152600401610d5a9190611040565b602060405180830381865afa158015610d77573d6000803e3d6000fd5b505050506040513d601f19601f82011682018060405250810190610d9b919061109d565b73ffffffffffffffffffffffffffffffffffffffff1614610df1576040517f08c379a0000000000000000000000000000000000000000000000000000000008152600401610de890611127565b60405180910390fd5b6006600082815260200190815260200160002060009054906101000a900460ff1615610e52576040517f08c379a0000000000000000000000000000000000000000000000000000000008152600401610e499061161d565b60405180910390fd5b60016006600083815260200190815260200160002060006101000a81548160ff02191690831515021790555042600560003373ffffffffffffffffffffffffffffffffffffffff1673ffffffffffffffffffffffffffffffffffffffff1681526020019081526020016000208190555050565b60045481565b600080fd5b6000819050919050565b610ee381610ed0565b8114610eee57600080fd5b50565b600081359050610f0081610eda565b92915050565b600060208284031215610f1c57610f1b610ecb565b5b6000610f2a84828501610ef1565b91505092915050565b60008115159050919050565b610f4881610f33565b82525050565b6000602082019050610f636000830184610f3f565b92915050565b600073ffffffffffffffffffffffffffffffffffffffff82169050919050565b6000610f9482610f69565b9050919050565b610fa481610f89565b82525050565b6000602082019050610fbf6000830184610f9b565b92915050565b610fce81610f89565b8114610fd957600080fd5b50565b600081359050610feb81610fc5565b92915050565b6000806040838503121561100857611007610ecb565b5b600061101685828601610fdc565b925050602061102785828601610fdc565b9150509250929050565b61103a81610ed0565b82525050565b60006020820190506110556000830184611031565b92915050565b60006020828403121561107157611070610ecb565b5b600061107f84828501610fdc565b91505092915050565b60008151905061109781610fc5565b92915050565b6000602082840312156110b3576110b2610ecb565b5b60006110c184828501611088565b91505092915050565b600082825260208201905092915050565b7f596f7520646f206e6f74206f776e2074686973204e4654000000000000000000600082015250565b60006111116017836110ca565b915061111c826110db565b602082019050919050565b6000602082019050818103600083015261114081611104565b9050919050565b600060608201905061115c6000830186610f9b565b6111696020830185610f9b565b6111766040830184611031565b949350505050565b7f4e487b7100000000000000000000000000000000000000000000000000000000600052601160045260246000fd5b60006111b882610ed0565b91506111c383610ed0565b9250828210156111d6576111d561117e565b5b828203905092915050565b7f4e487b7100000000000000000000000000000000000000000000000000000000600052601260045260246000fd5b600061121b82610ed0565b915061122683610ed0565b925082611236576112356111e1565b5b828204905092915050565b7f5769746864726177616c206e6f7420617661696c61626c652079657400000000600082015250565b6000611277601c836110ca565b915061128282611241565b602082019050919050565b600060208201905081810360008301526112a68161126a565b9050919050565b7f596f75206d757374206465706f73697420796f7572204e465420666972737400600082015250565b60006112e3601f836110ca565b91506112ee826112ad565b602082019050919050565b60006020820190508181036000830152611312816112d6565b9050919050565b600061132482610ed0565b915061132f83610ed0565b9250817fffffffffffffffffffffffffffffffffffffffffffffffffffffffffffffffff04831182151516156113685761136761117e565b5b828202905092915050565b60006040820190506113886000830185610f9b565b6113956020830184611031565b9392505050565b7f596f7520616c7265616479206f776e2074686973204e46540000000000000000600082015250565b60006113d26018836110ca565b91506113dd8261139c565b602082019050919050565b60006020820190508181036000830152611401816113c5565b9050919050565b600061141382610ed0565b915061141e83610ed0565b9250827fffffffffffffffffffffffffffffffffffffffffffffffffffffffffffffffff038211156114535761145261117e565b5b828201905092915050565b7f5374616b696e67206e6f7420617661696c61626c652079657400000000000000600082015250565b60006114946019836110ca565b915061149f8261145e565b602082019050919050565b600060208201905081810360008301526114c381611487565b9050919050565b6000815190506114d981610eda565b92915050565b6000602082840312156114f5576114f4610ecb565b5b6000611503848285016114ca565b91505092915050565b7f4e6f7420656e6f7567682062616c616e63650000000000000000000000000000600082015250565b60006115426012836110ca565b915061154d8261150c565b602082019050919050565b6000602082019050818103600083015261157181611535565b9050919050565b61158181610f33565b811461158c57600080fd5b50565b60008151905061159e81611578565b92915050565b6000602082840312156115ba576115b9610ecb565b5b60006115c88482850161158f565b91505092915050565b7f596f7520616c7265616479206465706f73697465642074686973204e46540000600082015250565b6000611607601e836110ca565b9150611612826115d1565b602082019050919050565b60006020820190508181036000830152611636816115fa565b905091905056fea26469706673582212205f64a48e203477f494b1eaa6dc817a143227fdf2e7f00933ed4061ee1671720a64736f6c634300080a0033",
  "linkReferences": {},
  "deployedLinkReferences": {}
}