{
  "_format": "hh-sol-artifact-1",
  "contractName": "ChainBattles",
  "sourceName": "contracts/ChainBattles.sol",
  "abi": [
    {
      "inputs": [
        {
          "internalType": "address",
          "name": "_consumer",
          "type": "address"
        }
      ],
      "stateMutability": "nonpayable",
      "type": "constructor"
    },
    {
      "anonymous": false,
      "inputs": [
        {
          "indexed": true,
          "internalType": "address",
          "name": "owner",
          "type": "address"
        },
        {
          "indexed": true,
          "internalType": "address",
          "name": "approved",
          "type": "address"
        },
        {
          "indexed": true,
          "internalType": "uint256",
          "name": "tokenId",
          "type": "uint256"
        }
      ],
      "name": "Approval",
      "type": "event"
    },
    {
      "anonymous": false,
      "inputs": [
        {
          "indexed": true,
          "internalType": "address",
          "name": "owner",
          "type": "address"
        },
        {
          "indexed": true,
          "internalType": "address",
          "name": "operator",
          "type": "address"
        },
        {
          "indexed": false,
          "internalType": "bool",
          "name": "approved",
          "type": "bool"
        }
      ],
      "name": "ApprovalForAll",
      "type": "event"
    },
    {
      "anonymous": false,
      "inputs": [
        {
          "indexed": false,
          "internalType": "uint256",
          "name": "_fromTokenId",
          "type": "uint256"
        },
        {
          "indexed": false,
          "internalType": "uint256",
          "name": "_toTokenId",
          "type": "uint256"
        }
      ],
      "name": "BatchMetadataUpdate",
      "type": "event"
    },
    {
      "anonymous": false,
      "inputs": [
        {
          "indexed": false,
          "internalType": "uint256",
          "name": "_tokenId",
          "type": "uint256"
        }
      ],
      "name": "MetadataUpdate",
      "type": "event"
    },
    {
      "anonymous": false,
      "inputs": [
        {
          "indexed": true,
          "internalType": "address",
          "name": "from",
          "type": "address"
        },
        {
          "indexed": true,
          "internalType": "address",
          "name": "to",
          "type": "address"
        },
        {
          "indexed": true,
          "internalType": "uint256",
          "name": "tokenId",
          "type": "uint256"
        }
      ],
      "name": "Transfer",
      "type": "event"
    },
    {
      "inputs": [
        {
          "internalType": "address",
          "name": "to",
          "type": "address"
        },
        {
          "internalType": "uint256",
          "name": "tokenId",
          "type": "uint256"
        }
      ],
      "name": "approve",
      "outputs": [],
      "stateMutability": "nonpayable",
      "type": "function"
    },
    {
      "inputs": [
        {
          "internalType": "address",
          "name": "owner",
          "type": "address"
        }
      ],
      "name": "balanceOf",
      "outputs": [
        {
          "internalType": "uint256",
          "name": "",
          "type": "uint256"
        }
      ],
      "stateMutability": "view",
      "type": "function"
    },
    {
      "inputs": [
        {
          "internalType": "uint256",
          "name": "tokenId",
          "type": "uint256"
        }
      ],
      "name": "generateCharacter",
      "outputs": [
        {
          "internalType": "string",
          "name": "",
          "type": "string"
        }
      ],
      "stateMutability": "view",
      "type": "function"
    },
    {
      "inputs": [
        {
          "internalType": "uint256",
          "name": "tokenId",
          "type": "uint256"
        }
      ],
      "name": "getApproved",
      "outputs": [
        {
          "internalType": "address",
          "name": "",
          "type": "address"
        }
      ],
      "stateMutability": "view",
      "type": "function"
    },
    {
      "inputs": [
        {
          "internalType": "uint256",
          "name": "tokenId",
          "type": "uint256"
        }
      ],
      "name": "getTracker",
      "outputs": [
        {
          "components": [
            {
              "internalType": "uint256",
              "name": "levels",
              "type": "uint256"
            },
            {
              "internalType": "uint256",
              "name": "hp",
              "type": "uint256"
            },
            {
              "internalType": "uint256",
              "name": "strength",
              "type": "uint256"
            },
            {
              "internalType": "uint256",
              "name": "speed",
              "type": "uint256"
            }
          ],
          "internalType": "struct ChainBattles.Tracker",
          "name": "",
          "type": "tuple"
        }
      ],
      "stateMutability": "view",
      "type": "function"
    },
    {
      "inputs": [
        {
          "internalType": "address",
          "name": "owner",
          "type": "address"
        },
        {
          "internalType": "address",
          "name": "operator",
          "type": "address"
        }
      ],
      "name": "isApprovedForAll",
      "outputs": [
        {
          "internalType": "bool",
          "name": "",
          "type": "bool"
        }
      ],
      "stateMutability": "view",
      "type": "function"
    },
    {
      "inputs": [],
      "name": "mint",
      "outputs": [],
      "stateMutability": "nonpayable",
      "type": "function"
    },
    {
      "inputs": [],
      "name": "name",
      "outputs": [
        {
          "internalType": "string",
          "name": "",
          "type": "string"
        }
      ],
      "stateMutability": "view",
      "type": "function"
    },
    {
      "inputs": [
        {
          "internalType": "uint256",
          "name": "tokenId",
          "type": "uint256"
        }
      ],
      "name": "ownerOf",
      "outputs": [
        {
          "internalType": "address",
          "name": "",
          "type": "address"
        }
      ],
      "stateMutability": "view",
      "type": "function"
    },
    {
      "inputs": [
        {
          "internalType": "address",
          "name": "from",
          "type": "address"
        },
        {
          "internalType": "address",
          "name": "to",
          "type": "address"
        },
        {
          "internalType": "uint256",
          "name": "tokenId",
          "type": "uint256"
        }
      ],
      "name": "safeTransferFrom",
      "outputs": [],
      "stateMutability": "nonpayable",
      "type": "function"
    },
    {
      "inputs": [
        {
          "internalType": "address",
          "name": "from",
          "type": "address"
        },
        {
          "internalType": "address",
          "name": "to",
          "type": "address"
        },
        {
          "internalType": "uint256",
          "name": "tokenId",
          "type": "uint256"
        },
        {
          "internalType": "bytes",
          "name": "data",
          "type": "bytes"
        }
      ],
      "name": "safeTransferFrom",
      "outputs": [],
      "stateMutability": "nonpayable",
      "type": "function"
    },
    {
      "inputs": [
        {
          "internalType": "address",
          "name": "operator",
          "type": "address"
        },
        {
          "internalType": "bool",
          "name": "approved",
          "type": "bool"
        }
      ],
      "name": "setApprovalForAll",
      "outputs": [],
      "stateMutability": "nonpayable",
      "type": "function"
    },
    {
      "inputs": [
        {
          "internalType": "bytes4",
          "name": "interfaceId",
          "type": "bytes4"
        }
      ],
      "name": "supportsInterface",
      "outputs": [
        {
          "internalType": "bool",
          "name": "",
          "type": "bool"
        }
      ],
      "stateMutability": "view",
      "type": "function"
    },
    {
      "inputs": [],
      "name": "symbol",
      "outputs": [
        {
          "internalType": "string",
          "name": "",
          "type": "string"
        }
      ],
      "stateMutability": "view",
      "type": "function"
    },
    {
      "inputs": [
        {
          "internalType": "uint256",
          "name": "index",
          "type": "uint256"
        }
      ],
      "name": "tokenByIndex",
      "outputs": [
        {
          "internalType": "uint256",
          "name": "",
          "type": "uint256"
        }
      ],
      "stateMutability": "view",
      "type": "function"
    },
    {
      "inputs": [
        {
          "internalType": "uint256",
          "name": "",
          "type": "uint256"
        }
      ],
      "name": "tokenIdToLevels",
      "outputs": [
        {
          "internalType": "uint256",
          "name": "levels",
          "type": "uint256"
        },
        {
          "internalType": "uint256",
          "name": "hp",
          "type": "uint256"
        },
        {
          "internalType": "uint256",
          "name": "strength",
          "type": "uint256"
        },
        {
          "internalType": "uint256",
          "name": "speed",
          "type": "uint256"
        }
      ],
      "stateMutability": "view",
      "type": "function"
    },
    {
      "inputs": [
        {
          "internalType": "address",
          "name": "owner",
          "type": "address"
        },
        {
          "internalType": "uint256",
          "name": "index",
          "type": "uint256"
        }
      ],
      "name": "tokenOfOwnerByIndex",
      "outputs": [
        {
          "internalType": "uint256",
          "name": "",
          "type": "uint256"
        }
      ],
      "stateMutability": "view",
      "type": "function"
    },
    {
      "inputs": [
        {
          "internalType": "uint256",
          "name": "tokenId",
          "type": "uint256"
        }
      ],
      "name": "tokenURI",
      "outputs": [
        {
          "internalType": "string",
          "name": "",
          "type": "string"
        }
      ],
      "stateMutability": "view",
      "type": "function"
    },
    {
      "inputs": [],
      "name": "totalSupply",
      "outputs": [
        {
          "internalType": "uint256",
          "name": "",
          "type": "uint256"
        }
      ],
      "stateMutability": "view",
      "type": "function"
    },
    {
      "inputs": [
        {
          "internalType": "uint256",
          "name": "tokenId",
          "type": "uint256"
        }
      ],
      "name": "train",
      "outputs": [],
      "stateMutability": "nonpayable",
      "type": "function"
    },
    {
      "inputs": [
        {
          "internalType": "address",
          "name": "from",
          "type": "address"
        },
        {
          "internalType": "address",
          "name": "to",
          "type": "address"
        },
        {
          "internalType": "uint256",
          "name": "tokenId",
          "type": "uint256"
        }
      ],
      "name": "transferFrom",
      "outputs": [],
      "stateMutability": "nonpayable",
      "type": "function"
    }
  ],
  "bytecode": "0x60806040523480156200001157600080fd5b5060405162003102380380620031028339810160408190526200003491620001a6565b604080518082018252600d81526c436861696e20426174746c657360981b6020808301918252835180850190945260058452644342544c5360d81b9084015281519192916200008691600091620000c6565b5080516200009c906001906020840190620000c6565b5050600b80546001600160a01b0319166001600160a01b039390931692909217909155506200021a565b828054620000d490620001e9565b90600052602060002090601f016020900481019282620000f8576000855562000143565b82601f106200011357805160ff191683800117855562000143565b8280016001018555821562000143579182015b828111156200014357825182559160200191906001019062000126565b506200015192915062000155565b5090565b5b8082111562000151576000815560010162000156565b60006001600160a01b0382165b92915050565b6200018a816200016c565b81146200019657600080fd5b50565b805162000179816200017f565b600060208284031215620001bd57620001bd600080fd5b6000620001cb848462000199565b949350505050565b634e487b7160e01b600052602260045260246000fd5b600281046001821680620001fe57607f821691505b60208210811415620002145762000214620001d3565b50919050565b612ed8806200022a6000396000f3fe608060405234801561001057600080fd5b50600436106101775760003560e01c806342842e0e116100d8578063a22cb4651161008c578063c6a4342f11610066578063c6a4342f146102ee578063c87b56dd14610333578063e985e9c51461034657600080fd5b8063a22cb465146102a8578063b88d4fde146102bb578063c3a83344146102ce57600080fd5b80636352211e116100bd5780636352211e1461027a57806370a082311461028d57806395d89b41146102a057600080fd5b806342842e0e146102545780634f6ccce71461026757600080fd5b80631249c58b1161012f57806323b872dd1161011457806323b872dd1461021b5780632f745c591461022e578063368004ed1461024157600080fd5b80631249c58b1461020257806318160ddd1461020a57600080fd5b8063081812fc11610160578063081812fc146101ba578063095ea7b3146101da5780630daefed5146101ef57600080fd5b806301ffc9a71461017c57806306fdde03146101a5575b600080fd5b61018f61018a3660046119bf565b610382565b60405161019c91906119ea565b60405180910390f35b6101ad610393565b60405161019c9190611a56565b6101cd6101c8366004611a7f565b610425565b60405161019c9190611aba565b6101ed6101e8366004611adc565b61044c565b005b6101ad6101fd366004611a7f565b6104db565b6101ed6105a6565b6009545b60405161019c9190611b1f565b6101ed610229366004611b2d565b6105e0565b61020e61023c366004611adc565b610611565b6101ed61024f366004611a7f565b610663565b6101ed610262366004611b2d565b610950565b61020e610275366004611a7f565b61096b565b6101cd610288366004611a7f565b6109b9565b61020e61029b366004611b7d565b6109ee565b6101ad610a32565b6101ed6102b6366004611bb1565b610a41565b6101ed6102c9366004611cd7565b610a50565b6102e16102dc366004611a7f565b610a88565b60405161019c9190611d9b565b6103236102fc366004611a7f565b600d6020526000908152604090208054600182015460028301546003909301549192909184565b60405161019c9493929190611da9565b6101ad610341366004611a7f565b610af8565b61018f610354366004611de7565b6001600160a01b03918216600090815260056020908152604080832093909416825291909152205460ff1690565b600061038d82610b60565b92915050565b6060600080546103a290611e30565b80601f01602080910402602001604051908101604052809291908181526020018280546103ce90611e30565b801561041b5780601f106103f05761010080835404028352916020019161041b565b820191906000526020600020905b8154815290600101906020018083116103fe57829003601f168201915b5050505050905090565b600061043082610b9e565b506000908152600460205260409020546001600160a01b031690565b6000610457826109b9565b9050806001600160a01b0316836001600160a01b031614156104945760405162461bcd60e51b815260040161048b90611eb7565b60405180910390fd5b336001600160a01b03821614806104b057506104b08133610354565b6104cc5760405162461bcd60e51b815260040161048b90611f1f565b6104d68383610bd2565b505050565b6000818152600d60209081526040808320815160808101835281548082526001830154948201949094526002820154928101929092526003015460608281019190915292909161052a90610c4d565b6105378360200151610c4d565b6105448460400151610c4d565b6105518560600151610c4d565b604051602001610564949392919061223b565b604051602081830303815290604052905061057e81610cf7565b60405160200161058e91906124c8565b60405160208183030381529060405292505050919050565b6105b4600c80546001019055565b60006105bf600c5490565b90506105cb3382610e4b565b6105dd816105d883610af8565b610e65565b50565b6105ea3382610ef4565b6106065760405162461bcd60e51b815260040161048b90612554565b6104d6838383610f73565b600061061c836109ee565b821061063a5760405162461bcd60e51b815260040161048b906125bc565b506001600160a01b03919091166000908152600760209081526040808320938352929052205490565b6000818152600260205260409020546001600160a01b03166106975760405162461bcd60e51b815260040161048b90612600565b336106a1826109b9565b6001600160a01b0316146106c75760405162461bcd60e51b815260040161048b90612668565b60006106d2600c5490565b90506000600b60009054906101000a90046001600160a01b03166001600160a01b031663e0c862896040518163ffffffff1660e01b8152600401602060405180830381600087803b15801561072657600080fd5b505af115801561073a573d6000803e3d6000fd5b505050506040513d601f19601f8201168201806040525081019061075e9190612683565b600b546040517fd8a4676f00000000000000000000000000000000000000000000000000000000815291925060009182916001600160a01b03169063d8a4676f906107ad908690600401611b1f565b60006040518083038186803b1580156107c557600080fd5b505afa1580156107d9573d6000803e3d6000fd5b505050506040513d6000823e601f3d908101601f191682016040526108019190810190612750565b91509150600a8160008151811061081a5761081a61279e565b602002602001015161082c91906127ca565b6000858152600d602052604090206001908101919091558151600a91839181106108585761085861279e565b602002602001015161086a91906127ca565b6000858152600d60205260409020558051600a90829060029081106108915761089161279e565b60200260200101516108a391906127ca565b6000858152600d602052604090206003908101919091558151600a91839181106108cf576108cf61279e565b60200260200101516108e191906127ca565b6000858152600d6020818152604080842060028101959095558051808201909152601281527f747261636b6572206c6576656c733a2025640000000000000000000000000000818301529288905252905461093c91906110b5565b610949846105d886610af8565b5050505050565b6104d683838360405180602001604052806000815250610a50565b600061097660095490565b82106109945760405162461bcd60e51b815260040161048b90612836565b600982815481106109a7576109a761279e565b90600052602060002001549050919050565b6000818152600260205260408120546001600160a01b03168061038d5760405162461bcd60e51b815260040161048b90612878565b60006001600160a01b038216610a165760405162461bcd60e51b815260040161048b906128e0565b506001600160a01b031660009081526003602052604090205490565b6060600180546103a290611e30565b610a4c338383611128565b5050565b610a5a3383610ef4565b610a765760405162461bcd60e51b815260040161048b90612554565b610a82848484846111e9565b50505050565b610ab36040518060800160405280600081526020016000815260200160008152602001600081525090565b506000908152600d6020908152604091829020825160808101845281548152600182015492810192909252600281015492820192909252600390910154606082015290565b60606000610b0583610c4d565b610b0e846104db565b604051602001610b1f929190612992565b6040516020818303038152906040529050610b3981610cf7565b604051602001610b499190612a4c565b604051602081830303815290604052915050919050565b60006001600160e01b031982167f780e9d6300000000000000000000000000000000000000000000000000000000148061038d575061038d8261121c565b6000818152600260205260409020546001600160a01b03166105dd5760405162461bcd60e51b815260040161048b90612878565b6000818152600460205260409020805473ffffffffffffffffffffffffffffffffffffffff19166001600160a01b0384169081179091558190610c14826109b9565b6001600160a01b03167f8c5be1e5ebec7d5bd14f71427d1e84f3dd0314c0f7b2291e5b200ac8c7c3b92560405160405180910390a45050565b60606000610c5a8361125a565b600101905060008167ffffffffffffffff811115610c7a57610c7a611be4565b6040519080825280601f01601f191660200182016040528015610ca4576020820181803683370190505b5090508181016020015b600019017f3031323334353637383961626364656600000000000000000000000000000000600a86061a8153600a8504945084610cea57610cef565b610cae565b509392505050565b6060815160001415610d1757505060408051602081019091526000815290565b6000604051806060016040528060408152602001612e636040913990506000600384516002610d469190612a8e565b610d509190612aa6565b610d5b906004612aba565b67ffffffffffffffff811115610d7357610d73611be4565b6040519080825280601f01601f191660200182016040528015610d9d576020820181803683370190505b509050600182016020820185865187015b80821015610e09576003820191508151603f8160121c168501518453600184019350603f81600c1c168501518453600184019350603f8160061c168501518453600184019350603f8116850151845350600183019250610dae565b5050600386510660018114610e255760028114610e3857610e40565b603d6001830353603d6002830353610e40565b603d60018303535b509195945050505050565b610a4c82826040518060200160405280600081525061133c565b6000828152600260205260409020546001600160a01b0316610e995760405162461bcd60e51b815260040161048b90612b31565b60008281526006602090815260409091208251610eb892840190611904565b507ff8e1a15aba9398e019f0b49df1a4fde98ee17ae345cb5f6b5e2c27f5033e8ce782604051610ee89190611b1f565b60405180910390a15050565b600080610f00836109b9565b9050806001600160a01b0316846001600160a01b03161480610f4757506001600160a01b0380821660009081526005602090815260408083209388168352929052205460ff165b80610f6b5750836001600160a01b0316610f6084610425565b6001600160a01b0316145b949350505050565b826001600160a01b0316610f86826109b9565b6001600160a01b031614610fac5760405162461bcd60e51b815260040161048b90612b99565b6001600160a01b038216610fd25760405162461bcd60e51b815260040161048b90612c01565b610fdf838383600161136f565b826001600160a01b0316610ff2826109b9565b6001600160a01b0316146110185760405162461bcd60e51b815260040161048b90612b99565b6000818152600460209081526040808320805473ffffffffffffffffffffffffffffffffffffffff199081169091556001600160a01b0387811680865260038552838620805460001901905590871680865283862080546001019055868652600290945282852080549092168417909155905184937fddf252ad1be2c89b69c2b068fc378daa952ba7f163c4a11628f55a4df523b3ef91a4505050565b610a4c82826040516024016110cb929190612c11565b60408051601f198184030181529190526020810180517bffffffffffffffffffffffffffffffffffffffffffffffffffffffff167fb60e72cc0000000000000000000000000000000000000000000000000000000017905261137b565b816001600160a01b0316836001600160a01b0316141561115a5760405162461bcd60e51b815260040161048b90612c63565b6001600160a01b038381166000818152600560209081526040808320948716808452949091529081902080547fffffffffffffffffffffffffffffffffffffffffffffffffffffffffffffff0016851515179055517f17307eab39ab6107e8899845ad3d59bd9653f200f220920489ca2b5937696c31906111dc9085906119ea565b60405180910390a3505050565b6111f4848484610f73565b61120084848484611384565b610a825760405162461bcd60e51b815260040161048b90612ccb565b60006001600160e01b031982167f4906490600000000000000000000000000000000000000000000000000000000148061038d575061038d826114c3565b6000807a184f03e93ff9f4daa797ed6e38ed64bf6a1f01000000000000000083106112a3577a184f03e93ff9f4daa797ed6e38ed64bf6a1f010000000000000000830492506040015b6d04ee2d6d415b85acef810000000083106112cf576d04ee2d6d415b85acef8100000000830492506020015b662386f26fc1000083106112ed57662386f26fc10000830492506010015b6305f5e1008310611305576305f5e100830492506008015b612710831061131957612710830492506004015b6064831061132b576064830492506002015b600a831061038d5760010192915050565b611346838361155e565b6113536000848484611384565b6104d65760405162461bcd60e51b815260040161048b90612ccb565b610a8284848484611674565b6105dd81611753565b60006001600160a01b0384163b156114b8576040517f150b7a020000000000000000000000000000000000000000000000000000000081526001600160a01b0385169063150b7a02906113e1903390899088908890600401612cdb565b602060405180830381600087803b1580156113fb57600080fd5b505af192505050801561142b575060408051601f3d908101601f1916820190925261142891810190612d2a565b60015b611485573d808015611459576040519150601f19603f3d011682016040523d82523d6000602084013e61145e565b606091505b50805161147d5760405162461bcd60e51b815260040161048b90612ccb565b805181602001fd5b6001600160e01b0319167f150b7a0200000000000000000000000000000000000000000000000000000000149050610f6b565b506001949350505050565b60006001600160e01b031982167f80ac58cd00000000000000000000000000000000000000000000000000000000148061152657506001600160e01b031982167f5b5e139f00000000000000000000000000000000000000000000000000000000145b8061038d57507f01ffc9a7000000000000000000000000000000000000000000000000000000006001600160e01b031983161461038d565b6001600160a01b0382166115845760405162461bcd60e51b815260040161048b90612d7b565b6000818152600260205260409020546001600160a01b0316156115b95760405162461bcd60e51b815260040161048b90612dbd565b6115c760008383600161136f565b6000818152600260205260409020546001600160a01b0316156115fc5760405162461bcd60e51b815260040161048b90612dbd565b6001600160a01b0382166000818152600360209081526040808320805460010190558483526002909152808220805473ffffffffffffffffffffffffffffffffffffffff19168417905551839291907fddf252ad1be2c89b69c2b068fc378daa952ba7f163c4a11628f55a4df523b3ef908290a45050565b60018111156116955760405162461bcd60e51b815260040161048b90612e25565b816001600160a01b0385166116f1576116ec81600980546000838152600a60205260408120829055600182018355919091527f6e1540171b6c0c960b71a7020d9f60077f6af931a8bbf590da0223dacf75c7af0155565b611714565b836001600160a01b0316856001600160a01b031614611714576117148582611774565b6001600160a01b0384166117305761172b81611811565b610949565b846001600160a01b0316846001600160a01b0316146109495761094984826118c0565b60006a636f6e736f6c652e6c6f679050600080835160208501845afa505050565b60006001611781846109ee565b61178b9190612e35565b6000838152600860205260409020549091508082146117de576001600160a01b03841660009081526007602090815260408083208584528252808320548484528184208190558352600890915290208190555b5060009182526008602090815260408084208490556001600160a01b039094168352600781528383209183525290812055565b60095460009061182390600190612e35565b6000838152600a60205260408120546009805493945090928490811061184b5761184b61279e565b90600052602060002001549050806009838154811061186c5761186c61279e565b6000918252602080832090910192909255828152600a909152604080822084905585825281205560098054806118a4576118a4612e4c565b6001900381819060005260206000200160009055905550505050565b60006118cb836109ee565b6001600160a01b039093166000908152600760209081526040808320868452825280832085905593825260089052919091209190915550565b82805461191090611e30565b90600052602060002090601f0160209004810192826119325760008555611978565b82601f1061194b57805160ff1916838001178555611978565b82800160010185558215611978579182015b8281111561197857825182559160200191906001019061195d565b50611984929150611988565b5090565b5b808211156119845760008155600101611989565b6001600160e01b031981165b81146105dd57600080fd5b803561038d8161199d565b6000602082840312156119d4576119d4600080fd5b6000610f6b84846119b4565b8015155b82525050565b6020810161038d82846119e0565b60005b83811015611a135781810151838201526020016119fb565b83811115610a825750506000910152565b6000611a2e825190565b808452602084019350611a458185602086016119f8565b601f01601f19169290920192915050565b60208082528101611a678184611a24565b9392505050565b806119a9565b803561038d81611a6e565b600060208284031215611a9457611a94600080fd5b6000610f6b8484611a74565b60006001600160a01b03821661038d565b6119e481611aa0565b6020810161038d8284611ab1565b6119a981611aa0565b803561038d81611ac8565b60008060408385031215611af257611af2600080fd5b6000611afe8585611ad1565b9250506020611b0f85828601611a74565b9150509250929050565b806119e4565b6020810161038d8284611b19565b600080600060608486031215611b4557611b45600080fd5b6000611b518686611ad1565b9350506020611b6286828701611ad1565b9250506040611b7386828701611a74565b9150509250925092565b600060208284031215611b9257611b92600080fd5b6000610f6b8484611ad1565b8015156119a9565b803561038d81611b9e565b60008060408385031215611bc757611bc7600080fd5b6000611bd38585611ad1565b9250506020611b0f85828601611ba6565b634e487b7160e01b600052604160045260246000fd5b601f19601f830116810181811067ffffffffffffffff82111715611c2057611c20611be4565b6040525050565b6000611c3260405190565b9050611c3e8282611bfa565b919050565b600067ffffffffffffffff821115611c5d57611c5d611be4565b601f19601f83011660200192915050565b82818337506000910152565b6000611c8d611c8884611c43565b611c27565b905082815260208101848484011115611ca857611ca8600080fd5b610cef848285611c6e565b600082601f830112611cc757611cc7600080fd5b8135610f6b848260208601611c7a565b60008060008060808587031215611cf057611cf0600080fd5b6000611cfc8787611ad1565b9450506020611d0d87828801611ad1565b9350506040611d1e87828801611a74565b925050606085013567ffffffffffffffff811115611d3e57611d3e600080fd5b611d4a87828801611cb3565b91505092959194509250565b8051611d628382611b19565b506020810151611d756020840182611b19565b506040810151611d886040840182611b19565b5060608101516104d66060840182611b19565b6080810161038d8284611d56565b60808101611db78287611b19565b611dc46020830186611b19565b611dd16040830185611b19565b611dde6060830184611b19565b95945050505050565b60008060408385031215611dfd57611dfd600080fd5b6000611e098585611ad1565b9250506020611b0f85828601611ad1565b634e487b7160e01b600052602260045260246000fd5b600281046001821680611e4457607f821691505b60208210811415611e5757611e57611e1a565b50919050565b60218152602081017f4552433732313a20617070726f76616c20746f2063757272656e74206f776e6581527f7200000000000000000000000000000000000000000000000000000000000000602082015290505b60400190565b6020808252810161038d81611e5d565b603d8152602081017f4552433732313a20617070726f76652063616c6c6572206973206e6f7420746f81527f6b656e206f776e6572206f7220617070726f76656420666f7220616c6c00000060208201529050611eb1565b6020808252810161038d81611ec7565b7f3c7465787420783d223530252220793d223230252220636c6173733d2262617381527f652220646f6d696e616e742d626173656c696e653d226d6964646c652220746560208201527f78742d616e63686f723d226d6964646c65223e0000000000000000000000000060408201525b60530190565b7f57617272696f720000000000000000000000000000000000000000000000000081525b60070190565b7f3c2f746578743e000000000000000000000000000000000000000000000000008152611fc9565b7f3c7465787420783d223530252220793d223330252220636c6173733d2262617381527f652220646f6d696e616e742d626173656c696e653d226d6964646c652220746560208201527f78742d616e63686f723d226d6964646c65223e000000000000000000000000006040820152611f9f565b6000612075825190565b6120838185602086016119f8565b9290920192915050565b7f3c7465787420783d223530252220793d223430252220636c6173733d2262617381527f652220646f6d696e616e742d626173656c696e653d226d6964646c652220746560208201527f78742d616e63686f723d226d6964646c65223e000000000000000000000000006040820152611f9f565b7f3c7465787420783d223530252220793d223530252220636c6173733d2262617381527f652220646f6d696e616e742d626173656c696e653d226d6964646c652220746560208201527f78742d616e63686f723d226d6964646c65223e000000000000000000000000006040820152611f9f565b7f537472656e6774683a200000000000000000000000000000000000000000000081525b600a0190565b7f3c7465787420783d223530252220793d223630252220636c6173733d2262617381527f652220646f6d696e616e742d626173656c696e653d226d6964646c652220746560208201527f78742d616e63686f723d226d6964646c65223e000000000000000000000000006040820152611f9f565b7f53706565643a20000000000000000000000000000000000000000000000000008152611fc9565b7f3c73766720786d6c6e733d22687474703a2f2f7777772e77332e6f72672f323081527f30302f73766722207072657365727665417370656374526174696f3d22784d6960208201527f6e594d696e206d656574222076696577426f783d22302030203335302033353060408201527f223e00000000000000000000000000000000000000000000000000000000000060608201527f3c7374796c653e2e62617365207b2066696c6c3a2077686974653b20666f6e7460628201527f2d66616d696c793a2073657269663b20666f6e742d73697a653a20313470783b60828201527f207d3c2f7374796c653e0000000000000000000000000000000000000000000060a28201527f3c726563742077696474683d223130302522206865696768743d22313030252260ac8201527f2066696c6c3d22626c61636b22202f3e0000000000000000000000000000000060cc82015260dc0161239a81611f2f565b90506123a581611fa5565b90506123b081611fcf565b90506123bb81611ff7565b7f4c6576656c733a20000000000000000000000000000000000000000000000000815260080190506123ed818661206b565b90506123f881611fcf565b90506124038161208d565b7f48703a200000000000000000000000000000000000000000000000000000000081526004019050612435818561206b565b905061244081611fcf565b905061244b81612101565b905061245681612175565b9050612462818461206b565b905061246d81611fcf565b90506124788161219f565b905061248381612213565b905061248f818361206b565b905061249a81611fcf565b7f3c2f7376673e00000000000000000000000000000000000000000000000000008152905060068101611dde565b7f646174613a696d6167652f7376672b786d6c3b6261736536342c0000000000008152601a81015b905061038d818361206b565b602d8152602081017f4552433732313a2063616c6c6572206973206e6f7420746f6b656e206f776e6581527f72206f7220617070726f7665640000000000000000000000000000000000000060208201529050611eb1565b6020808252810161038d816124fc565b602b8152602081017f455243373231456e756d657261626c653a206f776e657220696e646578206f7581527f74206f6620626f756e647300000000000000000000000000000000000000000060208201529050611eb1565b6020808252810161038d81612564565b601c8152602081017f506c656173652075736520616e206578697374696e6720746f6b656e00000000815290505b60200190565b6020808252810161038d816125cc565b60238152602081017f596f75206d757374206f776e207468697320746f6b656e20746f20747261696e81527f206974000000000000000000000000000000000000000000000000000000000060208201529050611eb1565b6020808252810161038d81612610565b805161038d81611a6e565b60006020828403121561269857612698600080fd5b6000610f6b8484612678565b805161038d81611b9e565b600067ffffffffffffffff8211156126c9576126c9611be4565b5060209081020190565b60006126e1611c88846126af565b8381529050602080820190840283018581111561270057612700600080fd5b835b81811015612722576127148782612678565b835260209283019201612702565b5050509392505050565b600082601f83011261274057612740600080fd5b8151610f6b8482602086016126d3565b6000806040838503121561276657612766600080fd5b600061277285856126a4565b925050602083015167ffffffffffffffff81111561279257612792600080fd5b611b0f8582860161272c565b634e487b7160e01b600052603260045260246000fd5b634e487b7160e01b600052601260045260246000fd5b6000826127d9576127d96127b4565b500690565b602c8152602081017f455243373231456e756d657261626c653a20676c6f62616c20696e646578206f81527f7574206f6620626f756e6473000000000000000000000000000000000000000060208201529050611eb1565b6020808252810161038d816127de565b60188152602081017f4552433732313a20696e76616c696420746f6b656e2049440000000000000000815290506125fa565b6020808252810161038d81612846565b60298152602081017f4552433732313a2061646472657373207a65726f206973206e6f74206120766181527f6c6964206f776e6572000000000000000000000000000000000000000000000060208201529050611eb1565b6020808252810161038d81612888565b7f7b0000000000000000000000000000000000000000000000000000000000000081525b60010190565b7f22696d616765223a2022000000000000000000000000000000000000000000008152612199565b7f22000000000000000000000000000000000000000000000000000000000000008152612914565b7f7d000000000000000000000000000000000000000000000000000000000000008152612914565b61299b816128f0565b7f226e616d65223a2022436861696e20426174746c657320230000000000000000815260180190506129cd818461206b565b7f222c0000000000000000000000000000000000000000000000000000000000008082527f226465736372697074696f6e223a2022426174746c6573206f6e20636861696e600283015260228201526024019050612a2a8161291a565b9050612a36818361206b565b9050612a4181612942565b9050611a678161296a565b7f646174613a6170706c69636174696f6e2f6a736f6e3b6261736536342c0000008152601d81016124f0565b634e487b7160e01b600052601160045260246000fd5b60008219821115612aa157612aa1612a78565b500190565b600082612ab557612ab56127b4565b500490565b6000816000190483118215151615612ad457612ad4612a78565b500290565b602e8152602081017f45524337323155524953746f726167653a2055524920736574206f66206e6f6e81527f6578697374656e7420746f6b656e00000000000000000000000000000000000060208201529050611eb1565b6020808252810161038d81612ad9565b60258152602081017f4552433732313a207472616e736665722066726f6d20696e636f72726563742081527f6f776e657200000000000000000000000000000000000000000000000000000060208201529050611eb1565b6020808252810161038d81612b41565b60248152602081017f4552433732313a207472616e7366657220746f20746865207a65726f2061646481527f726573730000000000000000000000000000000000000000000000000000000060208201529050611eb1565b6020808252810161038d81612ba9565b60408082528101612c228185611a24565b9050611a676020830184611b19565b60198152602081017f4552433732313a20617070726f766520746f2063616c6c657200000000000000815290506125fa565b6020808252810161038d81612c31565b60328152602081017f4552433732313a207472616e7366657220746f206e6f6e20455243373231526581527f63656976657220696d706c656d656e746572000000000000000000000000000060208201529050611eb1565b6020808252810161038d81612c73565b60808101612ce98287611ab1565b612cf66020830186611ab1565b612d036040830185611b19565b8181036060830152612d158184611a24565b9695505050505050565b805161038d8161199d565b600060208284031215612d3f57612d3f600080fd5b6000610f6b8484612d1f565b60208082527f4552433732313a206d696e7420746f20746865207a65726f206164647265737391019081526125fa565b6020808252810161038d81612d4b565b601c8152602081017f4552433732313a20746f6b656e20616c7265616479206d696e74656400000000815290506125fa565b6020808252810161038d81612d8b565b60358152602081017f455243373231456e756d657261626c653a20636f6e736563757469766520747281527f616e7366657273206e6f7420737570706f72746564000000000000000000000060208201529050611eb1565b6020808252810161038d81612dcd565b600082821015612e4757612e47612a78565b500390565b634e487b7160e01b600052603160045260246000fdfe4142434445464748494a4b4c4d4e4f505152535455565758595a6162636465666768696a6b6c6d6e6f707172737475767778797a303132333435363738392b2fa264697066735822122062899328c24df77aa5ae5db27dff9640879d2015882eefbd46fbdd098da7091064736f6c63430008090033",
  "linkReferences": {},
  "deployedLinkReferences": {}
}